{"abi":[{"type":"constructor","inputs":[{"name":"_hook","type":"address","internalType":"address"}],"stateMutability":"nonpayable"},{"type":"function","name":"hook","inputs":[],"outputs":[{"name":"","type":"address","internalType":"address"}],"stateMutability":"view"},{"type":"function","name":"initialize","inputs":[{"name":"key","type":"tuple","internalType":"struct PoolKey","components":[{"name":"currency0","type":"tuple","internalType":"struct Currency","components":[{"name":"token","type":"address","internalType":"address"}]},{"name":"currency1","type":"tuple","internalType":"struct Currency","components":[{"name":"token","type":"address","internalType":"address"}]},{"name":"fee","type":"uint24","internalType":"uint24"},{"name":"tickSpacing","type":"int24","internalType":"int24"},{"name":"hooks","type":"address","internalType":"address"}]},{"name":"sqrtPriceX96","type":"uint160","internalType":"uint160"}],"outputs":[{"name":"tick","type":"int24","internalType":"int24"}],"stateMutability":"nonpayable"},{"type":"function","name":"owner","inputs":[],"outputs":[{"name":"","type":"address","internalType":"address"}],"stateMutability":"view"},{"type":"function","name":"poolInitialized","inputs":[{"name":"","type":"bytes32","internalType":"bytes32"}],"outputs":[{"name":"","type":"bool","internalType":"bool"}],"stateMutability":"view"},{"type":"function","name":"poolPrice","inputs":[{"name":"","type":"bytes32","internalType":"bytes32"}],"outputs":[{"name":"","type":"uint160","internalType":"uint160"}],"stateMutability":"view"},{"type":"function","name":"setHook","inputs":[{"name":"_hook","type":"address","internalType":"address"}],"outputs":[],"stateMutability":"nonpayable"},{"type":"function","name":"swap","inputs":[{"name":"key","type":"tuple","internalType":"struct PoolKey","components":[{"name":"currency0","type":"tuple","internalType":"struct Currency","components":[{"name":"token","type":"address","internalType":"address"}]},{"name":"currency1","type":"tuple","internalType":"struct Currency","components":[{"name":"token","type":"address","internalType":"address"}]},{"name":"fee","type":"uint24","internalType":"uint24"},{"name":"tickSpacing","type":"int24","internalType":"int24"},{"name":"hooks","type":"address","internalType":"address"}]},{"name":"params","type":"tuple","internalType":"struct IPoolManager.SwapParams","components":[{"name":"zeroForOne","type":"bool","internalType":"bool"},{"name":"amountSpecified","type":"int256","internalType":"int256"},{"name":"sqrtPriceLimitX96","type":"uint160","internalType":"uint160"}]},{"name":"hookData","type":"bytes","internalType":"bytes"}],"outputs":[{"name":"delta","type":"tuple","internalType":"struct BalanceDelta","components":[{"name":"amount0","type":"int128","internalType":"int128"},{"name":"amount1","type":"int128","internalType":"int128"}]}],"stateMutability":"nonpayable"},{"type":"event","name":"PoolInitialized","inputs":[{"name":"poolId","type":"bytes32","indexed":true,"internalType":"bytes32"},{"name":"sqrtPriceX96","type":"uint160","indexed":false,"internalType":"uint160"}],"anonymous":false},{"type":"event","name":"SwapExecuted","inputs":[{"name":"poolId","type":"bytes32","indexed":true,"internalType":"bytes32"},{"name":"sender","type":"address","indexed":true,"internalType":"address"},{"name":"zeroForOne","type":"bool","indexed":false,"internalType":"bool"},{"name":"amountSpecified","type":"int256","indexed":false,"internalType":"int256"},{"name":"feeApplied","type":"uint24","indexed":false,"internalType":"uint24"},{"name":"hookReverted","type":"bool","indexed":false,"internalType":"bool"},{"name":"revertReason","type":"string","indexed":false,"internalType":"string"}],"anonymous":false},{"type":"error","name":"PoolNotInitialized","inputs":[{"name":"poolId","type":"bytes32","internalType":"bytes32"}]}],"bytecode":{"object":"0x608060405234801561000f575f5ffd5b5060405161185a38038061185a83398181016040528101906100319190610114565b805f5f6101000a81548173ffffffffffffffffffffffffffffffffffffffff021916908373ffffffffffffffffffffffffffffffffffffffff1602179055503360015f6101000a81548173ffffffffffffffffffffffffffffffffffffffff021916908373ffffffffffffffffffffffffffffffffffffffff1602179055505061013f565b5f5ffd5b5f73ffffffffffffffffffffffffffffffffffffffff82169050919050565b5f6100e3826100ba565b9050919050565b6100f3816100d9565b81146100fd575f5ffd5b50565b5f8151905061010e816100ea565b92915050565b5f60208284031215610129576101286100b6565b5b5f61013684828501610100565b91505092915050565b61170e8061014c5f395ff3fe608060405234801561000f575f5ffd5b506004361061007b575f3560e01c80637f5a7c7b116100595780637f5a7c7b146100fb5780637f81ccc3146101195780638da5cb5b14610149578063dcefcf42146101675761007b565b80630257576c1461007f57806324cb75c6146100af5780633dfd3873146100df575b5f5ffd5b61009960048036038101906100949190610af0565b610197565b6040516100a69190610b35565b60405180910390f35b6100c960048036038101906100c49190610af0565b6101b4565b6040516100d69190610b7c565b60405180910390f35b6100f960048036038101906100f49190610bd0565b6101e4565b005b6101036102b5565b6040516101109190610c0a565b60405180910390f35b610133600480360381019061012e9190610f28565b6102d9565b6040516101409190610fe3565b60405180910390f35b6101516107d9565b60405161015e9190610c0a565b60405180910390f35b610181600480360381019061017c9190610ffc565b6107fe565b60405161018e9190611049565b60405180910390f35b6003602052805f5260405f205f915054906101000a900460ff1681565b6002602052805f5260405f205f915054906101000a900473ffffffffffffffffffffffffffffffffffffffff1681565b60015f9054906101000a900473ffffffffffffffffffffffffffffffffffffffff1673ffffffffffffffffffffffffffffffffffffffff163373ffffffffffffffffffffffffffffffffffffffff1614610273576040517f08c379a000000000000000000000000000000000000000000000000000000000815260040161026a906110bc565b60405180910390fd5b805f5f6101000a81548173ffffffffffffffffffffffffffffffffffffffff021916908373ffffffffffffffffffffffffffffffffffffffff16021790555050565b5f5f9054906101000a900473ffffffffffffffffffffffffffffffffffffffff1681565b6102e1610a8e565b5f6102eb866108c5565b905060035f8281526020019081526020015f205f9054906101000a900460ff1661034c57806040517fdc15460a00000000000000000000000000000000000000000000000000000000815260040161034391906110e9565b60405180910390fd5b5f5f90505f5f90505f60405180602001604052805f81525090505f73ffffffffffffffffffffffffffffffffffffffff165f5f9054906101000a900473ffffffffffffffffffffffffffffffffffffffff1673ffffffffffffffffffffffffffffffffffffffff1614610565575f5f5f5f9054906101000a900473ffffffffffffffffffffffffffffffffffffffff1673ffffffffffffffffffffffffffffffffffffffff1663f567d7cf60e01b338d8d8d8d604051602401610413959493929190611266565b604051602081830303815290604052907bffffffffffffffffffffffffffffffffffffffffffffffffffffffff19166020820180517bffffffffffffffffffffffffffffffffffffffffffffffffffffffff838183161783525050505060405161047d9190611306565b5f604051808303815f865af19150503d805f81146104b6576040519150601f19603f3d011682016040523d82523d5f602084013e6104bb565b606091505b50915091508161053b57600193506104d28161090f565b92503373ffffffffffffffffffffffffffffffffffffffff16867fa4ab682bb1dfa6da2927d6ff4b55e6fe99dcfad884c78b258adb952da27001f28c5f01518d602001515f60018960405161052b9594939291906113af565b60405180910390a3805160208201fd5b606081511061056257808060200190518101906105589190611484565b9091509050809550505b50505b5f5f8462ffffff161161057c57896040015161057e565b835b90505f8960200151905060405180604001604052808b5f01516105a1575f6105ac565b826105ab90611501565b5b600f0b81526020018b5f01516105cb57826105c690611501565b6105cd565b5f5b600f0b81525096505f73ffffffffffffffffffffffffffffffffffffffff165f5f9054906101000a900473ffffffffffffffffffffffffffffffffffffffff1673ffffffffffffffffffffffffffffffffffffffff161461076f575f5f5f9054906101000a900473ffffffffffffffffffffffffffffffffffffffff1673ffffffffffffffffffffffffffffffffffffffff166349e86b6b60e01b338e8e8c8f8f60405160240161068396959493929190611547565b604051602081830303815290604052907bffffffffffffffffffffffffffffffffffffffffffffffffffffffff19166020820180517bffffffffffffffffffffffffffffffffffffffffffffffffffffffff83818316178352505050506040516106ed9190611306565b5f604051808303815f865af19150503d805f8114610726576040519150601f19603f3d011682016040523d82523d5f602084013e61072b565b606091505b505090508061076d576040518060400160405280601081526020017f616674657253776170206661696c65640000000000000000000000000000000081525093505b505b3373ffffffffffffffffffffffffffffffffffffffff16867fa4ab682bb1dfa6da2927d6ff4b55e6fe99dcfad884c78b258adb952da27001f28c5f01518d60200151865f6040516107c394939291906115d6565b60405180910390a3505050505050949350505050565b60015f9054906101000a900473ffffffffffffffffffffffffffffffffffffffff1681565b5f5f610809846108c5565b90508260025f8381526020019081526020015f205f6101000a81548173ffffffffffffffffffffffffffffffffffffffff021916908373ffffffffffffffffffffffffffffffffffffffff160217905550600160035f8381526020019081526020015f205f6101000a81548160ff021916908315150217905550807f3feb82bb33469ba3cf8cff6b083c3f75ac5efabca67d981c5e161d2c8acf01c4846040516108b39190610b7c565b60405180910390a25f91505092915050565b5f815f01515f015182602001515f0151836040015184606001516040516020016108f2949392919061162c565b604051602081830303815290604052805190602001209050919050565b6060600482511015610958576040518060400160405280600e81526020017f756e6b6e6f776e207265766572740000000000000000000000000000000000008152509050610a89565b600482511115610a50575f600483516109719190611678565b67ffffffffffffffff81111561098a57610989610c37565b5b6040519080825280601f01601f1916602001820160405280156109bc5781602001600182028036833780820191505090505b5090505f600490505b8351811015610a46578381815181106109e1576109e06116ab565b5b602001015160f81c60f81b826004836109fa9190611678565b81518110610a0b57610a0a6116ab565b5b60200101907effffffffffffffffffffffffffffffffffffffffffffffffffffffffffffff191690815f1a90535080806001019150506109c5565b5080915050610a89565b6040518060400160405280600981526020017f6e6f20726561736f6e000000000000000000000000000000000000000000000081525090505b919050565b60405180604001604052805f600f0b81526020015f600f0b81525090565b5f604051905090565b5f5ffd5b5f5ffd5b5f819050919050565b610acf81610abd565b8114610ad9575f5ffd5b50565b5f81359050610aea81610ac6565b92915050565b5f60208284031215610b0557610b04610ab5565b5b5f610b1284828501610adc565b91505092915050565b5f8115159050919050565b610b2f81610b1b565b82525050565b5f602082019050610b485f830184610b26565b92915050565b5f73ffffffffffffffffffffffffffffffffffffffff82169050919050565b610b7681610b4e565b82525050565b5f602082019050610b8f5f830184610b6d565b92915050565b5f610b9f82610b4e565b9050919050565b610baf81610b95565b8114610bb9575f5ffd5b50565b5f81359050610bca81610ba6565b92915050565b5f60208284031215610be557610be4610ab5565b5b5f610bf284828501610bbc565b91505092915050565b610c0481610b95565b82525050565b5f602082019050610c1d5f830184610bfb565b92915050565b5f5ffd5b5f601f19601f8301169050919050565b7f4e487b71000000000000000000000000000000000000000000000000000000005f52604160045260245ffd5b610c6d82610c27565b810181811067ffffffffffffffff82111715610c8c57610c8b610c37565b5b80604052505050565b5f610c9e610aac565b9050610caa8282610c64565b919050565b5f60208284031215610cc457610cc3610c23565b5b610cce6020610c95565b90505f610cdd84828501610bbc565b5f8301525092915050565b5f62ffffff82169050919050565b610cff81610ce8565b8114610d09575f5ffd5b50565b5f81359050610d1a81610cf6565b92915050565b5f8160020b9050919050565b610d3581610d20565b8114610d3f575f5ffd5b50565b5f81359050610d5081610d2c565b92915050565b5f60a08284031215610d6b57610d6a610c23565b5b610d7560a0610c95565b90505f610d8484828501610caf565b5f830152506020610d9784828501610caf565b6020830152506040610dab84828501610d0c565b6040830152506060610dbf84828501610d42565b6060830152506080610dd384828501610bbc565b60808301525092915050565b610de881610b1b565b8114610df2575f5ffd5b50565b5f81359050610e0381610ddf565b92915050565b5f819050919050565b610e1b81610e09565b8114610e25575f5ffd5b50565b5f81359050610e3681610e12565b92915050565b610e4581610b4e565b8114610e4f575f5ffd5b50565b5f81359050610e6081610e3c565b92915050565b5f60608284031215610e7b57610e7a610c23565b5b610e856060610c95565b90505f610e9484828501610df5565b5f830152506020610ea784828501610e28565b6020830152506040610ebb84828501610e52565b60408301525092915050565b5f5ffd5b5f5ffd5b5f5ffd5b5f5f83601f840112610ee857610ee7610ec7565b5b8235905067ffffffffffffffff811115610f0557610f04610ecb565b5b602083019150836001820283011115610f2157610f20610ecf565b5b9250929050565b5f5f5f5f6101208587031215610f4157610f40610ab5565b5b5f610f4e87828801610d56565b94505060a0610f5f87828801610e66565b93505061010085013567ffffffffffffffff811115610f8157610f80610ab9565b5b610f8d87828801610ed3565b925092505092959194509250565b5f81600f0b9050919050565b610fb081610f9b565b82525050565b604082015f820151610fca5f850182610fa7565b506020820151610fdd6020850182610fa7565b50505050565b5f604082019050610ff65f830184610fb6565b92915050565b5f5f60c0838503121561101257611011610ab5565b5b5f61101f85828601610d56565b92505060a061103085828601610e52565b9150509250929050565b61104381610d20565b82525050565b5f60208201905061105c5f83018461103a565b92915050565b5f82825260208201905092915050565b7f4e6f74206f776e657200000000000000000000000000000000000000000000005f82015250565b5f6110a6600983611062565b91506110b182611072565b602082019050919050565b5f6020820190508181035f8301526110d38161109a565b9050919050565b6110e381610abd565b82525050565b5f6020820190506110fc5f8301846110da565b92915050565b61110b81610b95565b82525050565b602082015f8201516111255f850182611102565b50505050565b61113481610ce8565b82525050565b61114381610d20565b82525050565b60a082015f82015161115d5f850182611111565b5060208201516111706020850182611111565b506040820151611183604085018261112b565b506060820151611196606085018261113a565b5060808201516111a96080850182611102565b50505050565b6111b881610b1b565b82525050565b6111c781610e09565b82525050565b6111d681610b4e565b82525050565b606082015f8201516111f05f8501826111af565b50602082015161120360208501826111be565b50604082015161121660408501826111cd565b50505050565b5f82825260208201905092915050565b828183375f83830152505050565b5f611245838561121c565b935061125283858461122c565b61125b83610c27565b840190509392505050565b5f6101408201905061127a5f830188610bfb565b6112876020830187611149565b61129460c08301866111dc565b8181036101208301526112a881848661123a565b90509695505050505050565b5f81519050919050565b5f81905092915050565b8281835e5f83830152505050565b5f6112e0826112b4565b6112ea81856112be565b93506112fa8185602086016112c8565b80840191505092915050565b5f61131182846112d6565b915081905092915050565b61132581610e09565b82525050565b5f819050919050565b5f819050919050565b5f61135761135261134d8461132b565b611334565b610ce8565b9050919050565b6113678161133d565b82525050565b5f81519050919050565b5f6113818261136d565b61138b8185611062565b935061139b8185602086016112c8565b6113a481610c27565b840191505092915050565b5f60a0820190506113c25f830188610b26565b6113cf602083018761131c565b6113dc604083018661135e565b6113e96060830185610b26565b81810360808301526113fb8184611377565b90509695505050505050565b5f7fffffffff0000000000000000000000000000000000000000000000000000000082169050919050565b61143b81611407565b8114611445575f5ffd5b50565b5f8151905061145681611432565b92915050565b5f8151905061146a81610e12565b92915050565b5f8151905061147e81610cf6565b92915050565b5f5f5f6060848603121561149b5761149a610ab5565b5b5f6114a886828701611448565b93505060206114b98682870161145c565b92505060406114ca86828701611470565b9150509250925092565b7f4e487b71000000000000000000000000000000000000000000000000000000005f52601160045260245ffd5b5f61150b82610e09565b91507f8000000000000000000000000000000000000000000000000000000000000000820361153d5761153c6114d4565b5b815f039050919050565b5f6101808201905061155b5f830189610bfb565b6115686020830188611149565b61157560c08301876111dc565b611583610120830186610fb6565b81810361016083015261159781848661123a565b9050979650505050505050565b6115ad81610ce8565b82525050565b50565b5f6115c15f83611062565b91506115cc826115b3565b5f82019050919050565b5f60a0820190506115e95f830187610b26565b6115f6602083018661131c565b61160360408301856115a4565b6116106060830184610b26565b8181036080830152611621816115b6565b905095945050505050565b5f60808201905061163f5f830187610bfb565b61164c6020830186610bfb565b61165960408301856115a4565b611666606083018461103a565b95945050505050565b5f819050919050565b5f6116828261166f565b915061168d8361166f565b92508282039050818111156116a5576116a46114d4565b5b92915050565b7f4e487b71000000000000000000000000000000000000000000000000000000005f52603260045260245ffdfea26469706673582212206e118097716a9671e8d22503e8c8bd5797289a34dcaa97d255e41bcafce9e21b64736f6c634300081c0033","linkReferences":{}},"methodIdentifiers":{"hook()":"7f5a7c7b","initialize(((address),(address),uint24,int24,address),uint160)":"dcefcf42","owner()":"8da5cb5b","poolInitialized(bytes32)":"0257576c","poolPrice(bytes32)":"24cb75c6","setHook(address)":"3dfd3873","swap(((address),(address),uint24,int24,address),(bool,int256,uint160),bytes)":"7f81ccc3"},"id":2}