{"abi":[{"type":"constructor","inputs":[{"name":"name_","type":"string","internalType":"string"},{"name":"symbol_","type":"string","internalType":"string"}],"stateMutability":"nonpayable"},{"type":"function","name":"allowance","inputs":[{"name":"owner","type":"address","internalType":"address"},{"name":"spender","type":"address","internalType":"address"}],"outputs":[{"name":"","type":"uint256","internalType":"uint256"}],"stateMutability":"view"},{"type":"function","name":"approve","inputs":[{"name":"spender","type":"address","internalType":"address"},{"name":"value","type":"uint256","internalType":"uint256"}],"outputs":[{"name":"","type":"bool","internalType":"bool"}],"stateMutability":"nonpayable"},{"type":"function","name":"balanceOf","inputs":[{"name":"account","type":"address","internalType":"address"}],"outputs":[{"name":"","type":"uint256","internalType":"uint256"}],"stateMutability":"view"},{"type":"function","name":"decimals","inputs":[],"outputs":[{"name":"","type":"uint8","internalType":"uint8"}],"stateMutability":"pure"},{"type":"function","name":"faucet","inputs":[{"name":"amount","type":"uint256","internalType":"uint256"}],"outputs":[],"stateMutability":"nonpayable"},{"type":"function","name":"name","inputs":[],"outputs":[{"name":"","type":"string","internalType":"string"}],"stateMutability":"view"},{"type":"function","name":"owner","inputs":[],"outputs":[{"name":"","type":"address","internalType":"address"}],"stateMutability":"view"},{"type":"function","name":"renounceOwnership","inputs":[],"outputs":[],"stateMutability":"nonpayable"},{"type":"function","name":"symbol","inputs":[],"outputs":[{"name":"","type":"string","internalType":"string"}],"stateMutability":"view"},{"type":"function","name":"totalSupply","inputs":[],"outputs":[{"name":"","type":"uint256","internalType":"uint256"}],"stateMutability":"view"},{"type":"function","name":"transfer","inputs":[{"name":"to","type":"address","internalType":"address"},{"name":"value","type":"uint256","internalType":"uint256"}],"outputs":[{"name":"","type":"bool","internalType":"bool"}],"stateMutability":"nonpayable"},{"type":"function","name":"transferFrom","inputs":[{"name":"from","type":"address","internalType":"address"},{"name":"to","type":"address","internalType":"address"},{"name":"value","type":"uint256","internalType":"uint256"}],"outputs":[{"name":"","type":"bool","internalType":"bool"}],"stateMutability":"nonpayable"},{"type":"function","name":"transferOwnership","inputs":[{"name":"newOwner","type":"address","internalType":"address"}],"outputs":[],"stateMutability":"nonpayable"},{"type":"event","name":"Approval","inputs":[{"name":"owner","type":"address","indexed":true,"internalType":"address"},{"name":"spender","type":"address","indexed":true,"internalType":"address"},{"name":"value","type":"uint256","indexed":false,"internalType":"uint256"}],"anonymous":false},{"type":"event","name":"OwnershipTransferred","inputs":[{"name":"previousOwner","type":"address","indexed":true,"internalType":"address"},{"name":"newOwner","type":"address","indexed":true,"internalType":"address"}],"anonymous":false},{"type":"event","name":"Transfer","inputs":[{"name":"from","type":"address","indexed":true,"internalType":"address"},{"name":"to","type":"address","indexed":true,"internalType":"address"},{"name":"value","type":"uint256","indexed":false,"internalType":"uint256"}],"anonymous":false},{"type":"error","name":"ERC20InsufficientAllowance","inputs":[{"name":"spender","type":"address","internalType":"address"},{"name":"allowance","type":"uint256","internalType":"uint256"},{"name":"needed","type":"uint256","internalType":"uint256"}]},{"type":"error","name":"ERC20InsufficientBalance","inputs":[{"name":"sender","type":"address","internalType":"address"},{"name":"balance","type":"uint256","internalType":"uint256"},{"name":"needed","type":"uint256","internalType":"uint256"}]},{"type":"error","name":"ERC20InvalidApprover","inputs":[{"name":"approver","type":"address","internalType":"address"}]},{"type":"error","name":"ERC20InvalidReceiver","inputs":[{"name":"receiver","type":"address","internalType":"address"}]},{"type":"error","name":"ERC20InvalidSender","inputs":[{"name":"sender","type":"address","internalType":"address"}]},{"type":"error","name":"ERC20InvalidSpender","inputs":[{"name":"spender","type":"address","internalType":"address"}]},{"type":"error","name":"OwnableInvalidOwner","inputs":[{"name":"owner","type":"address","internalType":"address"}]},{"type":"error","name":"OwnableUnauthorizedAccount","inputs":[{"name":"account","type":"address","internalType":"address"}]}],"bytecode":{"object":"0x6080604052346103dc57610f0f80380380610019816103e0565b9283398101906040818303126103dc5780516001600160401b0381116103dc5782610045918301610405565b60208201519092906001600160401b0381116103dc576100659201610405565b81516001600160401b0381116102ef57600354600181811c911680156103d2575b60208210146102d157601f811161036f575b50602092601f821160011461030e57928192935f92610303575b50508160011b915f199060031b1c1916176003555b80516001600160401b0381116102ef57600454600181811c911680156102e5575b60208210146102d157601f811161026e575b50602091601f821160011461020e579181925f92610203575b50508160011b915f199060031b1c1916176004555b33156101f05760058054336001600160a01b0319821681179092556001600160a01b03167f8be0079c531659141344cd1fd0a4f28419497f9722a3daafe3b4186f6b6457e05f80a360025464e8d4a5100081018091116101dc57600255335f525f60205260405f2064e8d4a51000815401905560405164e8d4a5100081525f7fddf252ad1be2c89b69c2b068fc378daa952ba7f163c4a11628f55a4df523b3ef60203393a3604051610ab890816104578239f35b634e487b7160e01b5f52601160045260245ffd5b631e4fbdf760e01b5f525f60045260245ffd5b015190505f80610113565b601f1982169260045f52805f20915f5b8581106102565750836001951061023e575b505050811b01600455610128565b01515f1960f88460031b161c191690555f8080610230565b9192602060018192868501518155019401920161021e565b60045f527f8a35acfbc15ff81a39ae7d344fd709f28e8600b4aa8c65c6b64bfe7fe36bd19b601f830160051c810191602084106102c7575b601f0160051c01905b8181106102bc57506100fa565b5f81556001016102af565b90915081906102a6565b634e487b7160e01b5f52602260045260245ffd5b90607f16906100e8565b634e487b7160e01b5f52604160045260245ffd5b015190505f806100b2565b601f1982169360035f52805f20915f5b868110610357575083600195961061033f575b505050811b016003556100c7565b01515f1960f88460031b161c191690555f8080610331565b9192602060018192868501518155019401920161031e565b60035f527fc2575a0e9e593c00f959f8c92f12db2869c3395a3b0502d05e2516446f71f85b601f830160051c810191602084106103c8575b601f0160051c01905b8181106103bd5750610098565b5f81556001016103b0565b90915081906103a7565b90607f1690610086565b5f80fd5b6040519190601f01601f191682016001600160401b038111838210176102ef57604052565b81601f820112156103dc578051906001600160401b0382116102ef57610434601f8301601f19166020016103e0565b92828452602083830101116103dc57815f9260208093018386015e830101529056fe6080806040526004361015610012575f80fd5b5f3560e01c90816306fdde03146107f857508063095ea7b31461076957806318160ddd1461074c57806323b872dd146105d6578063313ce567146105bb578063579158971461048e57806370a082311461044a578063715018a6146103cc5780638da5cb5b1461039957806395d89b411461021e578063a9059cbb146101ed578063dd62ed3e1461017f5763f2fde38b146100ab575f80fd5b3461017b57602060031936011261017b5773ffffffffffffffffffffffffffffffffffffffff6100d96108f9565b6100e1610a35565b16801561014f5773ffffffffffffffffffffffffffffffffffffffff600554827fffffffffffffffffffffffff0000000000000000000000000000000000000000821617600555167f8be0079c531659141344cd1fd0a4f28419497f9722a3daafe3b4186f6b6457e05f80a3005b7f1e4fbdf7000000000000000000000000000000000000000000000000000000005f525f60045260245ffd5b5f80fd5b3461017b57604060031936011261017b576101986108f9565b73ffffffffffffffffffffffffffffffffffffffff6101b561091c565b91165f52600160205273ffffffffffffffffffffffffffffffffffffffff60405f2091165f52602052602060405f2054604051908152f35b3461017b57604060031936011261017b576102136102096108f9565b602435903361093f565b602060405160018152f35b3461017b575f60031936011261017b576040515f600454908160011c6001831692831561038f575b60208210841461036257818552849390811561032057506001146102c4575b5003601f01601f191681019067ffffffffffffffff82118183101761029757610293829182604052826108cf565b0390f35b7f4e487b71000000000000000000000000000000000000000000000000000000005f52604160045260245ffd5b60045f90815291507f8a35acfbc15ff81a39ae7d344fd709f28e8600b4aa8c65c6b64bfe7fe36bd19b5b8183106103045750508101602001601f19610265565b60209193508060019154838588010152019101909183926102ee565b7fffffffffffffffffffffffffffffffffffffffffffffffffffffffffffffff001660208581019190915291151560051b84019091019150601f199050610265565b7f4e487b71000000000000000000000000000000000000000000000000000000005f52602260045260245ffd5b90607f1690610246565b3461017b575f60031936011261017b57602073ffffffffffffffffffffffffffffffffffffffff60055416604051908152f35b3461017b575f60031936011261017b576103e4610a35565b5f73ffffffffffffffffffffffffffffffffffffffff6005547fffffffffffffffffffffffff00000000000000000000000000000000000000008116600555167f8be0079c531659141344cd1fd0a4f28419497f9722a3daafe3b4186f6b6457e08280a3005b3461017b57602060031936011261017b5773ffffffffffffffffffffffffffffffffffffffff6104786108f9565b165f525f602052602060405f2054604051908152f35b3461017b57602060031936011261017b576004356402540be400811161055d5733156105315760025481810180911161050457600255335f525f60205260405f208181540190556040519081525f7fddf252ad1be2c89b69c2b068fc378daa952ba7f163c4a11628f55a4df523b3ef60203393a3005b7f4e487b71000000000000000000000000000000000000000000000000000000005f52601160045260245ffd5b7fec442f05000000000000000000000000000000000000000000000000000000005f525f60045260245ffd5b60646040517f08c379a000000000000000000000000000000000000000000000000000000000815260206004820152601860248201527f6661756365743a20616d6f756e7420746f6f206c6172676500000000000000006044820152fd5b3461017b575f60031936011261017b57602060405160068152f35b3461017b57606060031936011261017b576105ef6108f9565b6105f761091c565b6044359073ffffffffffffffffffffffffffffffffffffffff831692835f52600160205260405f2073ffffffffffffffffffffffffffffffffffffffff33165f5260205260405f20547fffffffffffffffffffffffffffffffffffffffffffffffffffffffffffffffff8110610673575b50610213935061093f565b8381106107185784156106ec5733156106c057610213945f52600160205260405f2073ffffffffffffffffffffffffffffffffffffffff33165f526020528360405f209103905584610668565b7f94280d62000000000000000000000000000000000000000000000000000000005f525f60045260245ffd5b7fe602df05000000000000000000000000000000000000000000000000000000005f525f60045260245ffd5b83907ffb8f41b2000000000000000000000000000000000000000000000000000000005f523360045260245260445260645ffd5b3461017b575f60031936011261017b576020600254604051908152f35b3461017b57604060031936011261017b576107826108f9565b6024359033156106ec5773ffffffffffffffffffffffffffffffffffffffff169081156106c057335f52600160205260405f20825f526020528060405f20556040519081527f8c5be1e5ebec7d5bd14f71427d1e84f3dd0314c0f7b2291e5b200ac8c7c3b92560203392a3602060405160018152f35b3461017b575f60031936011261017b575f600354908160011c600183169283156108c5575b6020821084146103625781855284939081156103205750600114610869575003601f01601f191681019067ffffffffffffffff82118183101761029757610293829182604052826108cf565b60035f90815291507fc2575a0e9e593c00f959f8c92f12db2869c3395a3b0502d05e2516446f71f85b5b8183106108a95750508101602001601f19610265565b6020919350806001915483858801015201910190918392610893565b90607f169061081d565b601f19601f602060409481855280519182918282880152018686015e5f8582860101520116010190565b6004359073ffffffffffffffffffffffffffffffffffffffff8216820361017b57565b6024359073ffffffffffffffffffffffffffffffffffffffff8216820361017b57565b73ffffffffffffffffffffffffffffffffffffffff16908115610a095773ffffffffffffffffffffffffffffffffffffffff1691821561053157815f525f60205260405f20548181106109d757817fddf252ad1be2c89b69c2b068fc378daa952ba7f163c4a11628f55a4df523b3ef92602092855f525f84520360405f2055845f525f825260405f20818154019055604051908152a3565b827fe450d38c000000000000000000000000000000000000000000000000000000005f5260045260245260445260645ffd5b7f96c6fd1e000000000000000000000000000000000000000000000000000000005f525f60045260245ffd5b73ffffffffffffffffffffffffffffffffffffffff600554163303610a5657565b7f118cdaa7000000000000000000000000000000000000000000000000000000005f523360045260245ffdfea2646970667358221220d33a5a96c942473e19a5e77dcbacbe2c0aef56deae6842c84f5f41661d073f4664736f6c634300081a0033","linkReferences":{}},"methodIdentifiers":{"allowance(address,address)":"dd62ed3e","approve(address,uint256)":"095ea7b3","balanceOf(address)":"70a08231","decimals()":"313ce567","faucet(uint256)":"57915897","name()":"06fdde03","owner()":"8da5cb5b","renounceOwnership()":"715018a6","symbol()":"95d89b41","totalSupply()":"18160ddd","transfer(address,uint256)":"a9059cbb","transferFrom(address,address,uint256)":"23b872dd","transferOwnership(address)":"f2fde38b"},"id":52}