{"abi":[{"type":"constructor","inputs":[{"name":"_poolManager","type":"address","internalType":"contract IPoolManager"}],"stateMutability":"nonpayable"},{"type":"function","name":"NORMALIZATION","inputs":[],"outputs":[{"name":"","type":"int256","internalType":"int256"}],"stateMutability":"view"},{"type":"function","name":"afterAddLiquidity","inputs":[{"name":"sender","type":"address","internalType":"address"},{"name":"key","type":"tuple","internalType":"struct PoolKey","components":[{"name":"currency0","type":"address","internalType":"Currency"},{"name":"currency1","type":"address","internalType":"Currency"},{"name":"fee","type":"uint24","internalType":"uint24"},{"name":"tickSpacing","type":"int24","internalType":"int24"},{"name":"hooks","type":"address","internalType":"contract IHooks"}]},{"name":"params","type":"tuple","internalType":"struct ModifyLiquidityParams","components":[{"name":"tickLower","type":"int24","internalType":"int24"},{"name":"tickUpper","type":"int24","internalType":"int24"},{"name":"liquidityDelta","type":"int256","internalType":"int256"},{"name":"salt","type":"bytes32","internalType":"bytes32"}]},{"name":"delta0","type":"int256","internalType":"BalanceDelta"},{"name":"delta1","type":"int256","internalType":"BalanceDelta"},{"name":"hookData","type":"bytes","internalType":"bytes"}],"outputs":[{"name":"","type":"bytes4","internalType":"bytes4"},{"name":"","type":"int256","internalType":"BalanceDelta"}],"stateMutability":"nonpayable"},{"type":"function","name":"afterDonate","inputs":[{"name":"sender","type":"address","internalType":"address"},{"name":"key","type":"tuple","internalType":"struct PoolKey","components":[{"name":"currency0","type":"address","internalType":"Currency"},{"name":"currency1","type":"address","internalType":"Currency"},{"name":"fee","type":"uint24","internalType":"uint24"},{"name":"tickSpacing","type":"int24","internalType":"int24"},{"name":"hooks","type":"address","internalType":"contract IHooks"}]},{"name":"amount0","type":"uint256","internalType":"uint256"},{"name":"amount1","type":"uint256","internalType":"uint256"},{"name":"hookData","type":"bytes","internalType":"bytes"}],"outputs":[{"name":"","type":"bytes4","internalType":"bytes4"}],"stateMutability":"nonpayable"},{"type":"function","name":"afterInitialize","inputs":[{"name":"sender","type":"address","internalType":"address"},{"name":"key","type":"tuple","internalType":"struct PoolKey","components":[{"name":"currency0","type":"address","internalType":"Currency"},{"name":"currency1","type":"address","internalType":"Currency"},{"name":"fee","type":"uint24","internalType":"uint24"},{"name":"tickSpacing","type":"int24","internalType":"int24"},{"name":"hooks","type":"address","internalType":"contract IHooks"}]},{"name":"sqrtPriceX96","type":"uint160","internalType":"uint160"},{"name":"tick","type":"int24","internalType":"int24"}],"outputs":[{"name":"","type":"bytes4","internalType":"bytes4"}],"stateMutability":"nonpayable"},{"type":"function","name":"afterRemoveLiquidity","inputs":[{"name":"sender","type":"address","internalType":"address"},{"name":"key","type":"tuple","internalType":"struct PoolKey","components":[{"name":"currency0","type":"address","internalType":"Currency"},{"name":"currency1","type":"address","internalType":"Currency"},{"name":"fee","type":"uint24","internalType":"uint24"},{"name":"tickSpacing","type":"int24","internalType":"int24"},{"name":"hooks","type":"address","internalType":"contract IHooks"}]},{"name":"params","type":"tuple","internalType":"struct ModifyLiquidityParams","components":[{"name":"tickLower","type":"int24","internalType":"int24"},{"name":"tickUpper","type":"int24","internalType":"int24"},{"name":"liquidityDelta","type":"int256","internalType":"int256"},{"name":"salt","type":"bytes32","internalType":"bytes32"}]},{"name":"delta0","type":"int256","internalType":"BalanceDelta"},{"name":"delta1","type":"int256","internalType":"BalanceDelta"},{"name":"hookData","type":"bytes","internalType":"bytes"}],"outputs":[{"name":"","type":"bytes4","internalType":"bytes4"},{"name":"","type":"int256","internalType":"BalanceDelta"}],"stateMutability":"nonpayable"},{"type":"function","name":"afterSwap","inputs":[{"name":"sender","type":"address","internalType":"address"},{"name":"key","type":"tuple","internalType":"struct PoolKey","components":[{"name":"currency0","type":"address","internalType":"Currency"},{"name":"currency1","type":"address","internalType":"Currency"},{"name":"fee","type":"uint24","internalType":"uint24"},{"name":"tickSpacing","type":"int24","internalType":"int24"},{"name":"hooks","type":"address","internalType":"contract IHooks"}]},{"name":"params","type":"tuple","internalType":"struct SwapParams","components":[{"name":"zeroForOne","type":"bool","internalType":"bool"},{"name":"amountSpecified","type":"int256","internalType":"int256"},{"name":"sqrtPriceLimitX96","type":"uint160","internalType":"uint160"}]},{"name":"delta","type":"int256","internalType":"BalanceDelta"},{"name":"hookData","type":"bytes","internalType":"bytes"}],"outputs":[{"name":"","type":"bytes4","internalType":"bytes4"},{"name":"","type":"int128","internalType":"int128"}],"stateMutability":"nonpayable"},{"type":"function","name":"beforeAddLiquidity","inputs":[{"name":"sender","type":"address","internalType":"address"},{"name":"key","type":"tuple","internalType":"struct PoolKey","components":[{"name":"currency0","type":"address","internalType":"Currency"},{"name":"currency1","type":"address","internalType":"Currency"},{"name":"fee","type":"uint24","internalType":"uint24"},{"name":"tickSpacing","type":"int24","internalType":"int24"},{"name":"hooks","type":"address","internalType":"contract IHooks"}]},{"name":"params","type":"tuple","internalType":"struct ModifyLiquidityParams","components":[{"name":"tickLower","type":"int24","internalType":"int24"},{"name":"tickUpper","type":"int24","internalType":"int24"},{"name":"liquidityDelta","type":"int256","internalType":"int256"},{"name":"salt","type":"bytes32","internalType":"bytes32"}]},{"name":"hookData","type":"bytes","internalType":"bytes"}],"outputs":[{"name":"","type":"bytes4","internalType":"bytes4"}],"stateMutability":"nonpayable"},{"type":"function","name":"beforeDonate","inputs":[{"name":"sender","type":"address","internalType":"address"},{"name":"key","type":"tuple","internalType":"struct PoolKey","components":[{"name":"currency0","type":"address","internalType":"Currency"},{"name":"currency1","type":"address","internalType":"Currency"},{"name":"fee","type":"uint24","internalType":"uint24"},{"name":"tickSpacing","type":"int24","internalType":"int24"},{"name":"hooks","type":"address","internalType":"contract IHooks"}]},{"name":"amount0","type":"uint256","internalType":"uint256"},{"name":"amount1","type":"uint256","internalType":"uint256"},{"name":"hookData","type":"bytes","internalType":"bytes"}],"outputs":[{"name":"","type":"bytes4","internalType":"bytes4"}],"stateMutability":"nonpayable"},{"type":"function","name":"beforeInitialize","inputs":[{"name":"sender","type":"address","internalType":"address"},{"name":"key","type":"tuple","internalType":"struct PoolKey","components":[{"name":"currency0","type":"address","internalType":"Currency"},{"name":"currency1","type":"address","internalType":"Currency"},{"name":"fee","type":"uint24","internalType":"uint24"},{"name":"tickSpacing","type":"int24","internalType":"int24"},{"name":"hooks","type":"address","internalType":"contract IHooks"}]},{"name":"sqrtPriceX96","type":"uint160","internalType":"uint160"}],"outputs":[{"name":"","type":"bytes4","internalType":"bytes4"}],"stateMutability":"nonpayable"},{"type":"function","name":"beforeRemoveLiquidity","inputs":[{"name":"sender","type":"address","internalType":"address"},{"name":"key","type":"tuple","internalType":"struct PoolKey","components":[{"name":"currency0","type":"address","internalType":"Currency"},{"name":"currency1","type":"address","internalType":"Currency"},{"name":"fee","type":"uint24","internalType":"uint24"},{"name":"tickSpacing","type":"int24","internalType":"int24"},{"name":"hooks","type":"address","internalType":"contract IHooks"}]},{"name":"params","type":"tuple","internalType":"struct ModifyLiquidityParams","components":[{"name":"tickLower","type":"int24","internalType":"int24"},{"name":"tickUpper","type":"int24","internalType":"int24"},{"name":"liquidityDelta","type":"int256","internalType":"int256"},{"name":"salt","type":"bytes32","internalType":"bytes32"}]},{"name":"hookData","type":"bytes","internalType":"bytes"}],"outputs":[{"name":"","type":"bytes4","internalType":"bytes4"}],"stateMutability":"nonpayable"},{"type":"function","name":"beforeSwap","inputs":[{"name":"sender","type":"address","internalType":"address"},{"name":"key","type":"tuple","internalType":"struct PoolKey","components":[{"name":"currency0","type":"address","internalType":"Currency"},{"name":"currency1","type":"address","internalType":"Currency"},{"name":"fee","type":"uint24","internalType":"uint24"},{"name":"tickSpacing","type":"int24","internalType":"int24"},{"name":"hooks","type":"address","internalType":"contract IHooks"}]},{"name":"params","type":"tuple","internalType":"struct SwapParams","components":[{"name":"zeroForOne","type":"bool","internalType":"bool"},{"name":"amountSpecified","type":"int256","internalType":"int256"},{"name":"sqrtPriceLimitX96","type":"uint160","internalType":"uint160"}]},{"name":"hookData","type":"bytes","internalType":"bytes"}],"outputs":[{"name":"","type":"bytes4","internalType":"bytes4"},{"name":"","type":"int256","internalType":"BeforeSwapDelta"},{"name":"","type":"uint24","internalType":"uint24"}],"stateMutability":"nonpayable"},{"type":"function","name":"decayPerBlockBps","inputs":[],"outputs":[{"name":"","type":"uint256","internalType":"uint256"}],"stateMutability":"view"},{"type":"function","name":"defensiveThreshold","inputs":[],"outputs":[{"name":"","type":"int256","internalType":"int256"}],"stateMutability":"view"},{"type":"function","name":"elevatedThreshold","inputs":[],"outputs":[{"name":"","type":"int256","internalType":"int256"}],"stateMutability":"view"},{"type":"function","name":"feeCalm","inputs":[],"outputs":[{"name":"","type":"uint24","internalType":"uint24"}],"stateMutability":"view"},{"type":"function","name":"feeDefensive","inputs":[],"outputs":[{"name":"","type":"uint24","internalType":"uint24"}],"stateMutability":"view"},{"type":"function","name":"feeElevated","inputs":[],"outputs":[{"name":"","type":"uint24","internalType":"uint24"}],"stateMutability":"view"},{"type":"function","name":"getHookPermissions","inputs":[],"outputs":[{"name":"","type":"tuple","internalType":"struct Hooks.Permissions","components":[{"name":"beforeInitialize","type":"bool","internalType":"bool"},{"name":"afterInitialize","type":"bool","internalType":"bool"},{"name":"beforeAddLiquidity","type":"bool","internalType":"bool"},{"name":"afterAddLiquidity","type":"bool","internalType":"bool"},{"name":"beforeRemoveLiquidity","type":"bool","internalType":"bool"},{"name":"afterRemoveLiquidity","type":"bool","internalType":"bool"},{"name":"beforeSwap","type":"bool","internalType":"bool"},{"name":"afterSwap","type":"bool","internalType":"bool"},{"name":"beforeDonate","type":"bool","internalType":"bool"},{"name":"afterDonate","type":"bool","internalType":"bool"},{"name":"beforeSwapReturnDelta","type":"bool","internalType":"bool"},{"name":"afterSwapReturnDelta","type":"bool","internalType":"bool"},{"name":"afterAddLiquidityReturnDelta","type":"bool","internalType":"bool"},{"name":"afterRemoveLiquidityReturnDelta","type":"bool","internalType":"bool"}]}],"stateMutability":"pure"},{"type":"function","name":"getProtectionStatus","inputs":[{"name":"poolId","type":"bytes32","internalType":"PoolId"}],"outputs":[{"name":"netSkew","type":"int256","internalType":"int256"},{"name":"tier","type":"uint8","internalType":"enum StableGuardHook.Tier"},{"name":"currentFee","type":"uint24","internalType":"uint24"},{"name":"circuitBreakerArmed","type":"bool","internalType":"bool"},{"name":"maxSafeAdditionalSkew","type":"int256","internalType":"int256"}],"stateMutability":"view"},{"type":"function","name":"hardCapThreshold","inputs":[],"outputs":[{"name":"","type":"int256","internalType":"int256"}],"stateMutability":"view"},{"type":"function","name":"owner","inputs":[],"outputs":[{"name":"","type":"address","internalType":"address"}],"stateMutability":"view"},{"type":"function","name":"poolManager","inputs":[],"outputs":[{"name":"","type":"address","internalType":"contract IPoolManager"}],"stateMutability":"view"},{"type":"function","name":"renounceOwnership","inputs":[],"outputs":[],"stateMutability":"nonpayable"},{"type":"function","name":"setDecayPerBlockBps","inputs":[{"name":"bps","type":"uint256","internalType":"uint256"}],"outputs":[],"stateMutability":"nonpayable"},{"type":"function","name":"setFees","inputs":[{"name":"calm","type":"uint24","internalType":"uint24"},{"name":"elevated","type":"uint24","internalType":"uint24"},{"name":"defensive","type":"uint24","internalType":"uint24"}],"outputs":[],"stateMutability":"nonpayable"},{"type":"function","name":"setThresholds","inputs":[{"name":"elevated","type":"int256","internalType":"int256"},{"name":"defensive","type":"int256","internalType":"int256"},{"name":"hardCap","type":"int256","internalType":"int256"}],"outputs":[],"stateMutability":"nonpayable"},{"type":"function","name":"simulateSwap","inputs":[{"name":"poolId","type":"bytes32","internalType":"PoolId"},{"name":"amountSpecified","type":"int256","internalType":"int256"},{"name":"zeroForOne","type":"bool","internalType":"bool"}],"outputs":[{"name":"projectedSkew","type":"int256","internalType":"int256"},{"name":"projectedTier","type":"uint8","internalType":"enum StableGuardHook.Tier"},{"name":"projectedFee","type":"uint24","internalType":"uint24"},{"name":"wouldTripCircuitBreaker","type":"bool","internalType":"bool"}],"stateMutability":"view"},{"type":"function","name":"skewOf","inputs":[{"name":"","type":"bytes32","internalType":"PoolId"}],"outputs":[{"name":"netSkew","type":"int256","internalType":"int256"},{"name":"lastUpdateBlock","type":"uint32","internalType":"uint32"},{"name":"currentTier","type":"uint8","internalType":"enum StableGuardHook.Tier"}],"stateMutability":"view"},{"type":"function","name":"transferOwnership","inputs":[{"name":"newOwner","type":"address","internalType":"address"}],"outputs":[],"stateMutability":"nonpayable"},{"type":"event","name":"CircuitBreakerTripped","inputs":[{"name":"poolId","type":"bytes32","indexed":true,"internalType":"PoolId"},{"name":"projectedSkew","type":"int256","indexed":false,"internalType":"int256"},{"name":"cap","type":"int256","indexed":false,"internalType":"int256"}],"anonymous":false},{"type":"event","name":"FeesUpdated","inputs":[{"name":"calm","type":"uint24","indexed":false,"internalType":"uint24"},{"name":"elevated","type":"uint24","indexed":false,"internalType":"uint24"},{"name":"defensive","type":"uint24","indexed":false,"internalType":"uint24"}],"anonymous":false},{"type":"event","name":"OwnershipTransferred","inputs":[{"name":"previousOwner","type":"address","indexed":true,"internalType":"address"},{"name":"newOwner","type":"address","indexed":true,"internalType":"address"}],"anonymous":false},{"type":"event","name":"SkewUpdated","inputs":[{"name":"poolId","type":"bytes32","indexed":true,"internalType":"PoolId"},{"name":"netSkew","type":"int256","indexed":false,"internalType":"int256"},{"name":"tier","type":"uint8","indexed":false,"internalType":"enum StableGuardHook.Tier"}],"anonymous":false},{"type":"event","name":"ThresholdsUpdated","inputs":[{"name":"elevated","type":"int256","indexed":false,"internalType":"int256"},{"name":"defensive","type":"int256","indexed":false,"internalType":"int256"},{"name":"hardCap","type":"int256","indexed":false,"internalType":"int256"}],"anonymous":false},{"type":"error","name":"CircuitBreakerActive","inputs":[{"name":"projectedSkew","type":"int256","internalType":"int256"},{"name":"cap","type":"int256","internalType":"int256"}]},{"type":"error","name":"HookNotImplemented","inputs":[]},{"type":"error","name":"NotPoolManager","inputs":[]},{"type":"error","name":"OwnableInvalidOwner","inputs":[{"name":"owner","type":"address","internalType":"address"}]},{"type":"error","name":"OwnableUnauthorizedAccount","inputs":[{"name":"account","type":"address","internalType":"address"}]}],"bytecode":{"object":"0x60a06040523461031957604051601f6118c238819003918201601f19168301916001600160401b0383118484101761031d5780849260209460405283398101031261031957516001600160a01b0381168103610319576080525f6101a0610064610331565b8281528260208201528260408201528260608201528260808201528260a08201528260c08201528260e0820152826101008201528261012082015282610140820152826101608201528261018082015201525f6101a06100c2610331565b8281528260208201528260408201528260608201528260808201528260a0820152600160c0820152600160e08201528261010082015282610120820152826101408201528261016082015282610180820152015261200030161580159061030c575b80156102ff575b80156102f2575b80156102e5575b80156102d8575b80156102c8575b80156102b8575b80156102ac575b80156102a0575b8015610294575b8015610288575b801561027c575b8015610270575b61025d57331561024a575f8054336001600160a01b03198216811783556040519290916001600160a01b0316907f8be0079c531659141344cd1fd0a4f28419497f9722a3daafe3b4186f6b6457e09080a3600280546001600160481b031916670bb80001f400006417905566b1a2bc2ec50000600355670214e8348c4f0000600455670429d069189e000060055560326006556115709081610352823960805181818161028f0152818161034b015281816103c5015281816105f40152818161085701528181610bdb0152610e420152f35b631e4fbdf760e01b5f525f60045260245ffd5b630732d7b560e51b5f523060045260245ffd5b50600130161515610178565b50600230161515610171565b5060043016151561016a565b50600830161515610163565b5060103016151561015c565b50602030161515610155565b506040301615156001141561014e565b5060803016151560011415610147565b5061010030161515610140565b5061020030161515610139565b5061040030161515610132565b506108003016151561012b565b5061100030161515610124565b5f80fd5b634e487b7160e01b5f52604160045260245ffd5b604051906101c082016001600160401b0381118382101761031d5760405256fe60806040526004361015610011575f80fd5b5f3560e01c8063012e29b014610eef57806319e2790714610ed25780631ad3328614610ead57806321d0ee7014610e1857806323b6573e14610e90578063259982e514610e185780632adf7f2814610df3578063558ec93414610d18578063575e24b414610b505780635e7cf7e314610a8457806366aa031d14610a355780636c2bbe7e1461082b5780636fe7e6eb146109fd578063715018a6146109815780638da5cb5b1461094f5780639323e2d81461092d578063962a55fb146108a55780639f063efc1461082b578063b304afbf14610799578063b47b2fb114610569578063b6a8b0fa14610264578063c349af8314610547578063c4e833ce146103e9578063dc4c90d314610399578063dc98354e14610305578063e1b4af6914610264578063ecf1b13414610247578063f2fde38b146101795763f67c2e4a14610158575f80fd5b34610175575f600319360112610175576020600654604051908152f35b5f80fd5b346101755760206003193601126101755773ffffffffffffffffffffffffffffffffffffffff6101a7610f8d565b6101af611420565b16801561021b5773ffffffffffffffffffffffffffffffffffffffff5f54827fffffffffffffffffffffffff00000000000000000000000000000000000000008216175f55167f8be0079c531659141344cd1fd0a4f28419497f9722a3daafe3b4186f6b6457e05f80a3005b7f1e4fbdf7000000000000000000000000000000000000000000000000000000005f525f60045260245ffd5b34610175575f600319360112610175576020600354604051908152f35b346101755761027236611135565b50505050505073ffffffffffffffffffffffffffffffffffffffff7f00000000000000000000000000000000000000000000000000000000000000001633036102dd577f0a85dc29000000000000000000000000000000000000000000000000000000005f5260045ffd5b7fae18210a000000000000000000000000000000000000000000000000000000005f5260045ffd5b346101755760e06003193601126101755761031e610f8d565b5060a060231936011261017557610333611102565b5073ffffffffffffffffffffffffffffffffffffffff7f00000000000000000000000000000000000000000000000000000000000000001633036102dd577f0a85dc29000000000000000000000000000000000000000000000000000000005f5260045ffd5b34610175575f60031936011261017557602060405173ffffffffffffffffffffffffffffffffffffffff7f0000000000000000000000000000000000000000000000000000000000000000168152f35b34610175575f600319360112610175575f6101a0610405611226565b8281528260208201528260408201528260608201528260808201528260a08201528260c08201528260e0820152826101008201528261012082015282610140820152826101608201528261018082015201526101c06020610464611226565b5f8152818101905f8252604081015f8152606082015f8152608083015f815260a084015f815260c085016001815260e0860190600182526101008701925f84526101208801945f86526101408901965f88526101608a01985f8a526101a06101808c019b5f8d52019b5f8d526040519d8e915f835251151591015251151560408d015251151560608c015251151560808b015251151560a08a015251151560c089015251151560e08801525115156101008701525115156101208601525115156101408501525115156101608401525115156101808301525115156101a0820152f35b34610175575f60031936011261017557602062ffffff60025416604051908152f35b346101755761016060031936011261017557610583610f8d565b5060a06023193601126101755760607fffffffffffffffffffffffffffffffffffffffffffffffffffffffffffffff3c360112610175576101443567ffffffffffffffff8111610175576105db903690600401610fb0565b505073ffffffffffffffffffffffffffffffffffffffff7f00000000000000000000000000000000000000000000000000000000000000001633036102dd5760a06106253661146c565b2061062e611294565b50610638816112ba565b61064061152b565b156107865761066261065b61065660e43561139f565b61119a565b82516111f3565b9081815261067c602082019263ffffffff431684526113b5565b9161068b6040830193846112ae565b835f52600160205263ffffffff600160405f208451815501915116815490845160038110156107595764ff000000007fffffffffffffffffffffffffffffffffffffffffffffffffffffff00000000009160201b169216171790555190516003811015610759577f49dd391df4a5d35fee34d5bc26f161ca82554f72c3e4aa40a35047d289b1aee49161072960409283519283526020830190610f80565ba2604080517fb47b2fb10000000000000000000000000000000000000000000000000000000081525f6020820152f35b7f4e487b71000000000000000000000000000000000000000000000000000000005f52602160045260245ffd5b61066261079460e43561139f565b61065b565b34610175576020600319360112610175576107b56004356112ba565b604081015160038110156107595760a0916107cf826113e0565b60055462ffffff60056107eb6107e5865161139f565b8461120e565b9205925f8313156108215761080e83955b51966040519788526020880190610f80565b1660408501521260608301526080820152f35b61080e5f956107fc565b34610175576108393661106d565b5050505050505073ffffffffffffffffffffffffffffffffffffffff7f00000000000000000000000000000000000000000000000000000000000000001633036102dd577f0a85dc29000000000000000000000000000000000000000000000000000000005f5260045ffd5b34610175576020600319360112610175576004356108c1611420565b61271081116108cf57600655005b60646040517f08c379a000000000000000000000000000000000000000000000000000000000815260206004820152601360248201527f64656361793a206f7574206f662072616e6765000000000000000000000000006044820152fd5b34610175575f600319360112610175576020604051670de0b6b3a76400008152f35b34610175575f60031936011261017557602073ffffffffffffffffffffffffffffffffffffffff5f5416604051908152f35b34610175575f60031936011261017557610999611420565b5f73ffffffffffffffffffffffffffffffffffffffff81547fffffffffffffffffffffffff000000000000000000000000000000000000000081168355167f8be0079c531659141344cd1fd0a4f28419497f9722a3daafe3b4186f6b6457e08280a3005b346101755761010060031936011261017557610a17610f8d565b5060a060231936011261017557610a2c611102565b50610333611125565b34610175576020600319360112610175576004355f526001602052606060405f20610a826001825492015460405192835263ffffffff8116602084015260ff604084019160201c16610f80565bf35b346101755760606003193601126101755760043562ffffff81168091036101755760243562ffffff811691828203610175576044359262ffffff841690818503610175577fa6e0fd86f061cb7f76e3dac3ba9ca74bd8da6e37f7dd77c3298b60c772c4a35c94606094610af5611420565b65ffffff000000857fffffffffffffffffffffffffffffffffffffffffffffff00000000000000000068ffffff0000000000006002549560301b169416179160181b16171760025560405192835260208301526040820152a1005b346101755761014060031936011261017557610b6a610f8d565b5060a06023193601126101755760607fffffffffffffffffffffffffffffffffffffffffffffffffffffffffffffff3c360112610175576101243567ffffffffffffffff811161017557610bc2903690600401610fb0565b505073ffffffffffffffffffffffffffffffffffffffff7f00000000000000000000000000000000000000000000000000000000000000001633036102dd5760a0610c0c3661146c565b20610c15611294565b50610c45610c22826112ba565b610c2a61152b565b15610d0757610c3d61065660e43561139f565b905b516111f3565b610c4e8161139f565b91600554809313610caa57606062400000610c70610c6b856113b5565b6113e0565b1762ffffff604051917f575e24b40000000000000000000000000000000000000000000000000000000083525f6020840152166040820152f35b7f115eb22f6fa754df6c3598ee5c3809a2b4141607e6e0b78e9b4c3adeb6387f5d60408051848152856020820152a27f779a2fb8000000000000000000000000000000000000000000000000000000005f5260045260245260445ffd5b610d1260e43561139f565b90610c3f565b3461017557606060031936011261017557604435602435600435610d3a611420565b81811280610dea575b15610d8c577fbd5427897e493aa122d4336199b9ad9cc5e35de92bb7b8c4385e1e05fbf79f589260609282600355806004558160055560405192835260208301526040820152a1005b60646040517f08c379a000000000000000000000000000000000000000000000000000000000815260206004820152601e60248201527f7468726573686f6c64733a206d75737420626520696e6372656173696e6700006044820152fd5b50828212610d43565b34610175575f60031936011261017557602062ffffff60025460181c16604051908152f35b3461017557610e2636610fde565b505050505073ffffffffffffffffffffffffffffffffffffffff7f00000000000000000000000000000000000000000000000000000000000000001633036102dd577f0a85dc29000000000000000000000000000000000000000000000000000000005f5260045ffd5b34610175575f600319360112610175576020600454604051908152f35b34610175575f60031936011261017557602062ffffff60025460301c16604051908152f35b34610175575f600319360112610175576020600554604051908152f35b3461017557606060031936011261017557604435602435811515820361017557608091610f3391610f216004356112ba565b9115610f7757610656610c3d9161139f565b610f3c8161139f565b6005541262ffffff610f4d836113b5565b610f6a610f59826113e0565b916040519586526020860190610f80565b1660408301526060820152f35b610d129061139f565b9060038210156107595752565b6004359073ffffffffffffffffffffffffffffffffffffffff8216820361017557565b9181601f840112156101755782359167ffffffffffffffff8311610175576020838186019501011161017557565b906101606003198301126101755760043573ffffffffffffffffffffffffffffffffffffffff81168103610175579160a06023198201126101755760249160807fffffffffffffffffffffffffffffffffffffffffffffffffffffffffffffff3c8301126101755760c491610144359067ffffffffffffffff82116101755761106991600401610fb0565b9091565b906101a06003198301126101755760043573ffffffffffffffffffffffffffffffffffffffff81168103610175579160a06023198201126101755760249160807fffffffffffffffffffffffffffffffffffffffffffffffffffffffffffffff3c8301126101755760c49161014435916101643591610184359067ffffffffffffffff82116101755761106991600401610fb0565b60c4359073ffffffffffffffffffffffffffffffffffffffff8216820361017557565b60e435908160020b820361017557565b6101206003198201126101755760043573ffffffffffffffffffffffffffffffffffffffff81168103610175579160a06023198301126101755760249160c4359160e43591610104359067ffffffffffffffff82116101755761106991600401610fb0565b7f800000000000000000000000000000000000000000000000000000000000000081146111c6575f0390565b7f4e487b71000000000000000000000000000000000000000000000000000000005f52601160045260245ffd5b9190915f83820193841291129080158216911516176111c657565b81810392915f1380158285131691841216176111c657565b604051906101c0820182811067ffffffffffffffff82111761124757604052565b7f4e487b71000000000000000000000000000000000000000000000000000000005f52604160045260245ffd5b604051906060820182811067ffffffffffffffff82111761124757604052565b61129c611274565b905f82525f60208301525f6040830152565b60038210156107595752565b6112c2611294565b505f52600160205260405f209060016112d9611274565b928054845201549161130160ff602083019463ffffffff8116865260201c16604083016112ae565b63ffffffff819351161561139b575063ffffffff602083015116804303904382116111c657431461139857600654808202918204036111c657612710811061134957505f8252565b8251818102917f800000000000000000000000000000000000000000000000000000000000000081145f8312166111c65781830514811517156111c65761271061139492059061120e565b8252565b50565b9150565b5f81126113a95790565b6113b29061119a565b90565b6113be9061139f565b6004548112156113da5760035413156113d5575f90565b600190565b50600290565b60038110156107595760028114611411576001146114035762ffffff6002541690565b62ffffff60025460181c1690565b5062ffffff60025460301c1690565b73ffffffffffffffffffffffffffffffffffffffff5f5416330361144057565b7f118cdaa7000000000000000000000000000000000000000000000000000000005f523360045260245ffd5b60231960a0910112610175576040519060a0820182811067ffffffffffffffff821117611247576040528160243573ffffffffffffffffffffffffffffffffffffffff8116810361017557815260443573ffffffffffffffffffffffffffffffffffffffff8116810361017557602082015260643562ffffff811681036101755760408201526084358060020b810361017557606082015260a4359073ffffffffffffffffffffffffffffffffffffffff821682036101755760800152565b60c4358015158103610175579056fea264697066735822122028a7dda03ff102b241a822403db9e6c8b98abb7af4d0b8b34543d98e1998289e64736f6c634300081a0033","linkReferences":{}},"methodIdentifiers":{"NORMALIZATION()":"9323e2d8","afterAddLiquidity(address,(address,address,uint24,int24,address),(int24,int24,int256,bytes32),int256,int256,bytes)":"9f063efc","afterDonate(address,(address,address,uint24,int24,address),uint256,uint256,bytes)":"e1b4af69","afterInitialize(address,(address,address,uint24,int24,address),uint160,int24)":"6fe7e6eb","afterRemoveLiquidity(address,(address,address,uint24,int24,address),(int24,int24,int256,bytes32),int256,int256,bytes)":"6c2bbe7e","afterSwap(address,(address,address,uint24,int24,address),(bool,int256,uint160),int256,bytes)":"b47b2fb1","beforeAddLiquidity(address,(address,address,uint24,int24,address),(int24,int24,int256,bytes32),bytes)":"259982e5","beforeDonate(address,(address,address,uint24,int24,address),uint256,uint256,bytes)":"b6a8b0fa","beforeInitialize(address,(address,address,uint24,int24,address),uint160)":"dc98354e","beforeRemoveLiquidity(address,(address,address,uint24,int24,address),(int24,int24,int256,bytes32),bytes)":"21d0ee70","beforeSwap(address,(address,address,uint24,int24,address),(bool,int256,uint160),bytes)":"575e24b4","decayPerBlockBps()":"f67c2e4a","defensiveThreshold()":"23b6573e","elevatedThreshold()":"ecf1b134","feeCalm()":"c349af83","feeDefensive()":"1ad33286","feeElevated()":"2adf7f28","getHookPermissions()":"c4e833ce","getProtectionStatus(bytes32)":"b304afbf","hardCapThreshold()":"19e27907","owner()":"8da5cb5b","poolManager()":"dc4c90d3","renounceOwnership()":"715018a6","setDecayPerBlockBps(uint256)":"962a55fb","setFees(uint24,uint24,uint24)":"5e7cf7e3","setThresholds(int256,int256,int256)":"558ec934","simulateSwap(bytes32,int256,bool)":"012e29b0","skewOf(bytes32)":"66aa031d","transferOwnership(address)":"f2fde38b"},"id":21}