{"abi":[{"type":"constructor","inputs":[{"name":"_poolManager","type":"address","internalType":"contract IPoolManager"},{"name":"_permit2","type":"address","internalType":"contract ISignatureTransfer"}],"stateMutability":"nonpayable"},{"type":"function","name":"permit2","inputs":[],"outputs":[{"name":"","type":"address","internalType":"contract ISignatureTransfer"}],"stateMutability":"view"},{"type":"function","name":"poolManager","inputs":[],"outputs":[{"name":"","type":"address","internalType":"contract IPoolManager"}],"stateMutability":"view"},{"type":"function","name":"swapWithPermit2","inputs":[{"name":"key","type":"tuple","internalType":"struct PoolKey","components":[{"name":"currency0","type":"address","internalType":"Currency"},{"name":"currency1","type":"address","internalType":"Currency"},{"name":"fee","type":"uint24","internalType":"uint24"},{"name":"tickSpacing","type":"int24","internalType":"int24"},{"name":"hooks","type":"address","internalType":"contract IHooks"}]},{"name":"params","type":"tuple","internalType":"struct SwapParams","components":[{"name":"zeroForOne","type":"bool","internalType":"bool"},{"name":"amountSpecified","type":"int256","internalType":"int256"},{"name":"sqrtPriceLimitX96","type":"uint160","internalType":"uint160"}]},{"name":"permit","type":"tuple","internalType":"struct ISignatureTransfer.PermitTransferFrom","components":[{"name":"permitted","type":"tuple","internalType":"struct ISignatureTransfer.TokenPermissions","components":[{"name":"token","type":"address","internalType":"address"},{"name":"amount","type":"uint256","internalType":"uint256"}]},{"name":"nonce","type":"uint256","internalType":"uint256"},{"name":"deadline","type":"uint256","internalType":"uint256"}]},{"name":"signature","type":"bytes","internalType":"bytes"}],"outputs":[{"name":"delta","type":"int256","internalType":"BalanceDelta"}],"stateMutability":"nonpayable"},{"type":"function","name":"unlockCallback","inputs":[{"name":"data","type":"bytes","internalType":"bytes"}],"outputs":[{"name":"","type":"bytes","internalType":"bytes"}],"stateMutability":"nonpayable"},{"type":"error","name":"NotPoolManager","inputs":[]},{"type":"error","name":"SafeERC20FailedOperation","inputs":[{"name":"token","type":"address","internalType":"address"}]}],"bytecode":{"object":"0x60c034609b57601f61117838819003918201601f19168301916001600160401b03831184841017609f578084926040948552833981010312609b578051906001600160a01b0382168203609b5760200151906001600160a01b0382168203609b5760805260a0526040516110c490816100b4823960805181818160940152818161010d015261097d015260a05181818161061a0152610b440152f35b5f80fd5b634e487b7160e01b5f52604160045260245ffdfe6080806040526004361015610012575f80fd5b5f905f3560e01c90816312261ee714610afc575080638d77a47c1461055557806391dd7346146100bb5763dc4c90d31461004a575f80fd5b346100b857807ffffffffffffffffffffffffffffffffffffffffffffffffffffffffffffffffc3601126100b857602060405173ffffffffffffffffffffffffffffffffffffffff7f0000000000000000000000000000000000000000000000000000000000000000168152f35b80fd5b50346100b85760207ffffffffffffffffffffffffffffffffffffffffffffffffffffffffffffffffc3601126100b85760043567ffffffffffffffff81116105295761010b903690600401610b68565b7f000000000000000000000000000000000000000000000000000000000000000073ffffffffffffffffffffffffffffffffffffffff81169182330361052d5783908101039361012085126100b8576040519261016784610bde565b61017085610c57565b845260a07fffffffffffffffffffffffffffffffffffffffffffffffffffffffffffffffe087011261052957604051956101a987610bfa565b6101b560208701610c57565b87526101c360408701610c57565b6020880152606086013562ffffff8116810361052557604088015260808601358060020b810361052557606088015260a086013573ffffffffffffffffffffffffffffffffffffffff81168103610525576060917fffffffffffffffffffffffffffffffffffffffffffffffffffffffffffffff409160808a0152602087019889520112610529576040519461025886610bde565b60c0810135801515810361052557865260e08101356020870152610100013573ffffffffffffffffffffffffffffffffffffffff811681036105215761014460209261032f926040890152876040880152848951916103636040519a8b9687957ff3cd914c000000000000000000000000000000000000000000000000000000008752600487019073ffffffffffffffffffffffffffffffffffffffff6080809282815116855282602082015116602086015262ffffff6040820151166040860152606081015160020b6060860152015116910152565b8051151560a4860152602081015160c48601526040015173ffffffffffffffffffffffffffffffffffffffff1660e4850152565b610120610104840152816101248401525af19384156105145781946104c6575b5073ffffffffffffffffffffffffffffffffffffffff61044b95519351168460801d9185600f0b9280600f0b908282125f1461048e576103eb91506103df73ffffffffffffffffffffffffffffffffffffffff88511691610c87565b600f0b90863091610d83565b8083121561044f57505061041c73ffffffffffffffffffffffffffffffffffffffff60206104279501511691610c87565b600f0b913091610d83565b6040519060208201526020815261043f604082610c16565b60405191829182610b96565b0390f35b8293919213610462575b50505050610427565b73ffffffffffffffffffffffffffffffffffffffff602061048595015116610ce3565b5f808080610459565b5081811361049d575b506103eb565b6104c090838673ffffffffffffffffffffffffffffffffffffffff895116610ce3565b5f610497565b9493506020853d60201161050c575b816104e260209383610c16565b81010312610508579351929373ffffffffffffffffffffffffffffffffffffffff610383565b5f80fd5b3d91506104d5565b50604051903d90823e3d90fd5b8280fd5b8380fd5b5080fd5b6004857fae18210a000000000000000000000000000000000000000000000000000000008152fd5b5034610508577ffffffffffffffffffffffffffffffffffffffffffffffffffffffffffffffffc36016101a081126105085760a0136105085760607fffffffffffffffffffffffffffffffffffffffffffffffffffffffffffffff5c3601126105085760807ffffffffffffffffffffffffffffffffffffffffffffffffffffffffffffffefc360112610508576101843567ffffffffffffffff811161050857610603903690600401610b68565b73ffffffffffffffffffffffffffffffffffffffff7f000000000000000000000000000000000000000000000000000000000000000016906101243591604051916040830183811067ffffffffffffffff821117610acf576040523083526020830193808552823b1561050857604051957f30f28b7a000000000000000000000000000000000000000000000000000000008752610104359573ffffffffffffffffffffffffffffffffffffffff8716809703610508577fffffffffffffffffffffffffffffffffffffffffffffffffffffffffffffffe0601f858a9896610124958a989573ffffffffffffffffffffffffffffffffffffffff8a975f9e9a8f9b60048b015260248a01526101443560448a01526101643560648a0152511660848801525160a48701523360c487015261010060e4870152816101048701528686013785858286010152011681010301925af18015610ac457610ab1575b5060405161076e81610bde565b338152816040519161077f83610bfa565b60043573ffffffffffffffffffffffffffffffffffffffff8116810361052157835260243573ffffffffffffffffffffffffffffffffffffffff8116810361052157602084015260443562ffffff811681036105215760408401526064358060020b810361052157606084015260843573ffffffffffffffffffffffffffffffffffffffff81168103610521576080840152602081019283526040519261082584610bde565b60a435801515810361052557845260c435602085015260e4359373ffffffffffffffffffffffffffffffffffffffff85168503610525576108e861091f926109639660408401526040850192835273ffffffffffffffffffffffffffffffffffffffff604051955116602086015251604085019073ffffffffffffffffffffffffffffffffffffffff6080809282815116855282602082015116602086015262ffffff6040820151166040860152606081015160020b6060860152015116910152565b518051151560e084015260208101516101008401526040015173ffffffffffffffffffffffffffffffffffffffff16610120830152565b610120815261093061014082610c16565b604051809381927f48c8949100000000000000000000000000000000000000000000000000000000835260048301610b96565b03818373ffffffffffffffffffffffffffffffffffffffff7f0000000000000000000000000000000000000000000000000000000000000000165af1918215610aa55780926109cf575b5050602081519181808201938492010103126105085760209051604051908152f35b9091503d8082843e6109e18184610c16565b8201916020818403126105295780519067ffffffffffffffff8211610521570182601f820112156105295780519067ffffffffffffffff8211610a785760405193610a5460207fffffffffffffffffffffffffffffffffffffffffffffffffffffffffffffffe0601f8601160186610c16565b8285526020838301011161052157908060208093018386015e830101525f806109ad565b6024837f4e487b710000000000000000000000000000000000000000000000000000000081526041600452fd5b604051903d90823e3d90fd5b610abd91505f90610c16565b5f80610761565b6040513d5f823e3d90fd5b7f4e487b71000000000000000000000000000000000000000000000000000000005f52604160045260245ffd5b34610508575f7ffffffffffffffffffffffffffffffffffffffffffffffffffffffffffffffffc3601126105085760209073ffffffffffffffffffffffffffffffffffffffff7f0000000000000000000000000000000000000000000000000000000000000000168152f35b9181601f840112156105085782359167ffffffffffffffff8311610508576020838186019501011161050857565b7fffffffffffffffffffffffffffffffffffffffffffffffffffffffffffffffe0601f602060409481855280519182918282880152018686015e5f8582860101520116010190565b6060810190811067ffffffffffffffff821117610acf57604052565b60a0810190811067ffffffffffffffff821117610acf57604052565b90601f7fffffffffffffffffffffffffffffffffffffffffffffffffffffffffffffffe0910116810190811067ffffffffffffffff821117610acf57604052565b359073ffffffffffffffffffffffffffffffffffffffff8216820361050857565b90816020910312610508575190565b600f0b7fffffffffffffffffffffffffffffffff800000000000000000000000000000008114610cb6575f0390565b7f4e487b71000000000000000000000000000000000000000000000000000000005f52601160045260245ffd5b9192908115610d7d5773ffffffffffffffffffffffffffffffffffffffff16803b15610508575f928360649273ffffffffffffffffffffffffffffffffffffffff948560405198899788967f0b0d9c0900000000000000000000000000000000000000000000000000000000885216600487015216602485015260448401525af18015610ac457610d715750565b5f610d7b91610c16565b565b50505050565b9291928215610d7d5773ffffffffffffffffffffffffffffffffffffffff169081610e8e5773ffffffffffffffffffffffffffffffffffffffff9192935016803b1561050857604051917fa584119400000000000000000000000000000000000000000000000000000000835260048301525a915f8160248183868198f18015610ac457610e78575b506020906004604051809581937f11da60b40000000000000000000000000000000000000000000000000000000083525af1908115610aa55750610e4d5750565b610e6e9060203d602011610e71575b610e668183610c16565b810190610c78565b50565b503d610e5c565b610e859192505f90610c16565b5f906020610e0c565b73ffffffffffffffffffffffffffffffffffffffff1691823b1561050857604051937fa58411940000000000000000000000000000000000000000000000000000000085528260048601525a945f816024818389819bf18015610ac457611065575b5073ffffffffffffffffffffffffffffffffffffffff1690308214610ff357604051917f23b872dd0000000000000000000000000000000000000000000000000000000086526004528360245260445260208460648180865af1906001855114821615610fd2575b6040528360605215610fa75750602082915b6004604051809581937f11da60b40000000000000000000000000000000000000000000000000000000083525af1908115610aa55750610e4d5750565b7f5274afe7000000000000000000000000000000000000000000000000000000008352600452602482fd5b906001811516610fea57823b15153d15161690610f58565b503d84823e3d90fd5b9050604051907fa9059cbb0000000000000000000000000000000000000000000000000000000085528360045260245260208460448180865af190600185511482161561104d575b60405215610fa7575060208291610f6a565b906001811516610fea57823b15153d1516169061103b565b6110729195505f90610c16565b5f9373ffffffffffffffffffffffffffffffffffffffff610ef056fea2646970667358221220f65cb145a2513314d821cfa6d9d12b0a7d4eec60f8695907e251d644b34a31ad64736f6c634300081a0033","linkReferences":{}},"methodIdentifiers":{"permit2()":"12261ee7","poolManager()":"dc4c90d3","swapWithPermit2((address,address,uint24,int24,address),(bool,int256,uint160),((address,uint256),uint256,uint256),bytes)":"8d77a47c","unlockCallback(bytes)":"91dd7346"},"id":51}