{"abi":[{"type":"constructor","inputs":[{"name":"_poolManager","type":"address","internalType":"address"},{"name":"_identityRegistry","type":"address","internalType":"address"},{"name":"_reputationRegistry","type":"address","internalType":"address"},{"name":"_usdc","type":"address","internalType":"address"}],"stateMutability":"nonpayable"},{"type":"function","name":"AGENT_FEE_FLOOR","inputs":[],"outputs":[{"name":"","type":"uint256","internalType":"uint256"}],"stateMutability":"view"},{"type":"function","name":"MAX_BPS","inputs":[],"outputs":[{"name":"","type":"uint256","internalType":"uint256"}],"stateMutability":"view"},{"type":"function","name":"afterSwap","inputs":[{"name":"","type":"address","internalType":"address"},{"name":"key","type":"tuple","internalType":"struct PoolKey","components":[{"name":"currency0","type":"tuple","internalType":"struct Currency","components":[{"name":"token","type":"address","internalType":"address"}]},{"name":"currency1","type":"tuple","internalType":"struct Currency","components":[{"name":"token","type":"address","internalType":"address"}]},{"name":"fee","type":"uint24","internalType":"uint24"},{"name":"tickSpacing","type":"int24","internalType":"int24"},{"name":"hooks","type":"address","internalType":"address"}]},{"name":"params","type":"tuple","internalType":"struct IPoolManager.SwapParams","components":[{"name":"zeroForOne","type":"bool","internalType":"bool"},{"name":"amountSpecified","type":"int256","internalType":"int256"},{"name":"sqrtPriceLimitX96","type":"uint160","internalType":"uint160"}]},{"name":"","type":"tuple","internalType":"struct BalanceDelta","components":[{"name":"amount0","type":"int128","internalType":"int128"},{"name":"amount1","type":"int128","internalType":"int128"}]},{"name":"hookData","type":"bytes","internalType":"bytes"}],"outputs":[{"name":"","type":"bytes4","internalType":"bytes4"},{"name":"","type":"int128","internalType":"int128"}],"stateMutability":"nonpayable"},{"type":"function","name":"beforeSwap","inputs":[{"name":"","type":"address","internalType":"address"},{"name":"key","type":"tuple","internalType":"struct PoolKey","components":[{"name":"currency0","type":"tuple","internalType":"struct Currency","components":[{"name":"token","type":"address","internalType":"address"}]},{"name":"currency1","type":"tuple","internalType":"struct Currency","components":[{"name":"token","type":"address","internalType":"address"}]},{"name":"fee","type":"uint24","internalType":"uint24"},{"name":"tickSpacing","type":"int24","internalType":"int24"},{"name":"hooks","type":"address","internalType":"address"}]},{"name":"","type":"tuple","internalType":"struct IPoolManager.SwapParams","components":[{"name":"zeroForOne","type":"bool","internalType":"bool"},{"name":"amountSpecified","type":"int256","internalType":"int256"},{"name":"sqrtPriceLimitX96","type":"uint160","internalType":"uint160"}]},{"name":"hookData","type":"bytes","internalType":"bytes"}],"outputs":[{"name":"","type":"bytes4","internalType":"bytes4"},{"name":"","type":"int256","internalType":"int256"},{"name":"","type":"uint24","internalType":"uint24"}],"stateMutability":"nonpayable"},{"type":"function","name":"configurePool","inputs":[{"name":"poolId","type":"bytes32","internalType":"bytes32"},{"name":"agentId","type":"bytes32","internalType":"bytes32"},{"name":"agentWallet","type":"address","internalType":"address"},{"name":"minRepScore","type":"uint256","internalType":"uint256"},{"name":"agentFeeBps","type":"uint256","internalType":"uint256"},{"name":"mevProtection","type":"bool","internalType":"bool"},{"name":"dynamicFee","type":"bool","internalType":"bool"}],"outputs":[],"stateMutability":"nonpayable"},{"type":"function","name":"depositUSDC","inputs":[{"name":"amount","type":"uint256","internalType":"uint256"}],"outputs":[],"stateMutability":"nonpayable"},{"type":"function","name":"getPendingIntent","inputs":[{"name":"swapId","type":"bytes32","internalType":"bytes32"}],"outputs":[{"name":"","type":"tuple","internalType":"struct AgentSwapHook.AgentIntent","components":[{"name":"swapId","type":"bytes32","internalType":"bytes32"},{"name":"feeOverrideBps","type":"uint24","internalType":"uint24"},{"name":"mevFlag","type":"bool","internalType":"bool"},{"name":"mevEvidence","type":"string","internalType":"string"},{"name":"timestamp","type":"uint256","internalType":"uint256"},{"name":"signature","type":"bytes","internalType":"bytes"},{"name":"exists","type":"bool","internalType":"bool"}]}],"stateMutability":"view"},{"type":"function","name":"getPoolConfig","inputs":[{"name":"poolId","type":"bytes32","internalType":"bytes32"}],"outputs":[{"name":"","type":"tuple","internalType":"struct AgentSwapHook.PoolConfig","components":[{"name":"assignedAgentId","type":"bytes32","internalType":"bytes32"},{"name":"agentWallet","type":"address","internalType":"address"},{"name":"minRepScore","type":"uint256","internalType":"uint256"},{"name":"agentFeeBps","type":"uint256","internalType":"uint256"},{"name":"mevProtectionEnabled","type":"bool","internalType":"bool"},{"name":"dynamicFeeEnabled","type":"bool","internalType":"bool"},{"name":"active","type":"bool","internalType":"bool"}]}],"stateMutability":"view"},{"type":"function","name":"getSwapOutcome","inputs":[{"name":"swapId","type":"bytes32","internalType":"bytes32"}],"outputs":[{"name":"","type":"tuple","internalType":"struct AgentSwapHook.SwapOutcome","components":[{"name":"agentId","type":"bytes32","internalType":"bytes32"},{"name":"slippageSavedBps","type":"int256","internalType":"int256"},{"name":"mevBlocked","type":"bool","internalType":"bool"},{"name":"settled","type":"bool","internalType":"bool"}]}],"stateMutability":"view"},{"type":"function","name":"identityRegistry","inputs":[],"outputs":[{"name":"","type":"address","internalType":"address"}],"stateMutability":"view"},{"type":"function","name":"owner","inputs":[],"outputs":[{"name":"","type":"address","internalType":"address"}],"stateMutability":"view"},{"type":"function","name":"pendingIntents","inputs":[{"name":"","type":"bytes32","internalType":"bytes32"}],"outputs":[{"name":"swapId","type":"bytes32","internalType":"bytes32"},{"name":"feeOverrideBps","type":"uint24","internalType":"uint24"},{"name":"mevFlag","type":"bool","internalType":"bool"},{"name":"mevEvidence","type":"string","internalType":"string"},{"name":"timestamp","type":"uint256","internalType":"uint256"},{"name":"signature","type":"bytes","internalType":"bytes"},{"name":"exists","type":"bool","internalType":"bool"}],"stateMutability":"view"},{"type":"function","name":"poolConfigs","inputs":[{"name":"","type":"bytes32","internalType":"bytes32"}],"outputs":[{"name":"assignedAgentId","type":"bytes32","internalType":"bytes32"},{"name":"agentWallet","type":"address","internalType":"address"},{"name":"minRepScore","type":"uint256","internalType":"uint256"},{"name":"agentFeeBps","type":"uint256","internalType":"uint256"},{"name":"mevProtectionEnabled","type":"bool","internalType":"bool"},{"name":"dynamicFeeEnabled","type":"bool","internalType":"bool"},{"name":"active","type":"bool","internalType":"bool"}],"stateMutability":"view"},{"type":"function","name":"poolManager","inputs":[],"outputs":[{"name":"","type":"address","internalType":"address"}],"stateMutability":"view"},{"type":"function","name":"registerIntent","inputs":[{"name":"swapId","type":"bytes32","internalType":"bytes32"},{"name":"feeOverrideBps","type":"uint24","internalType":"uint24"},{"name":"mevFlag","type":"bool","internalType":"bool"},{"name":"mevEvidence","type":"string","internalType":"string"},{"name":"intentTimestamp","type":"uint256","internalType":"uint256"},{"name":"sig","type":"bytes","internalType":"bytes"}],"outputs":[],"stateMutability":"nonpayable"},{"type":"function","name":"reputationRegistry","inputs":[],"outputs":[{"name":"","type":"address","internalType":"address"}],"stateMutability":"view"},{"type":"function","name":"swapBaseFees","inputs":[{"name":"","type":"bytes32","internalType":"bytes32"}],"outputs":[{"name":"","type":"uint256","internalType":"uint256"}],"stateMutability":"view"},{"type":"function","name":"swapOutcomes","inputs":[{"name":"","type":"bytes32","internalType":"bytes32"}],"outputs":[{"name":"agentId","type":"bytes32","internalType":"bytes32"},{"name":"slippageSavedBps","type":"int256","internalType":"int256"},{"name":"mevBlocked","type":"bool","internalType":"bool"},{"name":"settled","type":"bool","internalType":"bool"}],"stateMutability":"view"},{"type":"function","name":"usdc","inputs":[],"outputs":[{"name":"","type":"address","internalType":"address"}],"stateMutability":"view"},{"type":"function","name":"withdrawUSDC","inputs":[{"name":"amount","type":"uint256","internalType":"uint256"}],"outputs":[],"stateMutability":"nonpayable"},{"type":"event","name":"AgentSettled","inputs":[{"name":"swapId","type":"bytes32","indexed":true,"internalType":"bytes32"},{"name":"agentId","type":"bytes32","indexed":false,"internalType":"bytes32"},{"name":"usdcPaid","type":"uint256","indexed":false,"internalType":"uint256"},{"name":"perfScore","type":"uint256","indexed":false,"internalType":"uint256"}],"anonymous":false},{"type":"event","name":"IntentRegistered","inputs":[{"name":"swapId","type":"bytes32","indexed":true,"internalType":"bytes32"},{"name":"mevFlag","type":"bool","indexed":false,"internalType":"bool"},{"name":"feeOverride","type":"uint24","indexed":false,"internalType":"uint24"}],"anonymous":false},{"type":"event","name":"MEVBlocked","inputs":[{"name":"swapId","type":"bytes32","indexed":true,"internalType":"bytes32"},{"name":"agentId","type":"bytes32","indexed":false,"internalType":"bytes32"},{"name":"evidence","type":"string","indexed":false,"internalType":"string"}],"anonymous":false},{"type":"event","name":"PoolConfigured","inputs":[{"name":"poolId","type":"bytes32","indexed":true,"internalType":"bytes32"},{"name":"agentId","type":"bytes32","indexed":false,"internalType":"bytes32"},{"name":"minRepScore","type":"uint256","indexed":false,"internalType":"uint256"}],"anonymous":false},{"type":"event","name":"SwapIntercepted","inputs":[{"name":"swapId","type":"bytes32","indexed":true,"internalType":"bytes32"},{"name":"mevBlocked","type":"bool","indexed":false,"internalType":"bool"},{"name":"feeApplied","type":"uint24","indexed":false,"internalType":"uint24"}],"anonymous":false},{"type":"error","name":"AgentNotActive","inputs":[]},{"type":"error","name":"InsufficientReputation","inputs":[{"name":"required","type":"uint256","internalType":"uint256"},{"name":"actual","type":"uint256","internalType":"uint256"}]},{"type":"error","name":"IntentExpired","inputs":[]},{"type":"error","name":"MEVDetected","inputs":[{"name":"evidence","type":"string","internalType":"string"}]},{"type":"error","name":"NotPoolManager","inputs":[]},{"type":"error","name":"PoolNotConfigured","inputs":[]},{"type":"error","name":"SwapAlreadyProcessed","inputs":[]}],"bytecode":{"object":"0x610100604052348015610010575f5ffd5b50604051613d1e380380613d1e833981810160405281019061003291906101a8565b8373ffffffffffffffffffffffffffffffffffffffff1660808173ffffffffffffffffffffffffffffffffffffffff16815250508273ffffffffffffffffffffffffffffffffffffffff1660a08173ffffffffffffffffffffffffffffffffffffffff16815250508173ffffffffffffffffffffffffffffffffffffffff1660c08173ffffffffffffffffffffffffffffffffffffffff16815250508073ffffffffffffffffffffffffffffffffffffffff1660e08173ffffffffffffffffffffffffffffffffffffffff1681525050335f5f6101000a81548173ffffffffffffffffffffffffffffffffffffffff021916908373ffffffffffffffffffffffffffffffffffffffff1602179055505050505061020c565b5f5ffd5b5f73ffffffffffffffffffffffffffffffffffffffff82169050919050565b5f6101778261014e565b9050919050565b6101878161016d565b8114610191575f5ffd5b50565b5f815190506101a28161017e565b92915050565b5f5f5f5f608085870312156101c0576101bf61014a565b5b5f6101cd87828801610194565b94505060206101de87828801610194565b93505060406101ef87828801610194565b925050606061020087828801610194565b91505092959194509250565b60805160a05160c05160e051613aa061027e5f395f81816108e00152818161133801528181611af201528181611d5b0152611eaa01525f8181610b9c01528181611285015261179401525f81816105a40152610fc101525f8181610906015281816114b201526116940152613aa05ff3fe608060405234801561000f575f5ffd5b506004361061012a575f3560e01c806399b4273e116100ab578063ed0340821161006f578063ed03408214610378578063f068121814610396578063f567d7cf146103c6578063f688bcfb146103f8578063fd967f47146104145761012a565b806399b4273e146102bd578063b141b243146102ed578063c8db44e314610320578063db81f99b1461033e578063dc4c90d31461035a5761012a565b806349e86b6b116100f257806349e86b6b146101ec578063626bc16c1461021d5780637a6517c31461024d5780638da5cb5b146102835780639966d44a146102a15761012a565b8063037aadbe1461012e57806307ef21901461015e578063134e18f41461019457806322460e9d146101b25780633e413bee146101ce575b5f5ffd5b610148600480360381019061014391906121ac565b610432565b60405161015591906122e3565b60405180910390f35b610178600480360381019061017391906121ac565b61051f565b60405161018b9796959493929190612338565b60405180910390f35b61019c6105a2565b6040516101a991906123a5565b60405180910390f35b6101cc60048036038101906101c79190612500565b6105c6565b005b6101d66108de565b6040516101e391906123a5565b60405180910390f35b61020660048036038101906102019190612652565b610902565b604051610214929190612740565b60405180910390f35b610237600480360381019061023291906121ac565b610d28565b60405161024491906127d2565b60405180910390f35b610267600480360381019061026291906121ac565b610d9b565b60405161027a97969594939291906128bc565b60405180910390f35b61028b610f0c565b60405161029891906123a5565b60405180910390f35b6102bb60048036038101906102b69190612937565b610f30565b005b6102d760048036038101906102d291906121ac565b611229565b6040516102e491906129d4565b60405180910390f35b610307600480360381019061030291906121ac565b61123e565b60405161031794939291906129fc565b60405180910390f35b610328611283565b60405161033591906123a5565b60405180910390f35b61035860048036038101906103539190612a3f565b6112a7565b005b6103626114b0565b60405161036f91906123a5565b60405180910390f35b6103806114d4565b60405161038d91906129d4565b60405180910390f35b6103b060048036038101906103ab91906121ac565b6114da565b6040516103bd9190612ba9565b60405180910390f35b6103e060048036038101906103db9190612bc9565b61168f565b6040516103ef93929190612c4f565b60405180910390f35b610412600480360381019061040d9190612a3f565b611aef565b005b61041c611c4c565b60405161042991906129d4565b60405180910390f35b61043a612021565b60015f8381526020019081526020015f206040518060e00160405290815f8201548152602001600182015f9054906101000a900473ffffffffffffffffffffffffffffffffffffffff1673ffffffffffffffffffffffffffffffffffffffff1673ffffffffffffffffffffffffffffffffffffffff1681526020016002820154815260200160038201548152602001600482015f9054906101000a900460ff161515151581526020016004820160019054906101000a900460ff161515151581526020016004820160029054906101000a900460ff1615151515815250509050919050565b6001602052805f5260405f205f91509050805f015490806001015f9054906101000a900473ffffffffffffffffffffffffffffffffffffffff1690806002015490806003015490806004015f9054906101000a900460ff16908060040160019054906101000a900460ff16908060040160029054906101000a900460ff16905087565b7f000000000000000000000000000000000000000000000000000000000000000081565b603c836105d39190612cb1565b42111561060c576040517f408b223400000000000000000000000000000000000000000000000000000000815260040160405180910390fd5b5f888888866040516020016106249493929190612d9d565b6040516020818303038152906040528051906020012060405160200161064a9190612e3e565b6040516020818303038152906040528051906020012090505f6106b08285858080601f0160208091040260200160405190810160405280939291908181526020018383808284375f81840152601f19601f82011690508083019250505050505050611c52565b90505f73ffffffffffffffffffffffffffffffffffffffff168173ffffffffffffffffffffffffffffffffffffffff1603610720576040517f08c379a000000000000000000000000000000000000000000000000000000000815260040161071790612ead565b60405180910390fd5b6040518060e001604052808b81526020018a62ffffff168152602001891515815260200188888080601f0160208091040260200160405190810160405280939291908181526020018383808284375f81840152601f19601f82011690508083019250505050505050815260200186815260200185858080601f0160208091040260200160405190810160405280939291908181526020018383808284375f81840152601f19601f8201169050808301925050505050505081526020016001151581525060025f8c81526020019081526020015f205f820151815f01556020820151816001015f6101000a81548162ffffff021916908362ffffff16021790555060408201518160010160036101000a81548160ff021916908315150217905550606082015181600201908161085591906130f5565b506080820151816003015560a0820151816004019081610875919061321c565b5060c0820151816005015f6101000a81548160ff021916908315150217905550905050897fe26cadcd809bd704d364d38c96c911adeda2056286f49dcad54d739d7222f56a898b6040516108ca9291906132eb565b60405180910390a250505050505050505050565b7f000000000000000000000000000000000000000000000000000000000000000081565b5f5f7f000000000000000000000000000000000000000000000000000000000000000073ffffffffffffffffffffffffffffffffffffffff163373ffffffffffffffffffffffffffffffffffffffff1614610989576040517fae18210a00000000000000000000000000000000000000000000000000000000815260040160405180910390fd5b5f848481019061099991906121ac565b90505f6109a589611cd6565b90505f60015f8381526020019081526020015f2090505f60045f8581526020019081526020015f2090508060020160019054906101000a900460ff1615610a18576040517f112f1d5c00000000000000000000000000000000000000000000000000000000815260040160405180910390fd5b5f60025f8681526020019081526020015f209050806005015f9054906101000a900460ff168015610a5f57505f816001015f9054906101000a900462ffffff1662ffffff16115b15610ac6575f60035f8781526020019081526020015f20549050816001015f9054906101000a900462ffffff1662ffffff16811115610ac457816001015f9054906101000a900462ffffff1662ffffff1681610abb9190613312565b83600101819055505b505b5f5f8c6020013512610adc578b60200135610aeb565b8b60200135610aea90613345565b5b90505f612710856003015483610b01919061338b565b610b0b91906133f9565b90506103e8811015610b1d576103e890505b5f610b4b866001015f9054906101000a900473ffffffffffffffffffffffffffffffffffffffff1683611d56565b90505f610b6c8660010154876002015f9054906101000a900460ff16611fcc565b90505f8942604051602001610b82929190613429565b6040516020818303038152906040528051906020012090507f000000000000000000000000000000000000000000000000000000000000000073ffffffffffffffffffffffffffffffffffffffff1663da41b499895f015483856040518463ffffffff1660e01b8152600401610bfa9392919061349e565b5f604051808303815f87803b158015610c11575f5ffd5b505af1925050508015610c22575060015b5060018760020160016101000a81548160ff02191690831515021790555060025f8b81526020019081526020015f205f5f82015f9055600182015f6101000a81549062ffffff02191690556001820160036101000a81549060ff0219169055600282015f610c909190612073565b600382015f9055600482015f610ca691906120b0565b600582015f6101000a81549060ff02191690555050897f1d0ef098ee09612fae40ddc4025acd05aa50531a5bb6cc9f5bef38e7599c06ea895f015485610cec575f610cee565b865b85604051610cfe939291906134e6565b60405180910390a26349e86b6b60e01b5f9b509b5050505050505050505050965096945050505050565b610d306120ed565b60045f8381526020019081526020015f206040518060800160405290815f820154815260200160018201548152602001600282015f9054906101000a900460ff161515151581526020016002820160019054906101000a900460ff1615151515815250509050919050565b6002602052805f5260405f205f91509050805f015490806001015f9054906101000a900462ffffff16908060010160039054906101000a900460ff1690806002018054610de790612f25565b80601f0160208091040260200160405190810160405280929190818152602001828054610e1390612f25565b8015610e5e5780601f10610e3557610100808354040283529160200191610e5e565b820191905f5260205f20905b815481529060010190602001808311610e4157829003601f168201915b505050505090806003015490806004018054610e7990612f25565b80601f0160208091040260200160405190810160405280929190818152602001828054610ea590612f25565b8015610ef05780601f10610ec757610100808354040283529160200191610ef0565b820191905f5260205f20905b815481529060010190602001808311610ed357829003601f168201915b505050505090806005015f9054906101000a900460ff16905087565b5f5f9054906101000a900473ffffffffffffffffffffffffffffffffffffffff1681565b5f5f9054906101000a900473ffffffffffffffffffffffffffffffffffffffff1673ffffffffffffffffffffffffffffffffffffffff163373ffffffffffffffffffffffffffffffffffffffff1614610fbe576040517f08c379a0000000000000000000000000000000000000000000000000000000008152600401610fb590613565565b60405180910390fd5b5f7f000000000000000000000000000000000000000000000000000000000000000073ffffffffffffffffffffffffffffffffffffffff16636352211e885f1c6040518263ffffffff1660e01b815260040161101a91906129d4565b602060405180830381865afa158015611035573d5f5f3e3d5ffd5b505050506040513d601f19601f820116820180604052508101906110599190613597565b90508573ffffffffffffffffffffffffffffffffffffffff168173ffffffffffffffffffffffffffffffffffffffff16146110c0576040517f486fcee200000000000000000000000000000000000000000000000000000000815260040160405180910390fd5b6040518060e001604052808881526020018773ffffffffffffffffffffffffffffffffffffffff168152602001868152602001858152602001841515815260200183151581526020016001151581525060015f8a81526020019081526020015f205f820151815f01556020820151816001015f6101000a81548173ffffffffffffffffffffffffffffffffffffffff021916908373ffffffffffffffffffffffffffffffffffffffff16021790555060408201518160020155606082015181600301556080820151816004015f6101000a81548160ff02191690831515021790555060a08201518160040160016101000a81548160ff02191690831515021790555060c08201518160040160026101000a81548160ff021916908315150217905550905050877f3584d4758876c8e875ec0fa3ab49a588c5e959ef74c17d14392bcfb8e217c45388876040516112179291906135c2565b60405180910390a25050505050505050565b6003602052805f5260405f205f915090505481565b6004602052805f5260405f205f91509050805f015490806001015490806002015f9054906101000a900460ff16908060020160019054906101000a900460ff16905084565b7f000000000000000000000000000000000000000000000000000000000000000081565b5f5f9054906101000a900473ffffffffffffffffffffffffffffffffffffffff1673ffffffffffffffffffffffffffffffffffffffff163373ffffffffffffffffffffffffffffffffffffffff1614611335576040517f08c379a000000000000000000000000000000000000000000000000000000000815260040161132c90613565565b60405180910390fd5b5f7f000000000000000000000000000000000000000000000000000000000000000073ffffffffffffffffffffffffffffffffffffffff165f5f9054906101000a900473ffffffffffffffffffffffffffffffffffffffff16836040516024016113a09291906135e9565b6040516020818303038152906040527fa9059cbb000000000000000000000000000000000000000000000000000000007bffffffffffffffffffffffffffffffffffffffffffffffffffffffff19166020820180517bffffffffffffffffffffffffffffffffffffffffffffffffffffffff838183161783525050505060405161142a919061364a565b5f604051808303815f865af19150503d805f8114611463576040519150601f19603f3d011682016040523d82523d5f602084013e611468565b606091505b50509050806114ac576040517f08c379a00000000000000000000000000000000000000000000000000000000081526004016114a3906136aa565b60405180910390fd5b5050565b7f000000000000000000000000000000000000000000000000000000000000000081565b6103e881565b6114e2612115565b60025f8381526020019081526020015f206040518060e00160405290815f8201548152602001600182015f9054906101000a900462ffffff1662ffffff1662ffffff1681526020016001820160039054906101000a900460ff1615151515815260200160028201805461155490612f25565b80601f016020809104026020016040519081016040528092919081815260200182805461158090612f25565b80156115cb5780601f106115a2576101008083540402835291602001916115cb565b820191905f5260205f20905b8154815290600101906020018083116115ae57829003601f168201915b50505050508152602001600382015481526020016004820180546115ee90612f25565b80601f016020809104026020016040519081016040528092919081815260200182805461161a90612f25565b80156116655780601f1061163c57610100808354040283529160200191611665565b820191905f5260205f20905b81548152906001019060200180831161164857829003601f168201915b50505050508152602001600582015f9054906101000a900460ff1615151515815250509050919050565b5f5f5f7f000000000000000000000000000000000000000000000000000000000000000073ffffffffffffffffffffffffffffffffffffffff163373ffffffffffffffffffffffffffffffffffffffff1614611717576040517fae18210a00000000000000000000000000000000000000000000000000000000815260040160405180910390fd5b5f858581019061172791906121ac565b90505f61173389611cd6565b90505f60015f8381526020019081526020015f2090508060040160029054906101000a900460ff16611791576040517fd64e375e00000000000000000000000000000000000000000000000000000000815260040160405180910390fd5b5f7f000000000000000000000000000000000000000000000000000000000000000073ffffffffffffffffffffffffffffffffffffffff16637ba53285835f01546040518263ffffffff1660e01b81526004016117ee91906136c8565b606060405180830381865afa158015611809573d5f5f3e3d5ffd5b505050506040513d601f19601f8201168201806040525081019061182d91906136f5565b505090508160020154811015611880578160020154816040517fcb5fc426000000000000000000000000000000000000000000000000000000008152600401611877929190613745565b60405180910390fd5b8a6040016020810190611893919061376c565b62ffffff1660035f8681526020019081526020015f20819055506040518060800160405280835f015481526020015f81526020015f151581526020015f151581525060045f8681526020019081526020015f205f820151815f0155602082015181600101556040820151816002015f6101000a81548160ff02191690831515021790555060608201518160020160016101000a81548160ff0219169083151502179055509050505f60025f8681526020019081526020015f2090505f5f9050816005015f9054906101000a900460ff1615611a94578160010160039054906101000a900460ff1680156119935750836004015f9054906101000a900460ff165b15611a4457857f2d27d6398e468d606e10c6ffe9f231d37c8246289ddc79aaa041405d755c0498855f0154846002016040516119d0929190613818565b60405180910390a2600160045f8881526020019081526020015f206002015f6101000a81548160ff021916908315150217905550816002016040517f3f5a20ef000000000000000000000000000000000000000000000000000000008152600401611a3b9190613846565b60405180910390fd5b5f826001015f9054906101000a900462ffffff1662ffffff16118015611a7857508360040160019054906101000a900460ff165b15611a9357816001015f9054906101000a900462ffffff1690505b5b857f9f505fa95437c3eebc50b53a1dea99f963b361060104633910e0399542fc98df5f83604051611ac69291906132eb565b60405180910390a263f567d7cf60e01b5f82985098509850505050505050955095509592505050565b5f7f000000000000000000000000000000000000000000000000000000000000000073ffffffffffffffffffffffffffffffffffffffff16333084604051602401611b3c93929190613866565b6040516020818303038152906040527f23b872dd000000000000000000000000000000000000000000000000000000007bffffffffffffffffffffffffffffffffffffffffffffffffffffffff19166020820180517bffffffffffffffffffffffffffffffffffffffffffffffffffffffff8381831617835250505050604051611bc6919061364a565b5f604051808303815f865af19150503d805f8114611bff576040519150601f19603f3d011682016040523d82523d5f602084013e611c04565b606091505b5050905080611c48576040517f08c379a0000000000000000000000000000000000000000000000000000000008152600401611c3f906138e5565b60405180910390fd5b5050565b61271081565b5f6041825114611c64575f9050611cd0565b5f5f5f602085015192506040850151915060608501515f1a90506001868285856040515f8152602001604052604051611ca0949392919061391e565b6020604051602081039080840390855afa158015611cc0573d5f5f3e3d5ffd5b5050506020604051035193505050505b92915050565b5f815f015f016020810190611ceb9190613961565b826020015f016020810190611d009190613961565b836040016020810190611d13919061376c565b846060016020810190611d2691906139c2565b604051602001611d3994939291906139fc565b604051602081830303815290604052805190602001209050919050565b5f5f5f7f000000000000000000000000000000000000000000000000000000000000000073ffffffffffffffffffffffffffffffffffffffff1630604051602401611da191906123a5565b6040516020818303038152906040527f70a08231000000000000000000000000000000000000000000000000000000007bffffffffffffffffffffffffffffffffffffffffffffffffffffffff19166020820180517bffffffffffffffffffffffffffffffffffffffffffffffffffffffff8381831617835250505050604051611e2b919061364a565b5f604051808303815f865af19150503d805f8114611e64576040519150601f19603f3d011682016040523d82523d5f602084013e611e69565b606091505b509150915081611e7d575f92505050611fc6565b5f81806020019051810190611e929190613a3f565b905084811015611ea7575f9350505050611fc6565b5f7f000000000000000000000000000000000000000000000000000000000000000073ffffffffffffffffffffffffffffffffffffffff168787604051602401611ef29291906135e9565b6040516020818303038152906040527fa9059cbb000000000000000000000000000000000000000000000000000000007bffffffffffffffffffffffffffffffffffffffffffffffffffffffff19166020820180517bffffffffffffffffffffffffffffffffffffffffffffffffffffffff8381831617835250505050604051611f7c919061364a565b5f604051808303815f865af19150503d805f8114611fb5576040519150601f19603f3d011682016040523d82523d5f602084013e611fba565b606091505b50509050809450505050505b92915050565b5f8115611fdd576103b6905061201b565b6014831315611ff057610384905061201b565b600a83131561200357610352905061201b565b5f83131561201557610320905061201b565b6102bc90505b92915050565b6040518060e001604052805f81526020015f73ffffffffffffffffffffffffffffffffffffffff1681526020015f81526020015f81526020015f151581526020015f151581526020015f151581525090565b50805461207f90612f25565b5f825580601f1061209057506120ad565b601f0160209004905f5260205f20908101906120ac9190612156565b5b50565b5080546120bc90612f25565b5f825580601f106120cd57506120ea565b601f0160209004905f5260205f20908101906120e99190612156565b5b50565b60405180608001604052805f81526020015f81526020015f151581526020015f151581525090565b6040518060e001604052805f81526020015f62ffffff1681526020015f15158152602001606081526020015f8152602001606081526020015f151581525090565b5b8082111561216d575f815f905550600101612157565b5090565b5f5ffd5b5f5ffd5b5f819050919050565b61218b81612179565b8114612195575f5ffd5b50565b5f813590506121a681612182565b92915050565b5f602082840312156121c1576121c0612171565b5b5f6121ce84828501612198565b91505092915050565b6121e081612179565b82525050565b5f73ffffffffffffffffffffffffffffffffffffffff82169050919050565b5f61220f826121e6565b9050919050565b61221f81612205565b82525050565b5f819050919050565b61223781612225565b82525050565b5f8115159050919050565b6122518161223d565b82525050565b60e082015f82015161226b5f8501826121d7565b50602082015161227e6020850182612216565b506040820151612291604085018261222e565b5060608201516122a4606085018261222e565b5060808201516122b76080850182612248565b5060a08201516122ca60a0850182612248565b5060c08201516122dd60c0850182612248565b50505050565b5f60e0820190506122f65f830184612257565b92915050565b61230581612179565b82525050565b61231481612205565b82525050565b61232381612225565b82525050565b6123328161223d565b82525050565b5f60e08201905061234b5f83018a6122fc565b612358602083018961230b565b612365604083018861231a565b612372606083018761231a565b61237f6080830186612329565b61238c60a0830185612329565b61239960c0830184612329565b98975050505050505050565b5f6020820190506123b85f83018461230b565b92915050565b5f62ffffff82169050919050565b6123d5816123be565b81146123df575f5ffd5b50565b5f813590506123f0816123cc565b92915050565b6123ff8161223d565b8114612409575f5ffd5b50565b5f8135905061241a816123f6565b92915050565b5f5ffd5b5f5ffd5b5f5ffd5b5f5f83601f84011261244157612440612420565b5b8235905067ffffffffffffffff81111561245e5761245d612424565b5b60208301915083600182028301111561247a57612479612428565b5b9250929050565b61248a81612225565b8114612494575f5ffd5b50565b5f813590506124a581612481565b92915050565b5f5f83601f8401126124c0576124bf612420565b5b8235905067ffffffffffffffff8111156124dd576124dc612424565b5b6020830191508360018202830111156124f9576124f8612428565b5b9250929050565b5f5f5f5f5f5f5f5f60c0898b03121561251c5761251b612171565b5b5f6125298b828c01612198565b985050602061253a8b828c016123e2565b975050604061254b8b828c0161240c565b965050606089013567ffffffffffffffff81111561256c5761256b612175565b5b6125788b828c0161242c565b9550955050608061258b8b828c01612497565b93505060a089013567ffffffffffffffff8111156125ac576125ab612175565b5b6125b88b828c016124ab565b92509250509295985092959890939650565b6125d381612205565b81146125dd575f5ffd5b50565b5f813590506125ee816125ca565b92915050565b5f5ffd5b5f60a0828403121561260d5761260c6125f4565b5b81905092915050565b5f6060828403121561262b5761262a6125f4565b5b81905092915050565b5f60408284031215612649576126486125f4565b5b81905092915050565b5f5f5f5f5f5f610180878903121561266d5761266c612171565b5b5f61267a89828a016125e0565b965050602061268b89828a016125f8565b95505060c061269c89828a01612616565b9450506101206126ae89828a01612634565b93505061016087013567ffffffffffffffff8111156126d0576126cf612175565b5b6126dc89828a016124ab565b92509250509295509295509295565b5f7fffffffff0000000000000000000000000000000000000000000000000000000082169050919050565b61271f816126eb565b82525050565b5f81600f0b9050919050565b61273a81612725565b82525050565b5f6040820190506127535f830185612716565b6127606020830184612731565b9392505050565b5f819050919050565b61277981612767565b82525050565b608082015f8201516127935f8501826121d7565b5060208201516127a66020850182612770565b5060408201516127b96040850182612248565b5060608201516127cc6060850182612248565b50505050565b5f6080820190506127e55f83018461277f565b92915050565b6127f4816123be565b82525050565b5f81519050919050565b5f82825260208201905092915050565b8281835e5f83830152505050565b5f601f19601f8301169050919050565b5f61283c826127fa565b6128468185612804565b9350612856818560208601612814565b61285f81612822565b840191505092915050565b5f81519050919050565b5f82825260208201905092915050565b5f61288e8261286a565b6128988185612874565b93506128a8818560208601612814565b6128b181612822565b840191505092915050565b5f60e0820190506128cf5f83018a6122fc565b6128dc60208301896127eb565b6128e96040830188612329565b81810360608301526128fb8187612832565b905061290a608083018661231a565b81810360a083015261291c8185612884565b905061292b60c0830184612329565b98975050505050505050565b5f5f5f5f5f5f5f60e0888a03121561295257612951612171565b5b5f61295f8a828b01612198565b97505060206129708a828b01612198565b96505060406129818a828b016125e0565b95505060606129928a828b01612497565b94505060806129a38a828b01612497565b93505060a06129b48a828b0161240c565b92505060c06129c58a828b0161240c565b91505092959891949750929550565b5f6020820190506129e75f83018461231a565b92915050565b6129f681612767565b82525050565b5f608082019050612a0f5f8301876122fc565b612a1c60208301866129ed565b612a296040830185612329565b612a366060830184612329565b95945050505050565b5f60208284031215612a5457612a53612171565b5b5f612a6184828501612497565b91505092915050565b612a73816123be565b82525050565b5f82825260208201905092915050565b5f612a93826127fa565b612a9d8185612a79565b9350612aad818560208601612814565b612ab681612822565b840191505092915050565b5f82825260208201905092915050565b5f612adb8261286a565b612ae58185612ac1565b9350612af5818560208601612814565b612afe81612822565b840191505092915050565b5f60e083015f830151612b1e5f8601826121d7565b506020830151612b316020860182612a6a565b506040830151612b446040860182612248565b5060608301518482036060860152612b5c8282612a89565b9150506080830151612b71608086018261222e565b5060a083015184820360a0860152612b898282612ad1565b91505060c0830151612b9e60c0860182612248565b508091505092915050565b5f6020820190508181035f830152612bc18184612b09565b905092915050565b5f5f5f5f5f6101408688031215612be357612be2612171565b5b5f612bf0888289016125e0565b9550506020612c01888289016125f8565b94505060c0612c1288828901612616565b93505061012086013567ffffffffffffffff811115612c3457612c33612175565b5b612c40888289016124ab565b92509250509295509295909350565b5f606082019050612c625f830186612716565b612c6f60208301856129ed565b612c7c60408301846127eb565b949350505050565b7f4e487b71000000000000000000000000000000000000000000000000000000005f52601160045260245ffd5b5f612cbb82612225565b9150612cc683612225565b9250828201905080821115612cde57612cdd612c84565b5b92915050565b5f819050919050565b612cfe612cf982612179565b612ce4565b82525050565b5f8160e81b9050919050565b5f612d1a82612d04565b9050919050565b612d32612d2d826123be565b612d10565b82525050565b5f8160f81b9050919050565b5f612d4e82612d38565b9050919050565b5f612d5f82612d44565b9050919050565b612d77612d728261223d565b612d55565b82525050565b5f819050919050565b612d97612d9282612225565b612d7d565b82525050565b5f612da88287612ced565b602082019150612db88286612d21565b600382019150612dc88285612d66565b600182019150612dd88284612d86565b60208201915081905095945050505050565b5f81905092915050565b7f19457468657265756d205369676e6564204d6573736167653a0a3332000000005f82015250565b5f612e28601c83612dea565b9150612e3382612df4565b601c82019050919050565b5f612e4882612e1c565b9150612e548284612ced565b60208201915081905092915050565b7f426164207369676e6174757265000000000000000000000000000000000000005f82015250565b5f612e97600d83612804565b9150612ea282612e63565b602082019050919050565b5f6020820190508181035f830152612ec481612e8b565b9050919050565b7f4e487b71000000000000000000000000000000000000000000000000000000005f52604160045260245ffd5b7f4e487b71000000000000000000000000000000000000000000000000000000005f52602260045260245ffd5b5f6002820490506001821680612f3c57607f821691505b602082108103612f4f57612f4e612ef8565b5b50919050565b5f819050815f5260205f209050919050565b5f6020601f8301049050919050565b5f82821b905092915050565b5f60088302612fb17fffffffffffffffffffffffffffffffffffffffffffffffffffffffffffffffff82612f76565b612fbb8683612f76565b95508019841693508086168417925050509392505050565b5f819050919050565b5f612ff6612ff1612fec84612225565b612fd3565b612225565b9050919050565b5f819050919050565b61300f83612fdc565b61302361301b82612ffd565b848454612f82565b825550505050565b5f5f905090565b61303a61302b565b613045818484613006565b505050565b5b818110156130685761305d5f82613032565b60018101905061304b565b5050565b601f8211156130ad5761307e81612f55565b61308784612f67565b81016020851015613096578190505b6130aa6130a285612f67565b83018261304a565b50505b505050565b5f82821c905092915050565b5f6130cd5f19846008026130b2565b1980831691505092915050565b5f6130e583836130be565b9150826002028217905092915050565b6130fe826127fa565b67ffffffffffffffff81111561311757613116612ecb565b5b6131218254612f25565b61312c82828561306c565b5f60209050601f83116001811461315d575f841561314b578287015190505b61315585826130da565b8655506131bc565b601f19841661316b86612f55565b5f5b828110156131925784890151825560018201915060208501945060208101905061316d565b868310156131af57848901516131ab601f8916826130be565b8355505b6001600288020188555050505b505050505050565b5f819050815f5260205f209050919050565b601f821115613217576131e8816131c4565b6131f184612f67565b81016020851015613200578190505b61321461320c85612f67565b83018261304a565b50505b505050565b6132258261286a565b67ffffffffffffffff81111561323e5761323d612ecb565b5b6132488254612f25565b6132538282856131d6565b5f60209050601f831160018114613284575f8415613272578287015190505b61327c85826130da565b8655506132e3565b601f198416613292866131c4565b5f5b828110156132b957848901518255600182019150602085019450602081019050613294565b868310156132d657848901516132d2601f8916826130be565b8355505b6001600288020188555050505b505050505050565b5f6040820190506132fe5f830185612329565b61330b60208301846127eb565b9392505050565b5f61331c82612225565b915061332783612225565b925082820390508181111561333f5761333e612c84565b5b92915050565b5f61334f82612767565b91507f8000000000000000000000000000000000000000000000000000000000000000820361338157613380612c84565b5b815f039050919050565b5f61339582612225565b91506133a083612225565b92508282026133ae81612225565b915082820484148315176133c5576133c4612c84565b5b5092915050565b7f4e487b71000000000000000000000000000000000000000000000000000000005f52601260045260245ffd5b5f61340382612225565b915061340e83612225565b92508261341e5761341d6133cc565b5b828204905092915050565b5f6134348285612ced565b6020820191506134448284612d86565b6020820191508190509392505050565b7f737761705f636f6d706c6574696f6e00000000000000000000000000000000005f82015250565b5f613488600f83612804565b915061349382613454565b602082019050919050565b5f6080820190506134b15f8301866122fc565b6134be60208301856122fc565b6134cb604083018461231a565b81810360608301526134dc8161347c565b9050949350505050565b5f6060820190506134f95f8301866122fc565b613506602083018561231a565b613513604083018461231a565b949350505050565b7f4e6f74206f776e657200000000000000000000000000000000000000000000005f82015250565b5f61354f600983612804565b915061355a8261351b565b602082019050919050565b5f6020820190508181035f83015261357c81613543565b9050919050565b5f81519050613591816125ca565b92915050565b5f602082840312156135ac576135ab612171565b5b5f6135b984828501613583565b91505092915050565b5f6040820190506135d55f8301856122fc565b6135e2602083018461231a565b9392505050565b5f6040820190506135fc5f83018561230b565b613609602083018461231a565b9392505050565b5f81905092915050565b5f6136248261286a565b61362e8185613610565b935061363e818560208601612814565b80840191505092915050565b5f613655828461361a565b915081905092915050565b7f5769746864726177206661696c656400000000000000000000000000000000005f82015250565b5f613694600f83612804565b915061369f82613660565b602082019050919050565b5f6020820190508181035f8301526136c181613688565b9050919050565b5f6020820190506136db5f8301846122fc565b92915050565b5f815190506136ef81612481565b92915050565b5f5f5f6060848603121561370c5761370b612171565b5b5f613719868287016136e1565b935050602061372a868287016136e1565b925050604061373b868287016136e1565b9150509250925092565b5f6040820190506137585f83018561231a565b613765602083018461231a565b9392505050565b5f6020828403121561378157613780612171565b5b5f61378e848285016123e2565b91505092915050565b5f81546137a381612f25565b6137ad8186612804565b9450600182165f81146137c757600181146137dd5761380f565b60ff19831686528115156020028601935061380f565b6137e685612f55565b5f5b83811015613807578154818901526001820191506020810190506137e8565b808801955050505b50505092915050565b5f60408201905061382b5f8301856122fc565b818103602083015261383d8184613797565b90509392505050565b5f6020820190508181035f83015261385e8184613797565b905092915050565b5f6060820190506138795f83018661230b565b613886602083018561230b565b613893604083018461231a565b949350505050565b7f55534443207472616e73666572206661696c65640000000000000000000000005f82015250565b5f6138cf601483612804565b91506138da8261389b565b602082019050919050565b5f6020820190508181035f8301526138fc816138c3565b9050919050565b5f60ff82169050919050565b61391881613903565b82525050565b5f6080820190506139315f8301876122fc565b61393e602083018661390f565b61394b60408301856122fc565b61395860608301846122fc565b95945050505050565b5f6020828403121561397657613975612171565b5b5f613983848285016125e0565b91505092915050565b5f8160020b9050919050565b6139a18161398c565b81146139ab575f5ffd5b50565b5f813590506139bc81613998565b92915050565b5f602082840312156139d7576139d6612171565b5b5f6139e4848285016139ae565b91505092915050565b6139f68161398c565b82525050565b5f608082019050613a0f5f83018761230b565b613a1c602083018661230b565b613a2960408301856127eb565b613a3660608301846139ed565b95945050505050565b5f60208284031215613a5457613a53612171565b5b5f613a61848285016136e1565b9150509291505056fea264697066735822122047e0443d12209f0b6e4dad3d0c23d12cb8b7d70304a64956bdb012f00b3faa7664736f6c634300081c0033","linkReferences":{}},"methodIdentifiers":{"AGENT_FEE_FLOOR()":"ed034082","MAX_BPS()":"fd967f47","afterSwap(address,((address),(address),uint24,int24,address),(bool,int256,uint160),(int128,int128),bytes)":"49e86b6b","beforeSwap(address,((address),(address),uint24,int24,address),(bool,int256,uint160),bytes)":"f567d7cf","configurePool(bytes32,bytes32,address,uint256,uint256,bool,bool)":"9966d44a","depositUSDC(uint256)":"f688bcfb","getPendingIntent(bytes32)":"f0681218","getPoolConfig(bytes32)":"037aadbe","getSwapOutcome(bytes32)":"626bc16c","identityRegistry()":"134e18f4","owner()":"8da5cb5b","pendingIntents(bytes32)":"7a6517c3","poolConfigs(bytes32)":"07ef2190","poolManager()":"dc4c90d3","registerIntent(bytes32,uint24,bool,string,uint256,bytes)":"22460e9d","reputationRegistry()":"c8db44e3","swapBaseFees(bytes32)":"99b4273e","swapOutcomes(bytes32)":"b141b243","usdc()":"3e413bee","withdrawUSDC(uint256)":"db81f99b"},"id":0}