{"abi":[{"type":"constructor","inputs":[{"name":"_poolManager","type":"address","internalType":"address"},{"name":"_identityRegistry","type":"address","internalType":"address"},{"name":"_reputationRegistry","type":"address","internalType":"address"},{"name":"_usdc","type":"address","internalType":"address"},{"name":"_agenticCommerce","type":"address","internalType":"address"}],"stateMutability":"nonpayable"},{"type":"function","name":"AGENT_FEE_FLOOR","inputs":[],"outputs":[{"name":"","type":"uint256","internalType":"uint256"}],"stateMutability":"view"},{"type":"function","name":"MAX_BPS","inputs":[],"outputs":[{"name":"","type":"uint256","internalType":"uint256"}],"stateMutability":"view"},{"type":"function","name":"afterSwap","inputs":[{"name":"","type":"address","internalType":"address"},{"name":"key","type":"tuple","internalType":"struct PoolKey","components":[{"name":"currency0","type":"tuple","internalType":"struct Currency","components":[{"name":"token","type":"address","internalType":"address"}]},{"name":"currency1","type":"tuple","internalType":"struct Currency","components":[{"name":"token","type":"address","internalType":"address"}]},{"name":"fee","type":"uint24","internalType":"uint24"},{"name":"tickSpacing","type":"int24","internalType":"int24"},{"name":"hooks","type":"address","internalType":"address"}]},{"name":"params","type":"tuple","internalType":"struct IPoolManager.SwapParams","components":[{"name":"zeroForOne","type":"bool","internalType":"bool"},{"name":"amountSpecified","type":"int256","internalType":"int256"},{"name":"sqrtPriceLimitX96","type":"uint160","internalType":"uint160"}]},{"name":"","type":"tuple","internalType":"struct BalanceDelta","components":[{"name":"amount0","type":"int128","internalType":"int128"},{"name":"amount1","type":"int128","internalType":"int128"}]},{"name":"hookData","type":"bytes","internalType":"bytes"}],"outputs":[{"name":"","type":"bytes4","internalType":"bytes4"},{"name":"","type":"int128","internalType":"int128"}],"stateMutability":"nonpayable"},{"type":"function","name":"agenticCommerce","inputs":[],"outputs":[{"name":"","type":"address","internalType":"address"}],"stateMutability":"view"},{"type":"function","name":"beforeSwap","inputs":[{"name":"","type":"address","internalType":"address"},{"name":"key","type":"tuple","internalType":"struct PoolKey","components":[{"name":"currency0","type":"tuple","internalType":"struct Currency","components":[{"name":"token","type":"address","internalType":"address"}]},{"name":"currency1","type":"tuple","internalType":"struct Currency","components":[{"name":"token","type":"address","internalType":"address"}]},{"name":"fee","type":"uint24","internalType":"uint24"},{"name":"tickSpacing","type":"int24","internalType":"int24"},{"name":"hooks","type":"address","internalType":"address"}]},{"name":"","type":"tuple","internalType":"struct IPoolManager.SwapParams","components":[{"name":"zeroForOne","type":"bool","internalType":"bool"},{"name":"amountSpecified","type":"int256","internalType":"int256"},{"name":"sqrtPriceLimitX96","type":"uint160","internalType":"uint160"}]},{"name":"hookData","type":"bytes","internalType":"bytes"}],"outputs":[{"name":"","type":"bytes4","internalType":"bytes4"},{"name":"","type":"int256","internalType":"int256"},{"name":"","type":"uint24","internalType":"uint24"}],"stateMutability":"nonpayable"},{"type":"function","name":"configurePool","inputs":[{"name":"poolId","type":"bytes32","internalType":"bytes32"},{"name":"agentId","type":"bytes32","internalType":"bytes32"},{"name":"agentWallet","type":"address","internalType":"address"},{"name":"minRepScore","type":"uint256","internalType":"uint256"},{"name":"agentFeeBps","type":"uint256","internalType":"uint256"},{"name":"mevProtection","type":"bool","internalType":"bool"},{"name":"dynamicFee","type":"bool","internalType":"bool"}],"outputs":[],"stateMutability":"nonpayable"},{"type":"function","name":"depositUSDC","inputs":[{"name":"amount","type":"uint256","internalType":"uint256"}],"outputs":[],"stateMutability":"nonpayable"},{"type":"function","name":"getPendingIntent","inputs":[{"name":"swapId","type":"bytes32","internalType":"bytes32"}],"outputs":[{"name":"","type":"tuple","internalType":"struct AgentSwapHook.AgentIntent","components":[{"name":"swapId","type":"bytes32","internalType":"bytes32"},{"name":"feeOverrideBps","type":"uint24","internalType":"uint24"},{"name":"mevFlag","type":"bool","internalType":"bool"},{"name":"mevEvidence","type":"string","internalType":"string"},{"name":"timestamp","type":"uint256","internalType":"uint256"},{"name":"signature","type":"bytes","internalType":"bytes"},{"name":"exists","type":"bool","internalType":"bool"}]}],"stateMutability":"view"},{"type":"function","name":"getPoolConfig","inputs":[{"name":"poolId","type":"bytes32","internalType":"bytes32"}],"outputs":[{"name":"","type":"tuple","internalType":"struct AgentSwapHook.PoolConfig","components":[{"name":"assignedAgentId","type":"bytes32","internalType":"bytes32"},{"name":"agentWallet","type":"address","internalType":"address"},{"name":"minRepScore","type":"uint256","internalType":"uint256"},{"name":"agentFeeBps","type":"uint256","internalType":"uint256"},{"name":"mevProtectionEnabled","type":"bool","internalType":"bool"},{"name":"dynamicFeeEnabled","type":"bool","internalType":"bool"},{"name":"active","type":"bool","internalType":"bool"}]}],"stateMutability":"view"},{"type":"function","name":"getSwapOutcome","inputs":[{"name":"swapId","type":"bytes32","internalType":"bytes32"}],"outputs":[{"name":"","type":"tuple","internalType":"struct AgentSwapHook.SwapOutcome","components":[{"name":"agentId","type":"bytes32","internalType":"bytes32"},{"name":"slippageSavedBps","type":"int256","internalType":"int256"},{"name":"mevBlocked","type":"bool","internalType":"bool"},{"name":"settled","type":"bool","internalType":"bool"}]}],"stateMutability":"view"},{"type":"function","name":"identityRegistry","inputs":[],"outputs":[{"name":"","type":"address","internalType":"address"}],"stateMutability":"view"},{"type":"function","name":"owner","inputs":[],"outputs":[{"name":"","type":"address","internalType":"address"}],"stateMutability":"view"},{"type":"function","name":"pendingIntents","inputs":[{"name":"","type":"bytes32","internalType":"bytes32"}],"outputs":[{"name":"swapId","type":"bytes32","internalType":"bytes32"},{"name":"feeOverrideBps","type":"uint24","internalType":"uint24"},{"name":"mevFlag","type":"bool","internalType":"bool"},{"name":"mevEvidence","type":"string","internalType":"string"},{"name":"timestamp","type":"uint256","internalType":"uint256"},{"name":"signature","type":"bytes","internalType":"bytes"},{"name":"exists","type":"bool","internalType":"bool"}],"stateMutability":"view"},{"type":"function","name":"poolConfigs","inputs":[{"name":"","type":"bytes32","internalType":"bytes32"}],"outputs":[{"name":"assignedAgentId","type":"bytes32","internalType":"bytes32"},{"name":"agentWallet","type":"address","internalType":"address"},{"name":"minRepScore","type":"uint256","internalType":"uint256"},{"name":"agentFeeBps","type":"uint256","internalType":"uint256"},{"name":"mevProtectionEnabled","type":"bool","internalType":"bool"},{"name":"dynamicFeeEnabled","type":"bool","internalType":"bool"},{"name":"active","type":"bool","internalType":"bool"}],"stateMutability":"view"},{"type":"function","name":"poolManager","inputs":[],"outputs":[{"name":"","type":"address","internalType":"address"}],"stateMutability":"view"},{"type":"function","name":"registerIntent","inputs":[{"name":"swapId","type":"bytes32","internalType":"bytes32"},{"name":"feeOverrideBps","type":"uint24","internalType":"uint24"},{"name":"mevFlag","type":"bool","internalType":"bool"},{"name":"mevEvidence","type":"string","internalType":"string"},{"name":"intentTimestamp","type":"uint256","internalType":"uint256"},{"name":"sig","type":"bytes","internalType":"bytes"}],"outputs":[],"stateMutability":"nonpayable"},{"type":"function","name":"reputationRegistry","inputs":[],"outputs":[{"name":"","type":"address","internalType":"address"}],"stateMutability":"view"},{"type":"function","name":"swapBaseFees","inputs":[{"name":"","type":"bytes32","internalType":"bytes32"}],"outputs":[{"name":"","type":"uint256","internalType":"uint256"}],"stateMutability":"view"},{"type":"function","name":"swapOutcomes","inputs":[{"name":"","type":"bytes32","internalType":"bytes32"}],"outputs":[{"name":"agentId","type":"bytes32","internalType":"bytes32"},{"name":"slippageSavedBps","type":"int256","internalType":"int256"},{"name":"mevBlocked","type":"bool","internalType":"bool"},{"name":"settled","type":"bool","internalType":"bool"}],"stateMutability":"view"},{"type":"function","name":"usdc","inputs":[],"outputs":[{"name":"","type":"address","internalType":"address"}],"stateMutability":"view"},{"type":"function","name":"withdrawUSDC","inputs":[{"name":"amount","type":"uint256","internalType":"uint256"}],"outputs":[],"stateMutability":"nonpayable"},{"type":"event","name":"AgentSettled","inputs":[{"name":"swapId","type":"bytes32","indexed":true,"internalType":"bytes32"},{"name":"agentId","type":"bytes32","indexed":false,"internalType":"bytes32"},{"name":"usdcPaid","type":"uint256","indexed":false,"internalType":"uint256"},{"name":"perfScore","type":"uint256","indexed":false,"internalType":"uint256"}],"anonymous":false},{"type":"event","name":"ERC8183JobCreated","inputs":[{"name":"jobId","type":"uint256","indexed":true,"internalType":"uint256"},{"name":"agentId","type":"bytes32","indexed":false,"internalType":"bytes32"},{"name":"amount","type":"uint256","indexed":false,"internalType":"uint256"}],"anonymous":false},{"type":"event","name":"IntentRegistered","inputs":[{"name":"swapId","type":"bytes32","indexed":true,"internalType":"bytes32"},{"name":"mevFlag","type":"bool","indexed":false,"internalType":"bool"},{"name":"feeOverride","type":"uint24","indexed":false,"internalType":"uint24"}],"anonymous":false},{"type":"event","name":"MEVBlocked","inputs":[{"name":"swapId","type":"bytes32","indexed":true,"internalType":"bytes32"},{"name":"agentId","type":"bytes32","indexed":false,"internalType":"bytes32"},{"name":"evidence","type":"string","indexed":false,"internalType":"string"}],"anonymous":false},{"type":"event","name":"PoolConfigured","inputs":[{"name":"poolId","type":"bytes32","indexed":true,"internalType":"bytes32"},{"name":"agentId","type":"bytes32","indexed":false,"internalType":"bytes32"},{"name":"minRepScore","type":"uint256","indexed":false,"internalType":"uint256"}],"anonymous":false},{"type":"event","name":"SwapIntercepted","inputs":[{"name":"swapId","type":"bytes32","indexed":true,"internalType":"bytes32"},{"name":"mevBlocked","type":"bool","indexed":false,"internalType":"bool"},{"name":"feeApplied","type":"uint24","indexed":false,"internalType":"uint24"}],"anonymous":false},{"type":"error","name":"AgentNotActive","inputs":[]},{"type":"error","name":"InsufficientReputation","inputs":[{"name":"required","type":"uint256","internalType":"uint256"},{"name":"actual","type":"uint256","internalType":"uint256"}]},{"type":"error","name":"IntentExpired","inputs":[]},{"type":"error","name":"MEVDetected","inputs":[{"name":"evidence","type":"string","internalType":"string"}]},{"type":"error","name":"NotPoolManager","inputs":[]},{"type":"error","name":"PoolNotConfigured","inputs":[]},{"type":"error","name":"SwapAlreadyProcessed","inputs":[]}],"bytecode":{"object":"0x610120604052348015610010575f5ffd5b50604051614016380380614016833981810160405281019061003291906101de565b8473ffffffffffffffffffffffffffffffffffffffff1660808173ffffffffffffffffffffffffffffffffffffffff16815250508373ffffffffffffffffffffffffffffffffffffffff1660a08173ffffffffffffffffffffffffffffffffffffffff16815250508273ffffffffffffffffffffffffffffffffffffffff1660c08173ffffffffffffffffffffffffffffffffffffffff16815250508173ffffffffffffffffffffffffffffffffffffffff166101008173ffffffffffffffffffffffffffffffffffffffff16815250508073ffffffffffffffffffffffffffffffffffffffff1660e08173ffffffffffffffffffffffffffffffffffffffff1681525050335f5f6101000a81548173ffffffffffffffffffffffffffffffffffffffff021916908373ffffffffffffffffffffffffffffffffffffffff1602179055505050505050610255565b5f5ffd5b5f73ffffffffffffffffffffffffffffffffffffffff82169050919050565b5f6101ad82610184565b9050919050565b6101bd816101a3565b81146101c7575f5ffd5b50565b5f815190506101d8816101b4565b92915050565b5f5f5f5f5f60a086880312156101f7576101f6610180565b5b5f610204888289016101ca565b9550506020610215888289016101ca565b9450506040610226888289016101ca565b9350506060610237888289016101ca565b9250506080610248888289016101ca565b9150509295509295909350565b60805160a05160c05160e05161010051613d376102df5f395f81816109090152818161150801528181611cc201528181611f2b015261207a01525f8181610b5f01528181610b9b015261143101525f8181610d4801528181611455015261196401525f81816105cd015261116d01525f818161092f0152818161168201526118640152613d375ff3fe608060405234801561000f575f5ffd5b5060043610610135575f3560e01c806399b4273e116100b6578063dc4c90d31161007a578063dc4c90d314610383578063ed034082146103a1578063f0681218146103bf578063f567d7cf146103ef578063f688bcfb14610421578063fd967f471461043d57610135565b806399b4273e146102c8578063b141b243146102f8578063c1d369201461032b578063c8db44e314610349578063db81f99b1461036757610135565b806349e86b6b116100fd57806349e86b6b146101f7578063626bc16c146102285780637a6517c3146102585780638da5cb5b1461028e5780639966d44a146102ac57610135565b8063037aadbe1461013957806307ef219014610169578063134e18f41461019f57806322460e9d146101bd5780633e413bee146101d9575b5f5ffd5b610153600480360381019061014e919061237c565b61045b565b60405161016091906124b3565b60405180910390f35b610183600480360381019061017e919061237c565b610548565b6040516101969796959493929190612508565b60405180910390f35b6101a76105cb565b6040516101b49190612575565b60405180910390f35b6101d760048036038101906101d291906126d0565b6105ef565b005b6101e1610907565b6040516101ee9190612575565b60405180910390f35b610211600480360381019061020c9190612822565b61092b565b60405161021f929190612910565b60405180910390f35b610242600480360381019061023d919061237c565b610ed4565b60405161024f91906129a2565b60405180910390f35b610272600480360381019061026d919061237c565b610f47565b6040516102859796959493929190612a8c565b60405180910390f35b6102966110b8565b6040516102a39190612575565b60405180910390f35b6102c660048036038101906102c19190612b07565b6110dc565b005b6102e260048036038101906102dd919061237c565b6113d5565b6040516102ef9190612ba4565b60405180910390f35b610312600480360381019061030d919061237c565b6113ea565b6040516103229493929190612bcc565b60405180910390f35b61033361142f565b6040516103409190612575565b60405180910390f35b610351611453565b60405161035e9190612575565b60405180910390f35b610381600480360381019061037c9190612c0f565b611477565b005b61038b611680565b6040516103989190612575565b60405180910390f35b6103a96116a4565b6040516103b69190612ba4565b60405180910390f35b6103d960048036038101906103d4919061237c565b6116aa565b6040516103e69190612d79565b60405180910390f35b61040960048036038101906104049190612d99565b61185f565b60405161041893929190612e1f565b60405180910390f35b61043b60048036038101906104369190612c0f565b611cbf565b005b610445611e1c565b6040516104529190612ba4565b60405180910390f35b6104636121f1565b60015f8381526020019081526020015f206040518060e00160405290815f8201548152602001600182015f9054906101000a900473ffffffffffffffffffffffffffffffffffffffff1673ffffffffffffffffffffffffffffffffffffffff1673ffffffffffffffffffffffffffffffffffffffff1681526020016002820154815260200160038201548152602001600482015f9054906101000a900460ff161515151581526020016004820160019054906101000a900460ff161515151581526020016004820160029054906101000a900460ff1615151515815250509050919050565b6001602052805f5260405f205f91509050805f015490806001015f9054906101000a900473ffffffffffffffffffffffffffffffffffffffff1690806002015490806003015490806004015f9054906101000a900460ff16908060040160019054906101000a900460ff16908060040160029054906101000a900460ff16905087565b7f000000000000000000000000000000000000000000000000000000000000000081565b603c836105fc9190612e81565b421115610635576040517f408b223400000000000000000000000000000000000000000000000000000000815260040160405180910390fd5b5f8888888660405160200161064d9493929190612f6d565b60405160208183030381529060405280519060200120604051602001610673919061300e565b6040516020818303038152906040528051906020012090505f6106d98285858080601f0160208091040260200160405190810160405280939291908181526020018383808284375f81840152601f19601f82011690508083019250505050505050611e22565b90505f73ffffffffffffffffffffffffffffffffffffffff168173ffffffffffffffffffffffffffffffffffffffff1603610749576040517f08c379a00000000000000000000000000000000000000000000000000000000081526004016107409061307d565b60405180910390fd5b6040518060e001604052808b81526020018a62ffffff168152602001891515815260200188888080601f0160208091040260200160405190810160405280939291908181526020018383808284375f81840152601f19601f82011690508083019250505050505050815260200186815260200185858080601f0160208091040260200160405190810160405280939291908181526020018383808284375f81840152601f19601f8201169050808301925050505050505081526020016001151581525060025f8c81526020019081526020015f205f820151815f01556020820151816001015f6101000a81548162ffffff021916908362ffffff16021790555060408201518160010160036101000a81548160ff021916908315150217905550606082015181600201908161087e91906132c5565b506080820151816003015560a082015181600401908161089e91906133ec565b5060c0820151816005015f6101000a81548160ff021916908315150217905550905050897fe26cadcd809bd704d364d38c96c911adeda2056286f49dcad54d739d7222f56a898b6040516108f39291906134bb565b60405180910390a250505050505050505050565b7f000000000000000000000000000000000000000000000000000000000000000081565b5f5f7f000000000000000000000000000000000000000000000000000000000000000073ffffffffffffffffffffffffffffffffffffffff163373ffffffffffffffffffffffffffffffffffffffff16146109b2576040517fae18210a00000000000000000000000000000000000000000000000000000000815260040160405180910390fd5b5f84848101906109c2919061237c565b90505f6109ce89611ea6565b90505f60015f8381526020019081526020015f2090505f60045f8581526020019081526020015f2090508060020160019054906101000a900460ff1615610a41576040517f112f1d5c00000000000000000000000000000000000000000000000000000000815260040160405180910390fd5b5f60025f8681526020019081526020015f209050806005015f9054906101000a900460ff168015610a8857505f816001015f9054906101000a900462ffffff1662ffffff16115b15610aef575f60035f8781526020019081526020015f20549050816001015f9054906101000a900462ffffff1662ffffff16811115610aed57816001015f9054906101000a900462ffffff1662ffffff1681610ae491906134e2565b83600101819055505b505b5f5f8c6020013512610b05578b60200135610b14565b8b60200135610b1390613515565b5b90505f612710856003015483610b2a919061355b565b610b3491906135c9565b90506103e8811015610b46576103e890505b5f73ffffffffffffffffffffffffffffffffffffffff167f000000000000000000000000000000000000000000000000000000000000000073ffffffffffffffffffffffffffffffffffffffff1614610cc9577f000000000000000000000000000000000000000000000000000000000000000073ffffffffffffffffffffffffffffffffffffffff166341528812866001015f9054906101000a900473ffffffffffffffffffffffffffffffffffffffff1630610e1042610c089190612e81565b8b604051602001610c199190613643565b6040516020818303038152906040525f6040518663ffffffff1660e01b8152600401610c49959493929190613668565b6020604051808303815f875af1925050508015610c8457506040513d601f19601f82011682018060405250810190610c8191906136d4565b60015b15610cc857807f9e762e55731d9baa3f016ed8f42a95beb0b5da77d78817c7ea304b4159d2b1ce875f015484604051610cbe9291906136ff565b60405180910390a2505b5b5f610cf7866001015f9054906101000a900473ffffffffffffffffffffffffffffffffffffffff1683611f26565b90505f610d188660010154876002015f9054906101000a900460ff1661219c565b90505f8942604051602001610d2e929190613726565b6040516020818303038152906040528051906020012090507f000000000000000000000000000000000000000000000000000000000000000073ffffffffffffffffffffffffffffffffffffffff1663da41b499895f015483856040518463ffffffff1660e01b8152600401610da69392919061379b565b5f604051808303815f87803b158015610dbd575f5ffd5b505af1925050508015610dce575060015b5060018760020160016101000a81548160ff02191690831515021790555060025f8b81526020019081526020015f205f5f82015f9055600182015f6101000a81549062ffffff02191690556001820160036101000a81549060ff0219169055600282015f610e3c9190612243565b600382015f9055600482015f610e529190612280565b600582015f6101000a81549060ff02191690555050897f1d0ef098ee09612fae40ddc4025acd05aa50531a5bb6cc9f5bef38e7599c06ea895f015485610e98575f610e9a565b865b85604051610eaa939291906137e3565b60405180910390a26349e86b6b60e01b5f9b509b5050505050505050505050965096945050505050565b610edc6122bd565b60045f8381526020019081526020015f206040518060800160405290815f820154815260200160018201548152602001600282015f9054906101000a900460ff161515151581526020016002820160019054906101000a900460ff1615151515815250509050919050565b6002602052805f5260405f205f91509050805f015490806001015f9054906101000a900462ffffff16908060010160039054906101000a900460ff1690806002018054610f93906130f5565b80601f0160208091040260200160405190810160405280929190818152602001828054610fbf906130f5565b801561100a5780601f10610fe15761010080835404028352916020019161100a565b820191905f5260205f20905b815481529060010190602001808311610fed57829003601f168201915b505050505090806003015490806004018054611025906130f5565b80601f0160208091040260200160405190810160405280929190818152602001828054611051906130f5565b801561109c5780601f106110735761010080835404028352916020019161109c565b820191905f5260205f20905b81548152906001019060200180831161107f57829003601f168201915b505050505090806005015f9054906101000a900460ff16905087565b5f5f9054906101000a900473ffffffffffffffffffffffffffffffffffffffff1681565b5f5f9054906101000a900473ffffffffffffffffffffffffffffffffffffffff1673ffffffffffffffffffffffffffffffffffffffff163373ffffffffffffffffffffffffffffffffffffffff161461116a576040517f08c379a000000000000000000000000000000000000000000000000000000000815260040161116190613862565b60405180910390fd5b5f7f000000000000000000000000000000000000000000000000000000000000000073ffffffffffffffffffffffffffffffffffffffff16636352211e885f1c6040518263ffffffff1660e01b81526004016111c69190612ba4565b602060405180830381865afa1580156111e1573d5f5f3e3d5ffd5b505050506040513d601f19601f820116820180604052508101906112059190613894565b90508573ffffffffffffffffffffffffffffffffffffffff168173ffffffffffffffffffffffffffffffffffffffff161461126c576040517f486fcee200000000000000000000000000000000000000000000000000000000815260040160405180910390fd5b6040518060e001604052808881526020018773ffffffffffffffffffffffffffffffffffffffff168152602001868152602001858152602001841515815260200183151581526020016001151581525060015f8a81526020019081526020015f205f820151815f01556020820151816001015f6101000a81548173ffffffffffffffffffffffffffffffffffffffff021916908373ffffffffffffffffffffffffffffffffffffffff16021790555060408201518160020155606082015181600301556080820151816004015f6101000a81548160ff02191690831515021790555060a08201518160040160016101000a81548160ff02191690831515021790555060c08201518160040160026101000a81548160ff021916908315150217905550905050877f3584d4758876c8e875ec0fa3ab49a588c5e959ef74c17d14392bcfb8e217c45388876040516113c39291906136ff565b60405180910390a25050505050505050565b6003602052805f5260405f205f915090505481565b6004602052805f5260405f205f91509050805f015490806001015490806002015f9054906101000a900460ff16908060020160019054906101000a900460ff16905084565b7f000000000000000000000000000000000000000000000000000000000000000081565b7f000000000000000000000000000000000000000000000000000000000000000081565b5f5f9054906101000a900473ffffffffffffffffffffffffffffffffffffffff1673ffffffffffffffffffffffffffffffffffffffff163373ffffffffffffffffffffffffffffffffffffffff1614611505576040517f08c379a00000000000000000000000000000000000000000000000000000000081526004016114fc90613862565b60405180910390fd5b5f7f000000000000000000000000000000000000000000000000000000000000000073ffffffffffffffffffffffffffffffffffffffff165f5f9054906101000a900473ffffffffffffffffffffffffffffffffffffffff16836040516024016115709291906138bf565b6040516020818303038152906040527fa9059cbb000000000000000000000000000000000000000000000000000000007bffffffffffffffffffffffffffffffffffffffffffffffffffffffff19166020820180517bffffffffffffffffffffffffffffffffffffffffffffffffffffffff83818316178352505050506040516115fa9190613920565b5f604051808303815f865af19150503d805f8114611633576040519150601f19603f3d011682016040523d82523d5f602084013e611638565b606091505b505090508061167c576040517f08c379a000000000000000000000000000000000000000000000000000000000815260040161167390613980565b60405180910390fd5b5050565b7f000000000000000000000000000000000000000000000000000000000000000081565b6103e881565b6116b26122e5565b60025f8381526020019081526020015f206040518060e00160405290815f8201548152602001600182015f9054906101000a900462ffffff1662ffffff1662ffffff1681526020016001820160039054906101000a900460ff16151515158152602001600282018054611724906130f5565b80601f0160208091040260200160405190810160405280929190818152602001828054611750906130f5565b801561179b5780601f106117725761010080835404028352916020019161179b565b820191905f5260205f20905b81548152906001019060200180831161177e57829003601f168201915b50505050508152602001600382015481526020016004820180546117be906130f5565b80601f01602080910402602001604051908101604052809291908181526020018280546117ea906130f5565b80156118355780601f1061180c57610100808354040283529160200191611835565b820191905f5260205f20905b81548152906001019060200180831161181857829003601f168201915b50505050508152602001600582015f9054906101000a900460ff1615151515815250509050919050565b5f5f5f7f000000000000000000000000000000000000000000000000000000000000000073ffffffffffffffffffffffffffffffffffffffff163373ffffffffffffffffffffffffffffffffffffffff16146118e7576040517fae18210a00000000000000000000000000000000000000000000000000000000815260040160405180910390fd5b5f85858101906118f7919061237c565b90505f61190389611ea6565b90505f60015f8381526020019081526020015f2090508060040160029054906101000a900460ff16611961576040517fd64e375e00000000000000000000000000000000000000000000000000000000815260040160405180910390fd5b5f7f000000000000000000000000000000000000000000000000000000000000000073ffffffffffffffffffffffffffffffffffffffff16637ba53285835f01546040518263ffffffff1660e01b81526004016119be919061399e565b606060405180830381865afa1580156119d9573d5f5f3e3d5ffd5b505050506040513d601f19601f820116820180604052508101906119fd91906139b7565b505090508160020154811015611a50578160020154816040517fcb5fc426000000000000000000000000000000000000000000000000000000008152600401611a47929190613a07565b60405180910390fd5b8a6040016020810190611a639190613a2e565b62ffffff1660035f8681526020019081526020015f20819055506040518060800160405280835f015481526020015f81526020015f151581526020015f151581525060045f8681526020019081526020015f205f820151815f0155602082015181600101556040820151816002015f6101000a81548160ff02191690831515021790555060608201518160020160016101000a81548160ff0219169083151502179055509050505f60025f8681526020019081526020015f2090505f5f9050816005015f9054906101000a900460ff1615611c64578160010160039054906101000a900460ff168015611b635750836004015f9054906101000a900460ff165b15611c1457857f2d27d6398e468d606e10c6ffe9f231d37c8246289ddc79aaa041405d755c0498855f015484600201604051611ba0929190613ada565b60405180910390a2600160045f8881526020019081526020015f206002015f6101000a81548160ff021916908315150217905550816002016040517f3f5a20ef000000000000000000000000000000000000000000000000000000008152600401611c0b9190613b08565b60405180910390fd5b5f826001015f9054906101000a900462ffffff1662ffffff16118015611c4857508360040160019054906101000a900460ff165b15611c6357816001015f9054906101000a900462ffffff1690505b5b857f9f505fa95437c3eebc50b53a1dea99f963b361060104633910e0399542fc98df5f83604051611c969291906134bb565b60405180910390a263f567d7cf60e01b5f82985098509850505050505050955095509592505050565b5f7f000000000000000000000000000000000000000000000000000000000000000073ffffffffffffffffffffffffffffffffffffffff16333084604051602401611d0c93929190613b28565b6040516020818303038152906040527f23b872dd000000000000000000000000000000000000000000000000000000007bffffffffffffffffffffffffffffffffffffffffffffffffffffffff19166020820180517bffffffffffffffffffffffffffffffffffffffffffffffffffffffff8381831617835250505050604051611d969190613920565b5f604051808303815f865af19150503d805f8114611dcf576040519150601f19603f3d011682016040523d82523d5f602084013e611dd4565b606091505b5050905080611e18576040517f08c379a0000000000000000000000000000000000000000000000000000000008152600401611e0f90613ba7565b60405180910390fd5b5050565b61271081565b5f6041825114611e34575f9050611ea0565b5f5f5f602085015192506040850151915060608501515f1a90506001868285856040515f8152602001604052604051611e709493929190613be0565b6020604051602081039080840390855afa158015611e90573d5f5f3e3d5ffd5b5050506020604051035193505050505b92915050565b5f815f015f016020810190611ebb9190613c23565b826020015f016020810190611ed09190613c23565b836040016020810190611ee39190613a2e565b846060016020810190611ef69190613c84565b604051602001611f099493929190613cbe565b604051602081830303815290604052805190602001209050919050565b5f5f5f7f000000000000000000000000000000000000000000000000000000000000000073ffffffffffffffffffffffffffffffffffffffff1630604051602401611f719190612575565b6040516020818303038152906040527f70a08231000000000000000000000000000000000000000000000000000000007bffffffffffffffffffffffffffffffffffffffffffffffffffffffff19166020820180517bffffffffffffffffffffffffffffffffffffffffffffffffffffffff8381831617835250505050604051611ffb9190613920565b5f604051808303815f865af19150503d805f8114612034576040519150601f19603f3d011682016040523d82523d5f602084013e612039565b606091505b50915091508161204d575f92505050612196565b5f8180602001905181019061206291906136d4565b905084811015612077575f9350505050612196565b5f7f000000000000000000000000000000000000000000000000000000000000000073ffffffffffffffffffffffffffffffffffffffff1687876040516024016120c29291906138bf565b6040516020818303038152906040527fa9059cbb000000000000000000000000000000000000000000000000000000007bffffffffffffffffffffffffffffffffffffffffffffffffffffffff19166020820180517bffffffffffffffffffffffffffffffffffffffffffffffffffffffff838183161783525050505060405161214c9190613920565b5f604051808303815f865af19150503d805f8114612185576040519150601f19603f3d011682016040523d82523d5f602084013e61218a565b606091505b50509050809450505050505b92915050565b5f81156121ad576103b690506121eb565b60148313156121c05761038490506121eb565b600a8313156121d35761035290506121eb565b5f8313156121e55761032090506121eb565b6102bc90505b92915050565b6040518060e001604052805f81526020015f73ffffffffffffffffffffffffffffffffffffffff1681526020015f81526020015f81526020015f151581526020015f151581526020015f151581525090565b50805461224f906130f5565b5f825580601f10612260575061227d565b601f0160209004905f5260205f209081019061227c9190612326565b5b50565b50805461228c906130f5565b5f825580601f1061229d57506122ba565b601f0160209004905f5260205f20908101906122b99190612326565b5b50565b60405180608001604052805f81526020015f81526020015f151581526020015f151581525090565b6040518060e001604052805f81526020015f62ffffff1681526020015f15158152602001606081526020015f8152602001606081526020015f151581525090565b5b8082111561233d575f815f905550600101612327565b5090565b5f5ffd5b5f5ffd5b5f819050919050565b61235b81612349565b8114612365575f5ffd5b50565b5f8135905061237681612352565b92915050565b5f6020828403121561239157612390612341565b5b5f61239e84828501612368565b91505092915050565b6123b081612349565b82525050565b5f73ffffffffffffffffffffffffffffffffffffffff82169050919050565b5f6123df826123b6565b9050919050565b6123ef816123d5565b82525050565b5f819050919050565b612407816123f5565b82525050565b5f8115159050919050565b6124218161240d565b82525050565b60e082015f82015161243b5f8501826123a7565b50602082015161244e60208501826123e6565b50604082015161246160408501826123fe565b50606082015161247460608501826123fe565b5060808201516124876080850182612418565b5060a082015161249a60a0850182612418565b5060c08201516124ad60c0850182612418565b50505050565b5f60e0820190506124c65f830184612427565b92915050565b6124d581612349565b82525050565b6124e4816123d5565b82525050565b6124f3816123f5565b82525050565b6125028161240d565b82525050565b5f60e08201905061251b5f83018a6124cc565b61252860208301896124db565b61253560408301886124ea565b61254260608301876124ea565b61254f60808301866124f9565b61255c60a08301856124f9565b61256960c08301846124f9565b98975050505050505050565b5f6020820190506125885f8301846124db565b92915050565b5f62ffffff82169050919050565b6125a58161258e565b81146125af575f5ffd5b50565b5f813590506125c08161259c565b92915050565b6125cf8161240d565b81146125d9575f5ffd5b50565b5f813590506125ea816125c6565b92915050565b5f5ffd5b5f5ffd5b5f5ffd5b5f5f83601f840112612611576126106125f0565b5b8235905067ffffffffffffffff81111561262e5761262d6125f4565b5b60208301915083600182028301111561264a576126496125f8565b5b9250929050565b61265a816123f5565b8114612664575f5ffd5b50565b5f8135905061267581612651565b92915050565b5f5f83601f8401126126905761268f6125f0565b5b8235905067ffffffffffffffff8111156126ad576126ac6125f4565b5b6020830191508360018202830111156126c9576126c86125f8565b5b9250929050565b5f5f5f5f5f5f5f5f60c0898b0312156126ec576126eb612341565b5b5f6126f98b828c01612368565b985050602061270a8b828c016125b2565b975050604061271b8b828c016125dc565b965050606089013567ffffffffffffffff81111561273c5761273b612345565b5b6127488b828c016125fc565b9550955050608061275b8b828c01612667565b93505060a089013567ffffffffffffffff81111561277c5761277b612345565b5b6127888b828c0161267b565b92509250509295985092959890939650565b6127a3816123d5565b81146127ad575f5ffd5b50565b5f813590506127be8161279a565b92915050565b5f5ffd5b5f60a082840312156127dd576127dc6127c4565b5b81905092915050565b5f606082840312156127fb576127fa6127c4565b5b81905092915050565b5f60408284031215612819576128186127c4565b5b81905092915050565b5f5f5f5f5f5f610180878903121561283d5761283c612341565b5b5f61284a89828a016127b0565b965050602061285b89828a016127c8565b95505060c061286c89828a016127e6565b94505061012061287e89828a01612804565b93505061016087013567ffffffffffffffff8111156128a05761289f612345565b5b6128ac89828a0161267b565b92509250509295509295509295565b5f7fffffffff0000000000000000000000000000000000000000000000000000000082169050919050565b6128ef816128bb565b82525050565b5f81600f0b9050919050565b61290a816128f5565b82525050565b5f6040820190506129235f8301856128e6565b6129306020830184612901565b9392505050565b5f819050919050565b61294981612937565b82525050565b608082015f8201516129635f8501826123a7565b5060208201516129766020850182612940565b5060408201516129896040850182612418565b50606082015161299c6060850182612418565b50505050565b5f6080820190506129b55f83018461294f565b92915050565b6129c48161258e565b82525050565b5f81519050919050565b5f82825260208201905092915050565b8281835e5f83830152505050565b5f601f19601f8301169050919050565b5f612a0c826129ca565b612a1681856129d4565b9350612a268185602086016129e4565b612a2f816129f2565b840191505092915050565b5f81519050919050565b5f82825260208201905092915050565b5f612a5e82612a3a565b612a688185612a44565b9350612a788185602086016129e4565b612a81816129f2565b840191505092915050565b5f60e082019050612a9f5f83018a6124cc565b612aac60208301896129bb565b612ab960408301886124f9565b8181036060830152612acb8187612a02565b9050612ada60808301866124ea565b81810360a0830152612aec8185612a54565b9050612afb60c08301846124f9565b98975050505050505050565b5f5f5f5f5f5f5f60e0888a031215612b2257612b21612341565b5b5f612b2f8a828b01612368565b9750506020612b408a828b01612368565b9650506040612b518a828b016127b0565b9550506060612b628a828b01612667565b9450506080612b738a828b01612667565b93505060a0612b848a828b016125dc565b92505060c0612b958a828b016125dc565b91505092959891949750929550565b5f602082019050612bb75f8301846124ea565b92915050565b612bc681612937565b82525050565b5f608082019050612bdf5f8301876124cc565b612bec6020830186612bbd565b612bf960408301856124f9565b612c0660608301846124f9565b95945050505050565b5f60208284031215612c2457612c23612341565b5b5f612c3184828501612667565b91505092915050565b612c438161258e565b82525050565b5f82825260208201905092915050565b5f612c63826129ca565b612c6d8185612c49565b9350612c7d8185602086016129e4565b612c86816129f2565b840191505092915050565b5f82825260208201905092915050565b5f612cab82612a3a565b612cb58185612c91565b9350612cc58185602086016129e4565b612cce816129f2565b840191505092915050565b5f60e083015f830151612cee5f8601826123a7565b506020830151612d016020860182612c3a565b506040830151612d146040860182612418565b5060608301518482036060860152612d2c8282612c59565b9150506080830151612d4160808601826123fe565b5060a083015184820360a0860152612d598282612ca1565b91505060c0830151612d6e60c0860182612418565b508091505092915050565b5f6020820190508181035f830152612d918184612cd9565b905092915050565b5f5f5f5f5f6101408688031215612db357612db2612341565b5b5f612dc0888289016127b0565b9550506020612dd1888289016127c8565b94505060c0612de2888289016127e6565b93505061012086013567ffffffffffffffff811115612e0457612e03612345565b5b612e108882890161267b565b92509250509295509295909350565b5f606082019050612e325f8301866128e6565b612e3f6020830185612bbd565b612e4c60408301846129bb565b949350505050565b7f4e487b71000000000000000000000000000000000000000000000000000000005f52601160045260245ffd5b5f612e8b826123f5565b9150612e96836123f5565b9250828201905080821115612eae57612ead612e54565b5b92915050565b5f819050919050565b612ece612ec982612349565b612eb4565b82525050565b5f8160e81b9050919050565b5f612eea82612ed4565b9050919050565b612f02612efd8261258e565b612ee0565b82525050565b5f8160f81b9050919050565b5f612f1e82612f08565b9050919050565b5f612f2f82612f14565b9050919050565b612f47612f428261240d565b612f25565b82525050565b5f819050919050565b612f67612f62826123f5565b612f4d565b82525050565b5f612f788287612ebd565b602082019150612f888286612ef1565b600382019150612f988285612f36565b600182019150612fa88284612f56565b60208201915081905095945050505050565b5f81905092915050565b7f19457468657265756d205369676e6564204d6573736167653a0a3332000000005f82015250565b5f612ff8601c83612fba565b915061300382612fc4565b601c82019050919050565b5f61301882612fec565b91506130248284612ebd565b60208201915081905092915050565b7f426164207369676e6174757265000000000000000000000000000000000000005f82015250565b5f613067600d836129d4565b915061307282613033565b602082019050919050565b5f6020820190508181035f8301526130948161305b565b9050919050565b7f4e487b71000000000000000000000000000000000000000000000000000000005f52604160045260245ffd5b7f4e487b71000000000000000000000000000000000000000000000000000000005f52602260045260245ffd5b5f600282049050600182168061310c57607f821691505b60208210810361311f5761311e6130c8565b5b50919050565b5f819050815f5260205f209050919050565b5f6020601f8301049050919050565b5f82821b905092915050565b5f600883026131817fffffffffffffffffffffffffffffffffffffffffffffffffffffffffffffffff82613146565b61318b8683613146565b95508019841693508086168417925050509392505050565b5f819050919050565b5f6131c66131c16131bc846123f5565b6131a3565b6123f5565b9050919050565b5f819050919050565b6131df836131ac565b6131f36131eb826131cd565b848454613152565b825550505050565b5f5f905090565b61320a6131fb565b6132158184846131d6565b505050565b5b818110156132385761322d5f82613202565b60018101905061321b565b5050565b601f82111561327d5761324e81613125565b61325784613137565b81016020851015613266578190505b61327a61327285613137565b83018261321a565b50505b505050565b5f82821c905092915050565b5f61329d5f1984600802613282565b1980831691505092915050565b5f6132b5838361328e565b9150826002028217905092915050565b6132ce826129ca565b67ffffffffffffffff8111156132e7576132e661309b565b5b6132f182546130f5565b6132fc82828561323c565b5f60209050601f83116001811461332d575f841561331b578287015190505b61332585826132aa565b86555061338c565b601f19841661333b86613125565b5f5b828110156133625784890151825560018201915060208501945060208101905061333d565b8683101561337f578489015161337b601f89168261328e565b8355505b6001600288020188555050505b505050505050565b5f819050815f5260205f209050919050565b601f8211156133e7576133b881613394565b6133c184613137565b810160208510156133d0578190505b6133e46133dc85613137565b83018261321a565b50505b505050565b6133f582612a3a565b67ffffffffffffffff81111561340e5761340d61309b565b5b61341882546130f5565b6134238282856133a6565b5f60209050601f831160018114613454575f8415613442578287015190505b61344c85826132aa565b8655506134b3565b601f19841661346286613394565b5f5b8281101561348957848901518255600182019150602085019450602081019050613464565b868310156134a657848901516134a2601f89168261328e565b8355505b6001600288020188555050505b505050505050565b5f6040820190506134ce5f8301856124f9565b6134db60208301846129bb565b9392505050565b5f6134ec826123f5565b91506134f7836123f5565b925082820390508181111561350f5761350e612e54565b5b92915050565b5f61351f82612937565b91507f8000000000000000000000000000000000000000000000000000000000000000820361355157613550612e54565b5b815f039050919050565b5f613565826123f5565b9150613570836123f5565b925082820261357e816123f5565b9150828204841483151761359557613594612e54565b5b5092915050565b7f4e487b71000000000000000000000000000000000000000000000000000000005f52601260045260245ffd5b5f6135d3826123f5565b91506135de836123f5565b9250826135ee576135ed61359c565b5b828204905092915050565b7f4167656e7453776170206a6f62200000000000000000000000000000000000005f82015250565b5f61362d600e83612fba565b9150613638826135f9565b600e82019050919050565b5f61364d82613621565b91506136598284612ebd565b60208201915081905092915050565b5f60a08201905061367b5f8301886124db565b61368860208301876124db565b61369560408301866124ea565b81810360608301526136a78185612a02565b90506136b660808301846124db565b9695505050505050565b5f815190506136ce81612651565b92915050565b5f602082840312156136e9576136e8612341565b5b5f6136f6848285016136c0565b91505092915050565b5f6040820190506137125f8301856124cc565b61371f60208301846124ea565b9392505050565b5f6137318285612ebd565b6020820191506137418284612f56565b6020820191508190509392505050565b7f737761705f636f6d706c6574696f6e00000000000000000000000000000000005f82015250565b5f613785600f836129d4565b915061379082613751565b602082019050919050565b5f6080820190506137ae5f8301866124cc565b6137bb60208301856124cc565b6137c860408301846124ea565b81810360608301526137d981613779565b9050949350505050565b5f6060820190506137f65f8301866124cc565b61380360208301856124ea565b61381060408301846124ea565b949350505050565b7f4e6f74206f776e657200000000000000000000000000000000000000000000005f82015250565b5f61384c6009836129d4565b915061385782613818565b602082019050919050565b5f6020820190508181035f83015261387981613840565b9050919050565b5f8151905061388e8161279a565b92915050565b5f602082840312156138a9576138a8612341565b5b5f6138b684828501613880565b91505092915050565b5f6040820190506138d25f8301856124db565b6138df60208301846124ea565b9392505050565b5f81905092915050565b5f6138fa82612a3a565b61390481856138e6565b93506139148185602086016129e4565b80840191505092915050565b5f61392b82846138f0565b915081905092915050565b7f5769746864726177206661696c656400000000000000000000000000000000005f82015250565b5f61396a600f836129d4565b915061397582613936565b602082019050919050565b5f6020820190508181035f8301526139978161395e565b9050919050565b5f6020820190506139b15f8301846124cc565b92915050565b5f5f5f606084860312156139ce576139cd612341565b5b5f6139db868287016136c0565b93505060206139ec868287016136c0565b92505060406139fd868287016136c0565b9150509250925092565b5f604082019050613a1a5f8301856124ea565b613a2760208301846124ea565b9392505050565b5f60208284031215613a4357613a42612341565b5b5f613a50848285016125b2565b91505092915050565b5f8154613a65816130f5565b613a6f81866129d4565b9450600182165f8114613a895760018114613a9f57613ad1565b60ff198316865281151560200286019350613ad1565b613aa885613125565b5f5b83811015613ac957815481890152600182019150602081019050613aaa565b808801955050505b50505092915050565b5f604082019050613aed5f8301856124cc565b8181036020830152613aff8184613a59565b90509392505050565b5f6020820190508181035f830152613b208184613a59565b905092915050565b5f606082019050613b3b5f8301866124db565b613b4860208301856124db565b613b5560408301846124ea565b949350505050565b7f55534443207472616e73666572206661696c65640000000000000000000000005f82015250565b5f613b916014836129d4565b9150613b9c82613b5d565b602082019050919050565b5f6020820190508181035f830152613bbe81613b85565b9050919050565b5f60ff82169050919050565b613bda81613bc5565b82525050565b5f608082019050613bf35f8301876124cc565b613c006020830186613bd1565b613c0d60408301856124cc565b613c1a60608301846124cc565b95945050505050565b5f60208284031215613c3857613c37612341565b5b5f613c45848285016127b0565b91505092915050565b5f8160020b9050919050565b613c6381613c4e565b8114613c6d575f5ffd5b50565b5f81359050613c7e81613c5a565b92915050565b5f60208284031215613c9957613c98612341565b5b5f613ca684828501613c70565b91505092915050565b613cb881613c4e565b82525050565b5f608082019050613cd15f8301876124db565b613cde60208301866124db565b613ceb60408301856129bb565b613cf86060830184613caf565b9594505050505056fea264697066735822122093b61d064d2438033d7c047655c863de5c730217adc30b5054cea0f22a53c7b864736f6c634300081c0033","linkReferences":{}},"methodIdentifiers":{"AGENT_FEE_FLOOR()":"ed034082","MAX_BPS()":"fd967f47","afterSwap(address,((address),(address),uint24,int24,address),(bool,int256,uint160),(int128,int128),bytes)":"49e86b6b","agenticCommerce()":"c1d36920","beforeSwap(address,((address),(address),uint24,int24,address),(bool,int256,uint160),bytes)":"f567d7cf","configurePool(bytes32,bytes32,address,uint256,uint256,bool,bool)":"9966d44a","depositUSDC(uint256)":"f688bcfb","getPendingIntent(bytes32)":"f0681218","getPoolConfig(bytes32)":"037aadbe","getSwapOutcome(bytes32)":"626bc16c","identityRegistry()":"134e18f4","owner()":"8da5cb5b","pendingIntents(bytes32)":"7a6517c3","poolConfigs(bytes32)":"07ef2190","poolManager()":"dc4c90d3","registerIntent(bytes32,uint24,bool,string,uint256,bytes)":"22460e9d","reputationRegistry()":"c8db44e3","swapBaseFees(bytes32)":"99b4273e","swapOutcomes(bytes32)":"b141b243","usdc()":"3e413bee","withdrawUSDC(uint256)":"db81f99b"},"id":0}