{"abi":[{"type":"constructor","inputs":[{"name":"_poolManager","type":"address","internalType":"address"},{"name":"_identityRegistry","type":"address","internalType":"address"},{"name":"_reputationRegistry","type":"address","internalType":"address"},{"name":"_usdc","type":"address","internalType":"address"},{"name":"_agenticCommerce","type":"address","internalType":"address"}],"stateMutability":"nonpayable"},{"type":"function","name":"AGENT_FEE_FLOOR","inputs":[],"outputs":[{"name":"","type":"uint256","internalType":"uint256"}],"stateMutability":"view"},{"type":"function","name":"MAX_BPS","inputs":[],"outputs":[{"name":"","type":"uint256","internalType":"uint256"}],"stateMutability":"view"},{"type":"function","name":"afterSwap","inputs":[{"name":"","type":"address","internalType":"address"},{"name":"key","type":"tuple","internalType":"struct PoolKey","components":[{"name":"currency0","type":"tuple","internalType":"struct Currency","components":[{"name":"token","type":"address","internalType":"address"}]},{"name":"currency1","type":"tuple","internalType":"struct Currency","components":[{"name":"token","type":"address","internalType":"address"}]},{"name":"fee","type":"uint24","internalType":"uint24"},{"name":"tickSpacing","type":"int24","internalType":"int24"},{"name":"hooks","type":"address","internalType":"address"}]},{"name":"params","type":"tuple","internalType":"struct IPoolManager.SwapParams","components":[{"name":"zeroForOne","type":"bool","internalType":"bool"},{"name":"amountSpecified","type":"int256","internalType":"int256"},{"name":"sqrtPriceLimitX96","type":"uint160","internalType":"uint160"}]},{"name":"","type":"tuple","internalType":"struct BalanceDelta","components":[{"name":"amount0","type":"int128","internalType":"int128"},{"name":"amount1","type":"int128","internalType":"int128"}]},{"name":"hookData","type":"bytes","internalType":"bytes"}],"outputs":[{"name":"","type":"bytes4","internalType":"bytes4"},{"name":"","type":"int128","internalType":"int128"}],"stateMutability":"nonpayable"},{"type":"function","name":"agenticCommerce","inputs":[],"outputs":[{"name":"","type":"address","internalType":"address"}],"stateMutability":"view"},{"type":"function","name":"beforeSwap","inputs":[{"name":"","type":"address","internalType":"address"},{"name":"key","type":"tuple","internalType":"struct PoolKey","components":[{"name":"currency0","type":"tuple","internalType":"struct Currency","components":[{"name":"token","type":"address","internalType":"address"}]},{"name":"currency1","type":"tuple","internalType":"struct Currency","components":[{"name":"token","type":"address","internalType":"address"}]},{"name":"fee","type":"uint24","internalType":"uint24"},{"name":"tickSpacing","type":"int24","internalType":"int24"},{"name":"hooks","type":"address","internalType":"address"}]},{"name":"","type":"tuple","internalType":"struct IPoolManager.SwapParams","components":[{"name":"zeroForOne","type":"bool","internalType":"bool"},{"name":"amountSpecified","type":"int256","internalType":"int256"},{"name":"sqrtPriceLimitX96","type":"uint160","internalType":"uint160"}]},{"name":"hookData","type":"bytes","internalType":"bytes"}],"outputs":[{"name":"","type":"bytes4","internalType":"bytes4"},{"name":"","type":"int256","internalType":"int256"},{"name":"","type":"uint24","internalType":"uint24"}],"stateMutability":"nonpayable"},{"type":"function","name":"configurePool","inputs":[{"name":"poolId","type":"bytes32","internalType":"bytes32"},{"name":"agentId","type":"bytes32","internalType":"bytes32"},{"name":"agentWallet","type":"address","internalType":"address"},{"name":"minRepScore","type":"uint256","internalType":"uint256"},{"name":"agentFeeBps","type":"uint256","internalType":"uint256"},{"name":"mevProtection","type":"bool","internalType":"bool"},{"name":"dynamicFee","type":"bool","internalType":"bool"}],"outputs":[],"stateMutability":"nonpayable"},{"type":"function","name":"depositUSDC","inputs":[{"name":"amount","type":"uint256","internalType":"uint256"}],"outputs":[],"stateMutability":"nonpayable"},{"type":"function","name":"getPendingIntent","inputs":[{"name":"swapId","type":"bytes32","internalType":"bytes32"}],"outputs":[{"name":"","type":"tuple","internalType":"struct AgentSwapHook.AgentIntent","components":[{"name":"swapId","type":"bytes32","internalType":"bytes32"},{"name":"feeOverrideBps","type":"uint24","internalType":"uint24"},{"name":"mevFlag","type":"bool","internalType":"bool"},{"name":"mevEvidence","type":"string","internalType":"string"},{"name":"timestamp","type":"uint256","internalType":"uint256"},{"name":"signature","type":"bytes","internalType":"bytes"},{"name":"exists","type":"bool","internalType":"bool"}]}],"stateMutability":"view"},{"type":"function","name":"getPoolConfig","inputs":[{"name":"poolId","type":"bytes32","internalType":"bytes32"}],"outputs":[{"name":"","type":"tuple","internalType":"struct AgentSwapHook.PoolConfig","components":[{"name":"assignedAgentId","type":"bytes32","internalType":"bytes32"},{"name":"agentWallet","type":"address","internalType":"address"},{"name":"minRepScore","type":"uint256","internalType":"uint256"},{"name":"agentFeeBps","type":"uint256","internalType":"uint256"},{"name":"mevProtectionEnabled","type":"bool","internalType":"bool"},{"name":"dynamicFeeEnabled","type":"bool","internalType":"bool"},{"name":"active","type":"bool","internalType":"bool"}]}],"stateMutability":"view"},{"type":"function","name":"getSwapOutcome","inputs":[{"name":"swapId","type":"bytes32","internalType":"bytes32"}],"outputs":[{"name":"","type":"tuple","internalType":"struct AgentSwapHook.SwapOutcome","components":[{"name":"agentId","type":"bytes32","internalType":"bytes32"},{"name":"slippageSavedBps","type":"int256","internalType":"int256"},{"name":"mevBlocked","type":"bool","internalType":"bool"},{"name":"settled","type":"bool","internalType":"bool"}]}],"stateMutability":"view"},{"type":"function","name":"identityRegistry","inputs":[],"outputs":[{"name":"","type":"address","internalType":"address"}],"stateMutability":"view"},{"type":"function","name":"owner","inputs":[],"outputs":[{"name":"","type":"address","internalType":"address"}],"stateMutability":"view"},{"type":"function","name":"pendingIntents","inputs":[{"name":"","type":"bytes32","internalType":"bytes32"}],"outputs":[{"name":"swapId","type":"bytes32","internalType":"bytes32"},{"name":"feeOverrideBps","type":"uint24","internalType":"uint24"},{"name":"mevFlag","type":"bool","internalType":"bool"},{"name":"mevEvidence","type":"string","internalType":"string"},{"name":"timestamp","type":"uint256","internalType":"uint256"},{"name":"signature","type":"bytes","internalType":"bytes"},{"name":"exists","type":"bool","internalType":"bool"}],"stateMutability":"view"},{"type":"function","name":"poolConfigs","inputs":[{"name":"","type":"bytes32","internalType":"bytes32"}],"outputs":[{"name":"assignedAgentId","type":"bytes32","internalType":"bytes32"},{"name":"agentWallet","type":"address","internalType":"address"},{"name":"minRepScore","type":"uint256","internalType":"uint256"},{"name":"agentFeeBps","type":"uint256","internalType":"uint256"},{"name":"mevProtectionEnabled","type":"bool","internalType":"bool"},{"name":"dynamicFeeEnabled","type":"bool","internalType":"bool"},{"name":"active","type":"bool","internalType":"bool"}],"stateMutability":"view"},{"type":"function","name":"poolManager","inputs":[],"outputs":[{"name":"","type":"address","internalType":"address"}],"stateMutability":"view"},{"type":"function","name":"registerIntent","inputs":[{"name":"swapId","type":"bytes32","internalType":"bytes32"},{"name":"feeOverrideBps","type":"uint24","internalType":"uint24"},{"name":"mevFlag","type":"bool","internalType":"bool"},{"name":"mevEvidence","type":"string","internalType":"string"},{"name":"intentTimestamp","type":"uint256","internalType":"uint256"},{"name":"sig","type":"bytes","internalType":"bytes"}],"outputs":[],"stateMutability":"nonpayable"},{"type":"function","name":"reputationRegistry","inputs":[],"outputs":[{"name":"","type":"address","internalType":"address"}],"stateMutability":"view"},{"type":"function","name":"swapBaseFees","inputs":[{"name":"","type":"bytes32","internalType":"bytes32"}],"outputs":[{"name":"","type":"uint256","internalType":"uint256"}],"stateMutability":"view"},{"type":"function","name":"swapOutcomes","inputs":[{"name":"","type":"bytes32","internalType":"bytes32"}],"outputs":[{"name":"agentId","type":"bytes32","internalType":"bytes32"},{"name":"slippageSavedBps","type":"int256","internalType":"int256"},{"name":"mevBlocked","type":"bool","internalType":"bool"},{"name":"settled","type":"bool","internalType":"bool"}],"stateMutability":"view"},{"type":"function","name":"usdc","inputs":[],"outputs":[{"name":"","type":"address","internalType":"address"}],"stateMutability":"view"},{"type":"function","name":"withdrawUSDC","inputs":[{"name":"amount","type":"uint256","internalType":"uint256"}],"outputs":[],"stateMutability":"nonpayable"},{"type":"event","name":"AgentSettled","inputs":[{"name":"swapId","type":"bytes32","indexed":true,"internalType":"bytes32"},{"name":"agentId","type":"bytes32","indexed":false,"internalType":"bytes32"},{"name":"usdcPaid","type":"uint256","indexed":false,"internalType":"uint256"},{"name":"perfScore","type":"uint256","indexed":false,"internalType":"uint256"}],"anonymous":false},{"type":"event","name":"IntentRegistered","inputs":[{"name":"swapId","type":"bytes32","indexed":true,"internalType":"bytes32"},{"name":"mevFlag","type":"bool","indexed":false,"internalType":"bool"},{"name":"feeOverride","type":"uint24","indexed":false,"internalType":"uint24"}],"anonymous":false},{"type":"event","name":"MEVBlocked","inputs":[{"name":"swapId","type":"bytes32","indexed":true,"internalType":"bytes32"},{"name":"agentId","type":"bytes32","indexed":false,"internalType":"bytes32"},{"name":"evidence","type":"string","indexed":false,"internalType":"string"}],"anonymous":false},{"type":"event","name":"PoolConfigured","inputs":[{"name":"poolId","type":"bytes32","indexed":true,"internalType":"bytes32"},{"name":"agentId","type":"bytes32","indexed":false,"internalType":"bytes32"},{"name":"minRepScore","type":"uint256","indexed":false,"internalType":"uint256"}],"anonymous":false},{"type":"event","name":"SwapIntercepted","inputs":[{"name":"swapId","type":"bytes32","indexed":true,"internalType":"bytes32"},{"name":"mevBlocked","type":"bool","indexed":false,"internalType":"bool"},{"name":"feeApplied","type":"uint24","indexed":false,"internalType":"uint24"}],"anonymous":false},{"type":"error","name":"AgentNotActive","inputs":[]},{"type":"error","name":"InsufficientReputation","inputs":[{"name":"required","type":"uint256","internalType":"uint256"},{"name":"actual","type":"uint256","internalType":"uint256"}]},{"type":"error","name":"IntentExpired","inputs":[]},{"type":"error","name":"MEVDetected","inputs":[{"name":"evidence","type":"string","internalType":"string"}]},{"type":"error","name":"NotPoolManager","inputs":[]},{"type":"error","name":"PoolNotConfigured","inputs":[]},{"type":"error","name":"SwapAlreadyProcessed","inputs":[]}],"bytecode":{"object":"0x610120604052348015610010575f5ffd5b50604051613dbe380380613dbe833981810160405281019061003291906101de565b8473ffffffffffffffffffffffffffffffffffffffff1660808173ffffffffffffffffffffffffffffffffffffffff16815250508373ffffffffffffffffffffffffffffffffffffffff1660a08173ffffffffffffffffffffffffffffffffffffffff16815250508273ffffffffffffffffffffffffffffffffffffffff1660c08173ffffffffffffffffffffffffffffffffffffffff16815250508173ffffffffffffffffffffffffffffffffffffffff166101008173ffffffffffffffffffffffffffffffffffffffff16815250508073ffffffffffffffffffffffffffffffffffffffff1660e08173ffffffffffffffffffffffffffffffffffffffff1681525050335f5f6101000a81548173ffffffffffffffffffffffffffffffffffffffff021916908373ffffffffffffffffffffffffffffffffffffffff1602179055505050505050610255565b5f5ffd5b5f73ffffffffffffffffffffffffffffffffffffffff82169050919050565b5f6101ad82610184565b9050919050565b6101bd816101a3565b81146101c7575f5ffd5b50565b5f815190506101d8816101b4565b92915050565b5f5f5f5f5f60a086880312156101f7576101f6610180565b5b5f610204888289016101ca565b9550506020610215888289016101ca565b9450506040610226888289016101ca565b9350506060610237888289016101ca565b9250506080610248888289016101ca565b9150509295509295909350565b60805160a05160c05160e05161010051613aed6102d15f395f81816109090152818161138501528181611b3f01528181611da80152611ef701525f6112ae01525f8181610bc5015281816112d201526117e101525f81816105cd0152610fea01525f818161092f015281816114ff01526116e10152613aed5ff3fe608060405234801561000f575f5ffd5b5060043610610135575f3560e01c806399b4273e116100b6578063dc4c90d31161007a578063dc4c90d314610383578063ed034082146103a1578063f0681218146103bf578063f567d7cf146103ef578063f688bcfb14610421578063fd967f471461043d57610135565b806399b4273e146102c8578063b141b243146102f8578063c1d369201461032b578063c8db44e314610349578063db81f99b1461036757610135565b806349e86b6b116100fd57806349e86b6b146101f7578063626bc16c146102285780637a6517c3146102585780638da5cb5b1461028e5780639966d44a146102ac57610135565b8063037aadbe1461013957806307ef219014610169578063134e18f41461019f57806322460e9d146101bd5780633e413bee146101d9575b5f5ffd5b610153600480360381019061014e91906121f9565b61045b565b6040516101609190612330565b60405180910390f35b610183600480360381019061017e91906121f9565b610548565b6040516101969796959493929190612385565b60405180910390f35b6101a76105cb565b6040516101b491906123f2565b60405180910390f35b6101d760048036038101906101d2919061254d565b6105ef565b005b6101e1610907565b6040516101ee91906123f2565b60405180910390f35b610211600480360381019061020c919061269f565b61092b565b60405161021f92919061278d565b60405180910390f35b610242600480360381019061023d91906121f9565b610d51565b60405161024f919061281f565b60405180910390f35b610272600480360381019061026d91906121f9565b610dc4565b6040516102859796959493929190612909565b60405180910390f35b610296610f35565b6040516102a391906123f2565b60405180910390f35b6102c660048036038101906102c19190612984565b610f59565b005b6102e260048036038101906102dd91906121f9565b611252565b6040516102ef9190612a21565b60405180910390f35b610312600480360381019061030d91906121f9565b611267565b6040516103229493929190612a49565b60405180910390f35b6103336112ac565b60405161034091906123f2565b60405180910390f35b6103516112d0565b60405161035e91906123f2565b60405180910390f35b610381600480360381019061037c9190612a8c565b6112f4565b005b61038b6114fd565b60405161039891906123f2565b60405180910390f35b6103a9611521565b6040516103b69190612a21565b60405180910390f35b6103d960048036038101906103d491906121f9565b611527565b6040516103e69190612bf6565b60405180910390f35b61040960048036038101906104049190612c16565b6116dc565b60405161041893929190612c9c565b60405180910390f35b61043b60048036038101906104369190612a8c565b611b3c565b005b610445611c99565b6040516104529190612a21565b60405180910390f35b61046361206e565b60015f8381526020019081526020015f206040518060e00160405290815f8201548152602001600182015f9054906101000a900473ffffffffffffffffffffffffffffffffffffffff1673ffffffffffffffffffffffffffffffffffffffff1673ffffffffffffffffffffffffffffffffffffffff1681526020016002820154815260200160038201548152602001600482015f9054906101000a900460ff161515151581526020016004820160019054906101000a900460ff161515151581526020016004820160029054906101000a900460ff1615151515815250509050919050565b6001602052805f5260405f205f91509050805f015490806001015f9054906101000a900473ffffffffffffffffffffffffffffffffffffffff1690806002015490806003015490806004015f9054906101000a900460ff16908060040160019054906101000a900460ff16908060040160029054906101000a900460ff16905087565b7f000000000000000000000000000000000000000000000000000000000000000081565b603c836105fc9190612cfe565b421115610635576040517f408b223400000000000000000000000000000000000000000000000000000000815260040160405180910390fd5b5f8888888660405160200161064d9493929190612dea565b604051602081830303815290604052805190602001206040516020016106739190612e8b565b6040516020818303038152906040528051906020012090505f6106d98285858080601f0160208091040260200160405190810160405280939291908181526020018383808284375f81840152601f19601f82011690508083019250505050505050611c9f565b90505f73ffffffffffffffffffffffffffffffffffffffff168173ffffffffffffffffffffffffffffffffffffffff1603610749576040517f08c379a000000000000000000000000000000000000000000000000000000000815260040161074090612efa565b60405180910390fd5b6040518060e001604052808b81526020018a62ffffff168152602001891515815260200188888080601f0160208091040260200160405190810160405280939291908181526020018383808284375f81840152601f19601f82011690508083019250505050505050815260200186815260200185858080601f0160208091040260200160405190810160405280939291908181526020018383808284375f81840152601f19601f8201169050808301925050505050505081526020016001151581525060025f8c81526020019081526020015f205f820151815f01556020820151816001015f6101000a81548162ffffff021916908362ffffff16021790555060408201518160010160036101000a81548160ff021916908315150217905550606082015181600201908161087e9190613142565b506080820151816003015560a082015181600401908161089e9190613269565b5060c0820151816005015f6101000a81548160ff021916908315150217905550905050897fe26cadcd809bd704d364d38c96c911adeda2056286f49dcad54d739d7222f56a898b6040516108f3929190613338565b60405180910390a250505050505050505050565b7f000000000000000000000000000000000000000000000000000000000000000081565b5f5f7f000000000000000000000000000000000000000000000000000000000000000073ffffffffffffffffffffffffffffffffffffffff163373ffffffffffffffffffffffffffffffffffffffff16146109b2576040517fae18210a00000000000000000000000000000000000000000000000000000000815260040160405180910390fd5b5f84848101906109c291906121f9565b90505f6109ce89611d23565b90505f60015f8381526020019081526020015f2090505f60045f8581526020019081526020015f2090508060020160019054906101000a900460ff1615610a41576040517f112f1d5c00000000000000000000000000000000000000000000000000000000815260040160405180910390fd5b5f60025f8681526020019081526020015f209050806005015f9054906101000a900460ff168015610a8857505f816001015f9054906101000a900462ffffff1662ffffff16115b15610aef575f60035f8781526020019081526020015f20549050816001015f9054906101000a900462ffffff1662ffffff16811115610aed57816001015f9054906101000a900462ffffff1662ffffff1681610ae4919061335f565b83600101819055505b505b5f5f8c6020013512610b05578b60200135610b14565b8b60200135610b1390613392565b5b90505f612710856003015483610b2a91906133d8565b610b349190613446565b90506103e8811015610b46576103e890505b5f610b74866001015f9054906101000a900473ffffffffffffffffffffffffffffffffffffffff1683611da3565b90505f610b958660010154876002015f9054906101000a900460ff16612019565b90505f8942604051602001610bab929190613476565b6040516020818303038152906040528051906020012090507f000000000000000000000000000000000000000000000000000000000000000073ffffffffffffffffffffffffffffffffffffffff1663da41b499895f015483856040518463ffffffff1660e01b8152600401610c23939291906134eb565b5f604051808303815f87803b158015610c3a575f5ffd5b505af1925050508015610c4b575060015b5060018760020160016101000a81548160ff02191690831515021790555060025f8b81526020019081526020015f205f5f82015f9055600182015f6101000a81549062ffffff02191690556001820160036101000a81549060ff0219169055600282015f610cb991906120c0565b600382015f9055600482015f610ccf91906120fd565b600582015f6101000a81549060ff02191690555050897f1d0ef098ee09612fae40ddc4025acd05aa50531a5bb6cc9f5bef38e7599c06ea895f015485610d15575f610d17565b865b85604051610d2793929190613533565b60405180910390a26349e86b6b60e01b5f9b509b5050505050505050505050965096945050505050565b610d5961213a565b60045f8381526020019081526020015f206040518060800160405290815f820154815260200160018201548152602001600282015f9054906101000a900460ff161515151581526020016002820160019054906101000a900460ff1615151515815250509050919050565b6002602052805f5260405f205f91509050805f015490806001015f9054906101000a900462ffffff16908060010160039054906101000a900460ff1690806002018054610e1090612f72565b80601f0160208091040260200160405190810160405280929190818152602001828054610e3c90612f72565b8015610e875780601f10610e5e57610100808354040283529160200191610e87565b820191905f5260205f20905b815481529060010190602001808311610e6a57829003601f168201915b505050505090806003015490806004018054610ea290612f72565b80601f0160208091040260200160405190810160405280929190818152602001828054610ece90612f72565b8015610f195780601f10610ef057610100808354040283529160200191610f19565b820191905f5260205f20905b815481529060010190602001808311610efc57829003601f168201915b505050505090806005015f9054906101000a900460ff16905087565b5f5f9054906101000a900473ffffffffffffffffffffffffffffffffffffffff1681565b5f5f9054906101000a900473ffffffffffffffffffffffffffffffffffffffff1673ffffffffffffffffffffffffffffffffffffffff163373ffffffffffffffffffffffffffffffffffffffff1614610fe7576040517f08c379a0000000000000000000000000000000000000000000000000000000008152600401610fde906135b2565b60405180910390fd5b5f7f000000000000000000000000000000000000000000000000000000000000000073ffffffffffffffffffffffffffffffffffffffff16636352211e885f1c6040518263ffffffff1660e01b81526004016110439190612a21565b602060405180830381865afa15801561105e573d5f5f3e3d5ffd5b505050506040513d601f19601f8201168201806040525081019061108291906135e4565b90508573ffffffffffffffffffffffffffffffffffffffff168173ffffffffffffffffffffffffffffffffffffffff16146110e9576040517f486fcee200000000000000000000000000000000000000000000000000000000815260040160405180910390fd5b6040518060e001604052808881526020018773ffffffffffffffffffffffffffffffffffffffff168152602001868152602001858152602001841515815260200183151581526020016001151581525060015f8a81526020019081526020015f205f820151815f01556020820151816001015f6101000a81548173ffffffffffffffffffffffffffffffffffffffff021916908373ffffffffffffffffffffffffffffffffffffffff16021790555060408201518160020155606082015181600301556080820151816004015f6101000a81548160ff02191690831515021790555060a08201518160040160016101000a81548160ff02191690831515021790555060c08201518160040160026101000a81548160ff021916908315150217905550905050877f3584d4758876c8e875ec0fa3ab49a588c5e959ef74c17d14392bcfb8e217c453888760405161124092919061360f565b60405180910390a25050505050505050565b6003602052805f5260405f205f915090505481565b6004602052805f5260405f205f91509050805f015490806001015490806002015f9054906101000a900460ff16908060020160019054906101000a900460ff16905084565b7f000000000000000000000000000000000000000000000000000000000000000081565b7f000000000000000000000000000000000000000000000000000000000000000081565b5f5f9054906101000a900473ffffffffffffffffffffffffffffffffffffffff1673ffffffffffffffffffffffffffffffffffffffff163373ffffffffffffffffffffffffffffffffffffffff1614611382576040517f08c379a0000000000000000000000000000000000000000000000000000000008152600401611379906135b2565b60405180910390fd5b5f7f000000000000000000000000000000000000000000000000000000000000000073ffffffffffffffffffffffffffffffffffffffff165f5f9054906101000a900473ffffffffffffffffffffffffffffffffffffffff16836040516024016113ed929190613636565b6040516020818303038152906040527fa9059cbb000000000000000000000000000000000000000000000000000000007bffffffffffffffffffffffffffffffffffffffffffffffffffffffff19166020820180517bffffffffffffffffffffffffffffffffffffffffffffffffffffffff83818316178352505050506040516114779190613697565b5f604051808303815f865af19150503d805f81146114b0576040519150601f19603f3d011682016040523d82523d5f602084013e6114b5565b606091505b50509050806114f9576040517f08c379a00000000000000000000000000000000000000000000000000000000081526004016114f0906136f7565b60405180910390fd5b5050565b7f000000000000000000000000000000000000000000000000000000000000000081565b6103e881565b61152f612162565b60025f8381526020019081526020015f206040518060e00160405290815f8201548152602001600182015f9054906101000a900462ffffff1662ffffff1662ffffff1681526020016001820160039054906101000a900460ff161515151581526020016002820180546115a190612f72565b80601f01602080910402602001604051908101604052809291908181526020018280546115cd90612f72565b80156116185780601f106115ef57610100808354040283529160200191611618565b820191905f5260205f20905b8154815290600101906020018083116115fb57829003601f168201915b505050505081526020016003820154815260200160048201805461163b90612f72565b80601f016020809104026020016040519081016040528092919081815260200182805461166790612f72565b80156116b25780601f10611689576101008083540402835291602001916116b2565b820191905f5260205f20905b81548152906001019060200180831161169557829003601f168201915b50505050508152602001600582015f9054906101000a900460ff1615151515815250509050919050565b5f5f5f7f000000000000000000000000000000000000000000000000000000000000000073ffffffffffffffffffffffffffffffffffffffff163373ffffffffffffffffffffffffffffffffffffffff1614611764576040517fae18210a00000000000000000000000000000000000000000000000000000000815260040160405180910390fd5b5f858581019061177491906121f9565b90505f61178089611d23565b90505f60015f8381526020019081526020015f2090508060040160029054906101000a900460ff166117de576040517fd64e375e00000000000000000000000000000000000000000000000000000000815260040160405180910390fd5b5f7f000000000000000000000000000000000000000000000000000000000000000073ffffffffffffffffffffffffffffffffffffffff16637ba53285835f01546040518263ffffffff1660e01b815260040161183b9190613715565b606060405180830381865afa158015611856573d5f5f3e3d5ffd5b505050506040513d601f19601f8201168201806040525081019061187a9190613742565b5050905081600201548110156118cd578160020154816040517fcb5fc4260000000000000000000000000000000000000000000000000000000081526004016118c4929190613792565b60405180910390fd5b8a60400160208101906118e091906137b9565b62ffffff1660035f8681526020019081526020015f20819055506040518060800160405280835f015481526020015f81526020015f151581526020015f151581525060045f8681526020019081526020015f205f820151815f0155602082015181600101556040820151816002015f6101000a81548160ff02191690831515021790555060608201518160020160016101000a81548160ff0219169083151502179055509050505f60025f8681526020019081526020015f2090505f5f9050816005015f9054906101000a900460ff1615611ae1578160010160039054906101000a900460ff1680156119e05750836004015f9054906101000a900460ff165b15611a9157857f2d27d6398e468d606e10c6ffe9f231d37c8246289ddc79aaa041405d755c0498855f015484600201604051611a1d929190613865565b60405180910390a2600160045f8881526020019081526020015f206002015f6101000a81548160ff021916908315150217905550816002016040517f3f5a20ef000000000000000000000000000000000000000000000000000000008152600401611a889190613893565b60405180910390fd5b5f826001015f9054906101000a900462ffffff1662ffffff16118015611ac557508360040160019054906101000a900460ff165b15611ae057816001015f9054906101000a900462ffffff1690505b5b857f9f505fa95437c3eebc50b53a1dea99f963b361060104633910e0399542fc98df5f83604051611b13929190613338565b60405180910390a263f567d7cf60e01b5f82985098509850505050505050955095509592505050565b5f7f000000000000000000000000000000000000000000000000000000000000000073ffffffffffffffffffffffffffffffffffffffff16333084604051602401611b89939291906138b3565b6040516020818303038152906040527f23b872dd000000000000000000000000000000000000000000000000000000007bffffffffffffffffffffffffffffffffffffffffffffffffffffffff19166020820180517bffffffffffffffffffffffffffffffffffffffffffffffffffffffff8381831617835250505050604051611c139190613697565b5f604051808303815f865af19150503d805f8114611c4c576040519150601f19603f3d011682016040523d82523d5f602084013e611c51565b606091505b5050905080611c95576040517f08c379a0000000000000000000000000000000000000000000000000000000008152600401611c8c90613932565b60405180910390fd5b5050565b61271081565b5f6041825114611cb1575f9050611d1d565b5f5f5f602085015192506040850151915060608501515f1a90506001868285856040515f8152602001604052604051611ced949392919061396b565b6020604051602081039080840390855afa158015611d0d573d5f5f3e3d5ffd5b5050506020604051035193505050505b92915050565b5f815f015f016020810190611d3891906139ae565b826020015f016020810190611d4d91906139ae565b836040016020810190611d6091906137b9565b846060016020810190611d739190613a0f565b604051602001611d869493929190613a49565b604051602081830303815290604052805190602001209050919050565b5f5f5f7f000000000000000000000000000000000000000000000000000000000000000073ffffffffffffffffffffffffffffffffffffffff1630604051602401611dee91906123f2565b6040516020818303038152906040527f70a08231000000000000000000000000000000000000000000000000000000007bffffffffffffffffffffffffffffffffffffffffffffffffffffffff19166020820180517bffffffffffffffffffffffffffffffffffffffffffffffffffffffff8381831617835250505050604051611e789190613697565b5f604051808303815f865af19150503d805f8114611eb1576040519150601f19603f3d011682016040523d82523d5f602084013e611eb6565b606091505b509150915081611eca575f92505050612013565b5f81806020019051810190611edf9190613a8c565b905084811015611ef4575f9350505050612013565b5f7f000000000000000000000000000000000000000000000000000000000000000073ffffffffffffffffffffffffffffffffffffffff168787604051602401611f3f929190613636565b6040516020818303038152906040527fa9059cbb000000000000000000000000000000000000000000000000000000007bffffffffffffffffffffffffffffffffffffffffffffffffffffffff19166020820180517bffffffffffffffffffffffffffffffffffffffffffffffffffffffff8381831617835250505050604051611fc99190613697565b5f604051808303815f865af19150503d805f8114612002576040519150601f19603f3d011682016040523d82523d5f602084013e612007565b606091505b50509050809450505050505b92915050565b5f811561202a576103b69050612068565b601483131561203d576103849050612068565b600a831315612050576103529050612068565b5f831315612062576103209050612068565b6102bc90505b92915050565b6040518060e001604052805f81526020015f73ffffffffffffffffffffffffffffffffffffffff1681526020015f81526020015f81526020015f151581526020015f151581526020015f151581525090565b5080546120cc90612f72565b5f825580601f106120dd57506120fa565b601f0160209004905f5260205f20908101906120f991906121a3565b5b50565b50805461210990612f72565b5f825580601f1061211a5750612137565b601f0160209004905f5260205f209081019061213691906121a3565b5b50565b60405180608001604052805f81526020015f81526020015f151581526020015f151581525090565b6040518060e001604052805f81526020015f62ffffff1681526020015f15158152602001606081526020015f8152602001606081526020015f151581525090565b5b808211156121ba575f815f9055506001016121a4565b5090565b5f5ffd5b5f5ffd5b5f819050919050565b6121d8816121c6565b81146121e2575f5ffd5b50565b5f813590506121f3816121cf565b92915050565b5f6020828403121561220e5761220d6121be565b5b5f61221b848285016121e5565b91505092915050565b61222d816121c6565b82525050565b5f73ffffffffffffffffffffffffffffffffffffffff82169050919050565b5f61225c82612233565b9050919050565b61226c81612252565b82525050565b5f819050919050565b61228481612272565b82525050565b5f8115159050919050565b61229e8161228a565b82525050565b60e082015f8201516122b85f850182612224565b5060208201516122cb6020850182612263565b5060408201516122de604085018261227b565b5060608201516122f1606085018261227b565b5060808201516123046080850182612295565b5060a082015161231760a0850182612295565b5060c082015161232a60c0850182612295565b50505050565b5f60e0820190506123435f8301846122a4565b92915050565b612352816121c6565b82525050565b61236181612252565b82525050565b61237081612272565b82525050565b61237f8161228a565b82525050565b5f60e0820190506123985f83018a612349565b6123a56020830189612358565b6123b26040830188612367565b6123bf6060830187612367565b6123cc6080830186612376565b6123d960a0830185612376565b6123e660c0830184612376565b98975050505050505050565b5f6020820190506124055f830184612358565b92915050565b5f62ffffff82169050919050565b6124228161240b565b811461242c575f5ffd5b50565b5f8135905061243d81612419565b92915050565b61244c8161228a565b8114612456575f5ffd5b50565b5f8135905061246781612443565b92915050565b5f5ffd5b5f5ffd5b5f5ffd5b5f5f83601f84011261248e5761248d61246d565b5b8235905067ffffffffffffffff8111156124ab576124aa612471565b5b6020830191508360018202830111156124c7576124c6612475565b5b9250929050565b6124d781612272565b81146124e1575f5ffd5b50565b5f813590506124f2816124ce565b92915050565b5f5f83601f84011261250d5761250c61246d565b5b8235905067ffffffffffffffff81111561252a57612529612471565b5b60208301915083600182028301111561254657612545612475565b5b9250929050565b5f5f5f5f5f5f5f5f60c0898b031215612569576125686121be565b5b5f6125768b828c016121e5565b98505060206125878b828c0161242f565b97505060406125988b828c01612459565b965050606089013567ffffffffffffffff8111156125b9576125b86121c2565b5b6125c58b828c01612479565b955095505060806125d88b828c016124e4565b93505060a089013567ffffffffffffffff8111156125f9576125f86121c2565b5b6126058b828c016124f8565b92509250509295985092959890939650565b61262081612252565b811461262a575f5ffd5b50565b5f8135905061263b81612617565b92915050565b5f5ffd5b5f60a0828403121561265a57612659612641565b5b81905092915050565b5f6060828403121561267857612677612641565b5b81905092915050565b5f6040828403121561269657612695612641565b5b81905092915050565b5f5f5f5f5f5f61018087890312156126ba576126b96121be565b5b5f6126c789828a0161262d565b96505060206126d889828a01612645565b95505060c06126e989828a01612663565b9450506101206126fb89828a01612681565b93505061016087013567ffffffffffffffff81111561271d5761271c6121c2565b5b61272989828a016124f8565b92509250509295509295509295565b5f7fffffffff0000000000000000000000000000000000000000000000000000000082169050919050565b61276c81612738565b82525050565b5f81600f0b9050919050565b61278781612772565b82525050565b5f6040820190506127a05f830185612763565b6127ad602083018461277e565b9392505050565b5f819050919050565b6127c6816127b4565b82525050565b608082015f8201516127e05f850182612224565b5060208201516127f360208501826127bd565b5060408201516128066040850182612295565b5060608201516128196060850182612295565b50505050565b5f6080820190506128325f8301846127cc565b92915050565b6128418161240b565b82525050565b5f81519050919050565b5f82825260208201905092915050565b8281835e5f83830152505050565b5f601f19601f8301169050919050565b5f61288982612847565b6128938185612851565b93506128a3818560208601612861565b6128ac8161286f565b840191505092915050565b5f81519050919050565b5f82825260208201905092915050565b5f6128db826128b7565b6128e581856128c1565b93506128f5818560208601612861565b6128fe8161286f565b840191505092915050565b5f60e08201905061291c5f83018a612349565b6129296020830189612838565b6129366040830188612376565b8181036060830152612948818761287f565b90506129576080830186612367565b81810360a083015261296981856128d1565b905061297860c0830184612376565b98975050505050505050565b5f5f5f5f5f5f5f60e0888a03121561299f5761299e6121be565b5b5f6129ac8a828b016121e5565b97505060206129bd8a828b016121e5565b96505060406129ce8a828b0161262d565b95505060606129df8a828b016124e4565b94505060806129f08a828b016124e4565b93505060a0612a018a828b01612459565b92505060c0612a128a828b01612459565b91505092959891949750929550565b5f602082019050612a345f830184612367565b92915050565b612a43816127b4565b82525050565b5f608082019050612a5c5f830187612349565b612a696020830186612a3a565b612a766040830185612376565b612a836060830184612376565b95945050505050565b5f60208284031215612aa157612aa06121be565b5b5f612aae848285016124e4565b91505092915050565b612ac08161240b565b82525050565b5f82825260208201905092915050565b5f612ae082612847565b612aea8185612ac6565b9350612afa818560208601612861565b612b038161286f565b840191505092915050565b5f82825260208201905092915050565b5f612b28826128b7565b612b328185612b0e565b9350612b42818560208601612861565b612b4b8161286f565b840191505092915050565b5f60e083015f830151612b6b5f860182612224565b506020830151612b7e6020860182612ab7565b506040830151612b916040860182612295565b5060608301518482036060860152612ba98282612ad6565b9150506080830151612bbe608086018261227b565b5060a083015184820360a0860152612bd68282612b1e565b91505060c0830151612beb60c0860182612295565b508091505092915050565b5f6020820190508181035f830152612c0e8184612b56565b905092915050565b5f5f5f5f5f6101408688031215612c3057612c2f6121be565b5b5f612c3d8882890161262d565b9550506020612c4e88828901612645565b94505060c0612c5f88828901612663565b93505061012086013567ffffffffffffffff811115612c8157612c806121c2565b5b612c8d888289016124f8565b92509250509295509295909350565b5f606082019050612caf5f830186612763565b612cbc6020830185612a3a565b612cc96040830184612838565b949350505050565b7f4e487b71000000000000000000000000000000000000000000000000000000005f52601160045260245ffd5b5f612d0882612272565b9150612d1383612272565b9250828201905080821115612d2b57612d2a612cd1565b5b92915050565b5f819050919050565b612d4b612d46826121c6565b612d31565b82525050565b5f8160e81b9050919050565b5f612d6782612d51565b9050919050565b612d7f612d7a8261240b565b612d5d565b82525050565b5f8160f81b9050919050565b5f612d9b82612d85565b9050919050565b5f612dac82612d91565b9050919050565b612dc4612dbf8261228a565b612da2565b82525050565b5f819050919050565b612de4612ddf82612272565b612dca565b82525050565b5f612df58287612d3a565b602082019150612e058286612d6e565b600382019150612e158285612db3565b600182019150612e258284612dd3565b60208201915081905095945050505050565b5f81905092915050565b7f19457468657265756d205369676e6564204d6573736167653a0a3332000000005f82015250565b5f612e75601c83612e37565b9150612e8082612e41565b601c82019050919050565b5f612e9582612e69565b9150612ea18284612d3a565b60208201915081905092915050565b7f426164207369676e6174757265000000000000000000000000000000000000005f82015250565b5f612ee4600d83612851565b9150612eef82612eb0565b602082019050919050565b5f6020820190508181035f830152612f1181612ed8565b9050919050565b7f4e487b71000000000000000000000000000000000000000000000000000000005f52604160045260245ffd5b7f4e487b71000000000000000000000000000000000000000000000000000000005f52602260045260245ffd5b5f6002820490506001821680612f8957607f821691505b602082108103612f9c57612f9b612f45565b5b50919050565b5f819050815f5260205f209050919050565b5f6020601f8301049050919050565b5f82821b905092915050565b5f60088302612ffe7fffffffffffffffffffffffffffffffffffffffffffffffffffffffffffffffff82612fc3565b6130088683612fc3565b95508019841693508086168417925050509392505050565b5f819050919050565b5f61304361303e61303984612272565b613020565b612272565b9050919050565b5f819050919050565b61305c83613029565b6130706130688261304a565b848454612fcf565b825550505050565b5f5f905090565b613087613078565b613092818484613053565b505050565b5b818110156130b5576130aa5f8261307f565b600181019050613098565b5050565b601f8211156130fa576130cb81612fa2565b6130d484612fb4565b810160208510156130e3578190505b6130f76130ef85612fb4565b830182613097565b50505b505050565b5f82821c905092915050565b5f61311a5f19846008026130ff565b1980831691505092915050565b5f613132838361310b565b9150826002028217905092915050565b61314b82612847565b67ffffffffffffffff81111561316457613163612f18565b5b61316e8254612f72565b6131798282856130b9565b5f60209050601f8311600181146131aa575f8415613198578287015190505b6131a28582613127565b865550613209565b601f1984166131b886612fa2565b5f5b828110156131df578489015182556001820191506020850194506020810190506131ba565b868310156131fc57848901516131f8601f89168261310b565b8355505b6001600288020188555050505b505050505050565b5f819050815f5260205f209050919050565b601f8211156132645761323581613211565b61323e84612fb4565b8101602085101561324d578190505b61326161325985612fb4565b830182613097565b50505b505050565b613272826128b7565b67ffffffffffffffff81111561328b5761328a612f18565b5b6132958254612f72565b6132a0828285613223565b5f60209050601f8311600181146132d1575f84156132bf578287015190505b6132c98582613127565b865550613330565b601f1984166132df86613211565b5f5b82811015613306578489015182556001820191506020850194506020810190506132e1565b86831015613323578489015161331f601f89168261310b565b8355505b6001600288020188555050505b505050505050565b5f60408201905061334b5f830185612376565b6133586020830184612838565b9392505050565b5f61336982612272565b915061337483612272565b925082820390508181111561338c5761338b612cd1565b5b92915050565b5f61339c826127b4565b91507f800000000000000000000000000000000000000000000000000000000000000082036133ce576133cd612cd1565b5b815f039050919050565b5f6133e282612272565b91506133ed83612272565b92508282026133fb81612272565b9150828204841483151761341257613411612cd1565b5b5092915050565b7f4e487b71000000000000000000000000000000000000000000000000000000005f52601260045260245ffd5b5f61345082612272565b915061345b83612272565b92508261346b5761346a613419565b5b828204905092915050565b5f6134818285612d3a565b6020820191506134918284612dd3565b6020820191508190509392505050565b7f737761705f636f6d706c6574696f6e00000000000000000000000000000000005f82015250565b5f6134d5600f83612851565b91506134e0826134a1565b602082019050919050565b5f6080820190506134fe5f830186612349565b61350b6020830185612349565b6135186040830184612367565b8181036060830152613529816134c9565b9050949350505050565b5f6060820190506135465f830186612349565b6135536020830185612367565b6135606040830184612367565b949350505050565b7f4e6f74206f776e657200000000000000000000000000000000000000000000005f82015250565b5f61359c600983612851565b91506135a782613568565b602082019050919050565b5f6020820190508181035f8301526135c981613590565b9050919050565b5f815190506135de81612617565b92915050565b5f602082840312156135f9576135f86121be565b5b5f613606848285016135d0565b91505092915050565b5f6040820190506136225f830185612349565b61362f6020830184612367565b9392505050565b5f6040820190506136495f830185612358565b6136566020830184612367565b9392505050565b5f81905092915050565b5f613671826128b7565b61367b818561365d565b935061368b818560208601612861565b80840191505092915050565b5f6136a28284613667565b915081905092915050565b7f5769746864726177206661696c656400000000000000000000000000000000005f82015250565b5f6136e1600f83612851565b91506136ec826136ad565b602082019050919050565b5f6020820190508181035f83015261370e816136d5565b9050919050565b5f6020820190506137285f830184612349565b92915050565b5f8151905061373c816124ce565b92915050565b5f5f5f60608486031215613759576137586121be565b5b5f6137668682870161372e565b93505060206137778682870161372e565b92505060406137888682870161372e565b9150509250925092565b5f6040820190506137a55f830185612367565b6137b26020830184612367565b9392505050565b5f602082840312156137ce576137cd6121be565b5b5f6137db8482850161242f565b91505092915050565b5f81546137f081612f72565b6137fa8186612851565b9450600182165f8114613814576001811461382a5761385c565b60ff19831686528115156020028601935061385c565b61383385612fa2565b5f5b8381101561385457815481890152600182019150602081019050613835565b808801955050505b50505092915050565b5f6040820190506138785f830185612349565b818103602083015261388a81846137e4565b90509392505050565b5f6020820190508181035f8301526138ab81846137e4565b905092915050565b5f6060820190506138c65f830186612358565b6138d36020830185612358565b6138e06040830184612367565b949350505050565b7f55534443207472616e73666572206661696c65640000000000000000000000005f82015250565b5f61391c601483612851565b9150613927826138e8565b602082019050919050565b5f6020820190508181035f83015261394981613910565b9050919050565b5f60ff82169050919050565b61396581613950565b82525050565b5f60808201905061397e5f830187612349565b61398b602083018661395c565b6139986040830185612349565b6139a56060830184612349565b95945050505050565b5f602082840312156139c3576139c26121be565b5b5f6139d08482850161262d565b91505092915050565b5f8160020b9050919050565b6139ee816139d9565b81146139f8575f5ffd5b50565b5f81359050613a09816139e5565b92915050565b5f60208284031215613a2457613a236121be565b5b5f613a31848285016139fb565b91505092915050565b613a43816139d9565b82525050565b5f608082019050613a5c5f830187612358565b613a696020830186612358565b613a766040830185612838565b613a836060830184613a3a565b95945050505050565b5f60208284031215613aa157613aa06121be565b5b5f613aae8482850161372e565b9150509291505056fea26469706673582212201e87752ded02df9cf3004635dca5a16083531c9206296730379ca9ef5995eb7c64736f6c634300081c0033","linkReferences":{}},"methodIdentifiers":{"AGENT_FEE_FLOOR()":"ed034082","MAX_BPS()":"fd967f47","afterSwap(address,((address),(address),uint24,int24,address),(bool,int256,uint160),(int128,int128),bytes)":"49e86b6b","agenticCommerce()":"c1d36920","beforeSwap(address,((address),(address),uint24,int24,address),(bool,int256,uint160),bytes)":"f567d7cf","configurePool(bytes32,bytes32,address,uint256,uint256,bool,bool)":"9966d44a","depositUSDC(uint256)":"f688bcfb","getPendingIntent(bytes32)":"f0681218","getPoolConfig(bytes32)":"037aadbe","getSwapOutcome(bytes32)":"626bc16c","identityRegistry()":"134e18f4","owner()":"8da5cb5b","pendingIntents(bytes32)":"7a6517c3","poolConfigs(bytes32)":"07ef2190","poolManager()":"dc4c90d3","registerIntent(bytes32,uint24,bool,string,uint256,bytes)":"22460e9d","reputationRegistry()":"c8db44e3","swapBaseFees(bytes32)":"99b4273e","swapOutcomes(bytes32)":"b141b243","usdc()":"3e413bee","withdrawUSDC(uint256)":"db81f99b"},"id":0}