{"abi":[{"type":"constructor","inputs":[{"name":"initialOwner","type":"address","internalType":"address"}],"stateMutability":"nonpayable"},{"type":"function","name":"allowance","inputs":[{"name":"owner","type":"address","internalType":"address"},{"name":"spender","type":"address","internalType":"address"},{"name":"id","type":"uint256","internalType":"uint256"}],"outputs":[{"name":"amount","type":"uint256","internalType":"uint256"}],"stateMutability":"view"},{"type":"function","name":"approve","inputs":[{"name":"spender","type":"address","internalType":"address"},{"name":"id","type":"uint256","internalType":"uint256"},{"name":"amount","type":"uint256","internalType":"uint256"}],"outputs":[{"name":"","type":"bool","internalType":"bool"}],"stateMutability":"nonpayable"},{"type":"function","name":"balanceOf","inputs":[{"name":"owner","type":"address","internalType":"address"},{"name":"id","type":"uint256","internalType":"uint256"}],"outputs":[{"name":"balance","type":"uint256","internalType":"uint256"}],"stateMutability":"view"},{"type":"function","name":"burn","inputs":[{"name":"from","type":"address","internalType":"address"},{"name":"id","type":"uint256","internalType":"uint256"},{"name":"amount","type":"uint256","internalType":"uint256"}],"outputs":[],"stateMutability":"nonpayable"},{"type":"function","name":"clear","inputs":[{"name":"currency","type":"address","internalType":"Currency"},{"name":"amount","type":"uint256","internalType":"uint256"}],"outputs":[],"stateMutability":"nonpayable"},{"type":"function","name":"collectProtocolFees","inputs":[{"name":"recipient","type":"address","internalType":"address"},{"name":"currency","type":"address","internalType":"Currency"},{"name":"amount","type":"uint256","internalType":"uint256"}],"outputs":[{"name":"amountCollected","type":"uint256","internalType":"uint256"}],"stateMutability":"nonpayable"},{"type":"function","name":"donate","inputs":[{"name":"key","type":"tuple","internalType":"struct PoolKey","components":[{"name":"currency0","type":"address","internalType":"Currency"},{"name":"currency1","type":"address","internalType":"Currency"},{"name":"fee","type":"uint24","internalType":"uint24"},{"name":"tickSpacing","type":"int24","internalType":"int24"},{"name":"hooks","type":"address","internalType":"contract IHooks"}]},{"name":"amount0","type":"uint256","internalType":"uint256"},{"name":"amount1","type":"uint256","internalType":"uint256"},{"name":"hookData","type":"bytes","internalType":"bytes"}],"outputs":[{"name":"delta","type":"int256","internalType":"BalanceDelta"}],"stateMutability":"nonpayable"},{"type":"function","name":"extsload","inputs":[{"name":"slot","type":"bytes32","internalType":"bytes32"}],"outputs":[{"name":"","type":"bytes32","internalType":"bytes32"}],"stateMutability":"view"},{"type":"function","name":"extsload","inputs":[{"name":"startSlot","type":"bytes32","internalType":"bytes32"},{"name":"nSlots","type":"uint256","internalType":"uint256"}],"outputs":[{"name":"","type":"bytes32[]","internalType":"bytes32[]"}],"stateMutability":"view"},{"type":"function","name":"extsload","inputs":[{"name":"slots","type":"bytes32[]","internalType":"bytes32[]"}],"outputs":[{"name":"","type":"bytes32[]","internalType":"bytes32[]"}],"stateMutability":"view"},{"type":"function","name":"exttload","inputs":[{"name":"slots","type":"bytes32[]","internalType":"bytes32[]"}],"outputs":[{"name":"","type":"bytes32[]","internalType":"bytes32[]"}],"stateMutability":"view"},{"type":"function","name":"exttload","inputs":[{"name":"slot","type":"bytes32","internalType":"bytes32"}],"outputs":[{"name":"","type":"bytes32","internalType":"bytes32"}],"stateMutability":"view"},{"type":"function","name":"initialize","inputs":[{"name":"key","type":"tuple","internalType":"struct PoolKey","components":[{"name":"currency0","type":"address","internalType":"Currency"},{"name":"currency1","type":"address","internalType":"Currency"},{"name":"fee","type":"uint24","internalType":"uint24"},{"name":"tickSpacing","type":"int24","internalType":"int24"},{"name":"hooks","type":"address","internalType":"contract IHooks"}]},{"name":"sqrtPriceX96","type":"uint160","internalType":"uint160"}],"outputs":[{"name":"tick","type":"int24","internalType":"int24"}],"stateMutability":"nonpayable"},{"type":"function","name":"isOperator","inputs":[{"name":"owner","type":"address","internalType":"address"},{"name":"operator","type":"address","internalType":"address"}],"outputs":[{"name":"isOperator","type":"bool","internalType":"bool"}],"stateMutability":"view"},{"type":"function","name":"mint","inputs":[{"name":"to","type":"address","internalType":"address"},{"name":"id","type":"uint256","internalType":"uint256"},{"name":"amount","type":"uint256","internalType":"uint256"}],"outputs":[],"stateMutability":"nonpayable"},{"type":"function","name":"modifyLiquidity","inputs":[{"name":"key","type":"tuple","internalType":"struct PoolKey","components":[{"name":"currency0","type":"address","internalType":"Currency"},{"name":"currency1","type":"address","internalType":"Currency"},{"name":"fee","type":"uint24","internalType":"uint24"},{"name":"tickSpacing","type":"int24","internalType":"int24"},{"name":"hooks","type":"address","internalType":"contract IHooks"}]},{"name":"params","type":"tuple","internalType":"struct ModifyLiquidityParams","components":[{"name":"tickLower","type":"int24","internalType":"int24"},{"name":"tickUpper","type":"int24","internalType":"int24"},{"name":"liquidityDelta","type":"int256","internalType":"int256"},{"name":"salt","type":"bytes32","internalType":"bytes32"}]},{"name":"hookData","type":"bytes","internalType":"bytes"}],"outputs":[{"name":"callerDelta","type":"int256","internalType":"BalanceDelta"},{"name":"feesAccrued","type":"int256","internalType":"BalanceDelta"}],"stateMutability":"nonpayable"},{"type":"function","name":"owner","inputs":[],"outputs":[{"name":"","type":"address","internalType":"address"}],"stateMutability":"view"},{"type":"function","name":"protocolFeeController","inputs":[],"outputs":[{"name":"","type":"address","internalType":"address"}],"stateMutability":"view"},{"type":"function","name":"protocolFeesAccrued","inputs":[{"name":"currency","type":"address","internalType":"Currency"}],"outputs":[{"name":"amount","type":"uint256","internalType":"uint256"}],"stateMutability":"view"},{"type":"function","name":"setOperator","inputs":[{"name":"operator","type":"address","internalType":"address"},{"name":"approved","type":"bool","internalType":"bool"}],"outputs":[{"name":"","type":"bool","internalType":"bool"}],"stateMutability":"nonpayable"},{"type":"function","name":"setProtocolFee","inputs":[{"name":"key","type":"tuple","internalType":"struct PoolKey","components":[{"name":"currency0","type":"address","internalType":"Currency"},{"name":"currency1","type":"address","internalType":"Currency"},{"name":"fee","type":"uint24","internalType":"uint24"},{"name":"tickSpacing","type":"int24","internalType":"int24"},{"name":"hooks","type":"address","internalType":"contract IHooks"}]},{"name":"newProtocolFee","type":"uint24","internalType":"uint24"}],"outputs":[],"stateMutability":"nonpayable"},{"type":"function","name":"setProtocolFeeController","inputs":[{"name":"controller","type":"address","internalType":"address"}],"outputs":[],"stateMutability":"nonpayable"},{"type":"function","name":"settle","inputs":[],"outputs":[{"name":"","type":"uint256","internalType":"uint256"}],"stateMutability":"payable"},{"type":"function","name":"settleFor","inputs":[{"name":"recipient","type":"address","internalType":"address"}],"outputs":[{"name":"","type":"uint256","internalType":"uint256"}],"stateMutability":"payable"},{"type":"function","name":"supportsInterface","inputs":[{"name":"interfaceId","type":"bytes4","internalType":"bytes4"}],"outputs":[{"name":"","type":"bool","internalType":"bool"}],"stateMutability":"view"},{"type":"function","name":"swap","inputs":[{"name":"key","type":"tuple","internalType":"struct PoolKey","components":[{"name":"currency0","type":"address","internalType":"Currency"},{"name":"currency1","type":"address","internalType":"Currency"},{"name":"fee","type":"uint24","internalType":"uint24"},{"name":"tickSpacing","type":"int24","internalType":"int24"},{"name":"hooks","type":"address","internalType":"contract IHooks"}]},{"name":"params","type":"tuple","internalType":"struct SwapParams","components":[{"name":"zeroForOne","type":"bool","internalType":"bool"},{"name":"amountSpecified","type":"int256","internalType":"int256"},{"name":"sqrtPriceLimitX96","type":"uint160","internalType":"uint160"}]},{"name":"hookData","type":"bytes","internalType":"bytes"}],"outputs":[{"name":"swapDelta","type":"int256","internalType":"BalanceDelta"}],"stateMutability":"nonpayable"},{"type":"function","name":"sync","inputs":[{"name":"currency","type":"address","internalType":"Currency"}],"outputs":[],"stateMutability":"nonpayable"},{"type":"function","name":"take","inputs":[{"name":"currency","type":"address","internalType":"Currency"},{"name":"to","type":"address","internalType":"address"},{"name":"amount","type":"uint256","internalType":"uint256"}],"outputs":[],"stateMutability":"nonpayable"},{"type":"function","name":"transfer","inputs":[{"name":"receiver","type":"address","internalType":"address"},{"name":"id","type":"uint256","internalType":"uint256"},{"name":"amount","type":"uint256","internalType":"uint256"}],"outputs":[{"name":"","type":"bool","internalType":"bool"}],"stateMutability":"nonpayable"},{"type":"function","name":"transferFrom","inputs":[{"name":"sender","type":"address","internalType":"address"},{"name":"receiver","type":"address","internalType":"address"},{"name":"id","type":"uint256","internalType":"uint256"},{"name":"amount","type":"uint256","internalType":"uint256"}],"outputs":[{"name":"","type":"bool","internalType":"bool"}],"stateMutability":"nonpayable"},{"type":"function","name":"transferOwnership","inputs":[{"name":"newOwner","type":"address","internalType":"address"}],"outputs":[],"stateMutability":"nonpayable"},{"type":"function","name":"unlock","inputs":[{"name":"data","type":"bytes","internalType":"bytes"}],"outputs":[{"name":"result","type":"bytes","internalType":"bytes"}],"stateMutability":"nonpayable"},{"type":"function","name":"updateDynamicLPFee","inputs":[{"name":"key","type":"tuple","internalType":"struct PoolKey","components":[{"name":"currency0","type":"address","internalType":"Currency"},{"name":"currency1","type":"address","internalType":"Currency"},{"name":"fee","type":"uint24","internalType":"uint24"},{"name":"tickSpacing","type":"int24","internalType":"int24"},{"name":"hooks","type":"address","internalType":"contract IHooks"}]},{"name":"newDynamicLPFee","type":"uint24","internalType":"uint24"}],"outputs":[],"stateMutability":"nonpayable"},{"type":"event","name":"Approval","inputs":[{"name":"owner","type":"address","indexed":true,"internalType":"address"},{"name":"spender","type":"address","indexed":true,"internalType":"address"},{"name":"id","type":"uint256","indexed":true,"internalType":"uint256"},{"name":"amount","type":"uint256","indexed":false,"internalType":"uint256"}],"anonymous":false},{"type":"event","name":"Donate","inputs":[{"name":"id","type":"bytes32","indexed":true,"internalType":"PoolId"},{"name":"sender","type":"address","indexed":true,"internalType":"address"},{"name":"amount0","type":"uint256","indexed":false,"internalType":"uint256"},{"name":"amount1","type":"uint256","indexed":false,"internalType":"uint256"}],"anonymous":false},{"type":"event","name":"Initialize","inputs":[{"name":"id","type":"bytes32","indexed":true,"internalType":"PoolId"},{"name":"currency0","type":"address","indexed":true,"internalType":"Currency"},{"name":"currency1","type":"address","indexed":true,"internalType":"Currency"},{"name":"fee","type":"uint24","indexed":false,"internalType":"uint24"},{"name":"tickSpacing","type":"int24","indexed":false,"internalType":"int24"},{"name":"hooks","type":"address","indexed":false,"internalType":"contract IHooks"},{"name":"sqrtPriceX96","type":"uint160","indexed":false,"internalType":"uint160"},{"name":"tick","type":"int24","indexed":false,"internalType":"int24"}],"anonymous":false},{"type":"event","name":"ModifyLiquidity","inputs":[{"name":"id","type":"bytes32","indexed":true,"internalType":"PoolId"},{"name":"sender","type":"address","indexed":true,"internalType":"address"},{"name":"tickLower","type":"int24","indexed":false,"internalType":"int24"},{"name":"tickUpper","type":"int24","indexed":false,"internalType":"int24"},{"name":"liquidityDelta","type":"int256","indexed":false,"internalType":"int256"},{"name":"salt","type":"bytes32","indexed":false,"internalType":"bytes32"}],"anonymous":false},{"type":"event","name":"OperatorSet","inputs":[{"name":"owner","type":"address","indexed":true,"internalType":"address"},{"name":"operator","type":"address","indexed":true,"internalType":"address"},{"name":"approved","type":"bool","indexed":false,"internalType":"bool"}],"anonymous":false},{"type":"event","name":"OwnershipTransferred","inputs":[{"name":"user","type":"address","indexed":true,"internalType":"address"},{"name":"newOwner","type":"address","indexed":true,"internalType":"address"}],"anonymous":false},{"type":"event","name":"ProtocolFeeControllerUpdated","inputs":[{"name":"protocolFeeController","type":"address","indexed":true,"internalType":"address"}],"anonymous":false},{"type":"event","name":"ProtocolFeeUpdated","inputs":[{"name":"id","type":"bytes32","indexed":true,"internalType":"PoolId"},{"name":"protocolFee","type":"uint24","indexed":false,"internalType":"uint24"}],"anonymous":false},{"type":"event","name":"Swap","inputs":[{"name":"id","type":"bytes32","indexed":true,"internalType":"PoolId"},{"name":"sender","type":"address","indexed":true,"internalType":"address"},{"name":"amount0","type":"int128","indexed":false,"internalType":"int128"},{"name":"amount1","type":"int128","indexed":false,"internalType":"int128"},{"name":"sqrtPriceX96","type":"uint160","indexed":false,"internalType":"uint160"},{"name":"liquidity","type":"uint128","indexed":false,"internalType":"uint128"},{"name":"tick","type":"int24","indexed":false,"internalType":"int24"},{"name":"fee","type":"uint24","indexed":false,"internalType":"uint24"}],"anonymous":false},{"type":"event","name":"Transfer","inputs":[{"name":"caller","type":"address","indexed":false,"internalType":"address"},{"name":"from","type":"address","indexed":true,"internalType":"address"},{"name":"to","type":"address","indexed":true,"internalType":"address"},{"name":"id","type":"uint256","indexed":true,"internalType":"uint256"},{"name":"amount","type":"uint256","indexed":false,"internalType":"uint256"}],"anonymous":false},{"type":"error","name":"AlreadyUnlocked","inputs":[]},{"type":"error","name":"CurrenciesOutOfOrderOrEqual","inputs":[{"name":"currency0","type":"address","internalType":"address"},{"name":"currency1","type":"address","internalType":"address"}]},{"type":"error","name":"CurrencyNotSettled","inputs":[]},{"type":"error","name":"DelegateCallNotAllowed","inputs":[]},{"type":"error","name":"InvalidCaller","inputs":[]},{"type":"error","name":"ManagerLocked","inputs":[]},{"type":"error","name":"MustClearExactPositiveDelta","inputs":[]},{"type":"error","name":"NonzeroNativeValue","inputs":[]},{"type":"error","name":"PoolNotInitialized","inputs":[]},{"type":"error","name":"ProtocolFeeCurrencySynced","inputs":[]},{"type":"error","name":"ProtocolFeeTooLarge","inputs":[{"name":"fee","type":"uint24","internalType":"uint24"}]},{"type":"error","name":"SwapAmountCannotBeZero","inputs":[]},{"type":"error","name":"TickSpacingTooLarge","inputs":[{"name":"tickSpacing","type":"int24","internalType":"int24"}]},{"type":"error","name":"TickSpacingTooSmall","inputs":[{"name":"tickSpacing","type":"int24","internalType":"int24"}]},{"type":"error","name":"UnauthorizedDynamicLPFeeUpdate","inputs":[]}],"bytecode":{"object":"0x60a03460a057601f61519138819003918201601f19168301916001600160401b0383118484101760a45780849260209460405283398101031260a057516001600160a01b0381169081900360a0575f80546001600160a01b0319168217815560405191907f8be0079c531659141344cd1fd0a4f28419497f9722a3daafe3b4186f6b6457e08180a3306080526150d890816100b9823960805181612cd20152f35b5f80fd5b634e487b7160e01b5f52604160045260245ffdfe60a0806040526004361015610012575f80fd5b5f3560e01c908162fdd58e146126395750806301ffc9a714612598578063095bcdb6146124fb5780630b0d9c091461248d57806311da60b414612450578063156e29f6146123ad5780631e2eaeaf14612391578063234266d71461212a5780632d771389146120aa57806335fd631a146120545780633dd45adb1461200e578063426a849314611f9757806348c8949114611d665780635275965114611c79578063558a729714611bcd578063598af9e714611b6d5780635a6bcfda146110aa5780636276cbbe14610c9e5780637e87ce7d14610b8c57806380f0b44c14610ae55780638161b874146109d45780638da5cb5b146109af57806397e8cd4e146109775780639bf6645f1461092a578063a58411941461088a578063b6363cf214610831578063dbd035ff146107db578063f02de3b2146107b5578063f135baaa14610799578063f2fde38b14610718578063f3cd914c14610462578063f5298aca146102ea5763fe99049a14610186575f80fd5b346102e65760806003193601126102e65761019f612678565b6101a761268e565b90604435917f1b3d7edb2e9c0b0e7c525b20aaaef0f5940d2ed71663c7d39266ecafac72885961024e6001600160a01b038060643595169384331415806102c3575b61025c575b845f52600460205260405f20875f5260205260405f2061020f878254612860565b90551693845f52600460205260405f20865f5260205260405f2061023482825461286d565b905560408051338152602081019290925290918291820190565b0390a4602060405160018152f35b845f52600560205260405f208233165f5260205260405f20875f5260205260405f2054865f198203610290575b50506101ee565b61029991612860565b855f52600560205260405f208333165f5260205260405f20885f5260205260405f20555f86610289565b50845f52600360205260405f208233165f5260205260ff60405f205416156101e9565b5f80fd5b346102e6576102f8366126a4565b7fc090fc4683624cfc3884e9d8de5eca132f2d0ec062aff75d43c0465d5ceeab235c1561043a577f1b3d7edb2e9c0b0e7c525b20aaaef0f5940d2ed71663c7d39266ecafac7288596103966001600160a01b03805f95169561036461035c866128ff565b339089612945565b16923384141580610410575b61039b575b83855260046020526040852086865260205260408520610234828254612860565b0390a4005b8385526005602052604085206001600160a01b0333168652602052604085208686526020526040852054815f1982036103d6575b5050610375565b6103df91612860565b8486526005602052604086206001600160a01b033316875260205260408620878752602052604086205586816103cf565b508385526003602052604085206001600160a01b033316865260205260ff60408620541615610370565b7f54e3ca0d000000000000000000000000000000000000000000000000000000005f5260045ffd5b346102e6576101206003193601126102e65761047d36612757565b60607fffffffffffffffffffffffffffffffffffffffffffffffffffffffffffffff5c3601126102e657604051906104b4826126ea565b60a43580151581036102e6578252602082019060c435825260e435906001600160a01b03821682036102e657604084019182526101043567ffffffffffffffff81116102e6576105089036906004016127de565b9290937fc090fc4683624cfc3884e9d8de5eca132f2d0ec062aff75d43c0465d5ceeab235c1561043a5761053a612cc8565b51156106f05760a0822092835f52600660205260405f209061055b82612d22565b60808401958482828a8a516001600160a01b03169361057994613243565b90949195606088015160020b908b51151590516001600160a01b031691604051986105a38a612706565b895260208901526040880152606087015262ffffff166080860152885115155f149862ffffff610699986105ec6106869860209d6106dd576001600160a01b038b511695613f7b565b9492968291926106bd575b50506001600160a01b03845116938e6fffffffffffffffffffffffffffffffff60408301511691015160020b90604051958860801d600f0b875288600f0b60208801526040870152606086015260808501521660a08301527f40e9cecb9f5f1f1c5b9c97dec2917b7ee92e57ba5563708daca94dd84ad7112f60c03393a3866001600160a01b038a5116613459565b809491946106a1575b5050823391612dd7565b604051908152f35b6001600160a01b036106b69251169083612dd7565b848061068f565b6001600160a01b03165f5260018f5260405f209081540190558e806105f7565b6001600160a01b038e8c01511695613f7b565b7fbe8b8507000000000000000000000000000000000000000000000000000000005f5260045ffd5b346102e65760206003193601126102e6577fffffffffffffffffffffffff0000000000000000000000000000000000000000610752612678565b6001600160a01b035f549161076a828416331461287a565b1691829116175f55337f8be0079c531659141344cd1fd0a4f28419497f9722a3daafe3b4186f6b6457e05f80a3005b346102e65760206003193601126102e6576004355c5f5260205ff35b346102e6575f6003193601126102e65760206001600160a01b0360025416604051908152f35b346102e6576107e93661280c565b6040519160408360208152836020820152019160051b8301916020806040850193925b833554815201910190848382101561082857506020809161080c565b60408186030190f35b346102e65760406003193601126102e65761084a612678565b6001600160a01b0361085a61268e565b91165f5260036020526001600160a01b0360405f2091165f52602052602060ff60405f2054166040519015158152f35b346102e65760206003193601126102e6576108a3612678565b6001600160a01b03811690816108da5750505f7f27e098c505d44ec3574004bca052aabf76bd35004c182099d8c575fb238593b95d005b6108e39061319e565b907f27e098c505d44ec3574004bca052aabf76bd35004c182099d8c575fb238593b95d7f1e0745a7db1623981f0b2a5d4232364c00787266eb75ad546f190e6cebe9bd955d005b346102e6576109383661280c565b6040519160408360208152836020820152019160051b8301916020806040850193925b83355c815201910190848382101561082857506020809161095b565b346102e65760206003193601126102e6576001600160a01b03610998612678565b165f526001602052602060405f2054604051908152f35b346102e6575f6003193601126102e65760206001600160a01b035f5416604051908152f35b346102e65760606003193601126102e6576109ed612678565b6109f561268e565b6044356001600160a01b03600254163303610abd576001600160a01b03821680151580610a8a575b610a62576020936106999280610a5a5750815f526001855260405f20549384925b5f526001865260405f20610a53848254612860565b9055612a21565b938492610a3e565b7fc79e5948000000000000000000000000000000000000000000000000000000005f5260045ffd5b50806001600160a01b037f27e098c505d44ec3574004bca052aabf76bd35004c182099d8c575fb238593b95c1614610a1d565b7f48f5c3ed000000000000000000000000000000000000000000000000000000005f5260045ffd5b346102e65760406003193601126102e657610afe612678565b7fc090fc4683624cfc3884e9d8de5eca132f2d0ec062aff75d43c0465d5ceeab235c1561043a57335f9081526001600160a01b038216602052604090205c610b476024356128ff565b9081600f0b03610b6457610b629133915f03600f0b90612945565b005b7fbda73abf000000000000000000000000000000000000000000000000000000005f5260045ffd5b346102e65760c06003193601126102e657610ba636612757565b610bae612745565b906001600160a01b03600254163303610abd57623e900062fff0008316106103e9610fff8416101615610c6d57602060a07fe9c42593e71f84403b84352cd168d693e2c9fcd1fdbcc3feb21d92b43e6696f9922092835f526006825260405f20610c1781612d22565b805479ffffff00000000000000000000000000000000000000000000008360b81b16907fffffffffffff000000ffffffffffffffffffffffffffffffffffffffffffffff1617905562ffffff60405191168152a2005b62ffffff827fa7abe2f7000000000000000000000000000000000000000000000000000000005f521660045260245ffd5b346102e65760c06003193601126102e657610cb836612757565b60a435906001600160a01b0382168083036102e657610cd5612cc8565b6060820191825160020b617fff811361107f5750825160020b6001811261105457506001600160a01b0381511660208201906001600160a01b038251168082101561101d57505060808201906001600160a01b03825116906040840191610d4262ffffff845116826130d0565b15610ff25750610d5762ffffff835116613181565b9683516001600160a01b03811690813303610f48575b505060a0852090815f52600660205260405f209081546001600160a01b0316610f20576020997fdd466e674ea557f56295e2d0218a125ea4b4f0f6f3307b95f85e6110838d6438927cffffff0000000000000000000000000000000000000000000000000000610dde60a094613c52565b9260d01b168a76ffffff000000000000000000000000000000000000000084861b161717905562ffffff6001600160a01b03808a5116965116965116995160020b6001600160a01b03885116906040519b8c528c8c015260408b01528860608b015260020b98896080820152a4516001600160a01b03811690813303610e69575b8585604051908152f35b61100016610e78575b80610e5f565b610f1792610ef5604051937f6fe7e6eb000000000000000000000000000000000000000000000000000000008886015233602486015260448501906001600160a01b036080809282815116855282602082015116602086015262ffffff6040820151166040860152606081015160020b6060860152015116910152565b60e4830152836101048301526101048252610f1261012483612722565b6135e3565b50828080610e72565b7f7983c051000000000000000000000000000000000000000000000000000000005f5260045ffd5b61200016610f57575b80610d6d565b610feb90604051907fdc98354e000000000000000000000000000000000000000000000000000000006020830152336024830152610fd560448301896001600160a01b036080809282815116855282602082015116602086015262ffffff6040820151166040860152606081015160020b6060860152015116910152565b8860e483015260e48252610f1261010483612722565b5088610f51565b7fe65af6a0000000000000000000000000000000000000000000000000000000005f5260045260245ffd5b60449250604051917f6e6c983000000000000000000000000000000000000000000000000000000000835260048301526024820152fd5b7fe9e90588000000000000000000000000000000000000000000000000000000005f5260045260245ffd5b7fb70024f8000000000000000000000000000000000000000000000000000000005f5260045260245ffd5b346102e6576101406003193601126102e6576110c536612757565b60807fffffffffffffffffffffffffffffffffffffffffffffffffffffffffffffff5c3601126102e657604051906110fc826126ce565b60a4358060020b81036102e657825260c4358060020b81036102e657602083015260e43560408301526101043560608301526101243567ffffffffffffffff81116102e65761114f9036906004016127de565b90927fc090fc4683624cfc3884e9d8de5eca132f2d0ec062aff75d43c0465d5ceeab235c1561043a57611180612cc8565b60a0832093845f52600660205260405f2060805261119f608051612d22565b60808401516001600160a01b03811690813303611a86575b5050815160020b92602083015160020b916111d56040850151612ee3565b93606087015160020b9760608201516040519960c08b018b811067ffffffffffffffff821117611a5957604052338b528860208c01528660408c015287600f0b60608c015260808b015260a08a01525f9185881215611a2257620d89e71988126119f657620d89e886136119ca5760405192611250846126ce565b5f84525f60208501525f60408501525f606085015287600f0b611705575b600460805101978960020b5f528860205260405f20988860020b5f5260205260405f206080515460a01c60020b8b81125f146116af575060028060018c0154600184015490039b015491015490039b5b60a06001600160a01b03825116910151906040519160268301528960068301528b600383015281525f603a600c83012091816040820152816020820152525f5260066080510160205260405f20976fffffffffffffffffffffffffffffffff8954169982600f0b155f14611652578a1561162a5761137661137060409f9b6114489c61145a9e5b6001830195611368600261135c848a548503614b2d565b95019283548503614b2d565b9655556128ff565b916128ff565b6fffffffffffffffffffffffffffffffff169060801b179a8b965f84600f0b126115bc575b5082600f0b611485575b5050506113cb6113bc8560801d8360801d01612ee3565b9185600f0b90600f0b01612ee3565b6fffffffffffffffffffffffffffffffff169060801b1791815160020b90602083015160020b8c8401516060850151918e5194855260208501528d84015260608301527ff208f4912782fd25c7f114ca3723a2d5dd6f3bcc3ac8db5af63baa85f711d5ec60803393a3886001600160a01b03608082015116612f9f565b80949194611466575b50833391612dd7565b82519182526020820152f35b61147f906001600160a01b036080840151169083612dd7565b85611451565b6080515492935090916001600160a01b0381169060a01c60020b828112156114de575050906114d2926114c76114bd6114cd946137cd565b91600f0b926137cd565b90613b7d565b612ee3565b60801b5b8b80806113a5565b92809193125f146115895761151d9161150a6114cd6114cd9361150488600f0b916137cd565b87613b7d565b9361151886600f0b926137cd565b613b20565b6fffffffffffffffffffffffffffffffff169060801b17906fffffffffffffffffffffffffffffffff61155c60036080510192600f0b82845416613bc4565b167fffffffffffffffffffffffffffffffff000000000000000000000000000000008254161790556114d6565b906114cd92509261159f6114bd6115a5956137cd565b90613b20565b6fffffffffffffffffffffffffffffffff166114d6565b808f91516115fe575b01516115d2575b8e61139b565b6115f98260805160049160020b5f52016020525f6002604082208281558260018201550155565b6115cc565b6116258360805160049160020b5f52016020525f6002604082208281558260018201550155565b6115c5565b7faefeb924000000000000000000000000000000000000000000000000000000005f5260045ffd5b61137661137060409f9b6114489c61145a9e6fffffffffffffffffffffffffffffffff61168289600f0b83613bc4565b167fffffffffffffffffffffffffffffffff00000000000000000000000000000000845416178355611345565b90999089136116d55760028060018c0154600184015490039b015491015490039b6112be565b9860026001608051015460018c01549003600183015490039a81806080510154910154900391015490039b6112be565b6004608051018960020b5f5280602052898960405f2061175e81546fffffffffffffffffffffffffffffffff61174181831695600f0b86613bc4565b16931594858515141595611996575b508d600f0b9060801d613412565b60801b82179055602087015285528760020b5f5260205260405f208054906fffffffffffffffffffffffffffffffff821661179c8b600f0b82613bc4565b901592836fffffffffffffffffffffffffffffffff831615141593611969575b8b600f0b9060801d600f0b03916f7fffffffffffffffffffffffffffffff83137fffffffffffffffffffffffffffffffff8000000000000000000000000000000084121761193c57826fffffffffffffffffffffffffffffffff935060801b83831617905516606086015260408501525f88600f0b1215611881575b8351611865575b60408401511561126e5761186060808c015160020b88600560805101613781565b61126e565b61187c60808c015160020b8a600560805101613781565b61183f565b60808b015160020b6fffffffffffffffffffffffffffffffff600181602088015116925f81620d89e719071281620d89e719050390620d89e8050301810416809111611910576fffffffffffffffffffffffffffffffff606086015116111561183857867fb8e3c385000000000000000000000000000000000000000000000000000000005f5260045260245ffd5b897fb8e3c385000000000000000000000000000000000000000000000000000000005f5260045260245ffd5b7f4e487b71000000000000000000000000000000000000000000000000000000005f52601160045260245ffd5b6080515460a01c60020b8b136117bc576001608051015460018401556002608051015460028401556117bc565b6080515460a01c60020b12156119ad575b8e611750565b6001608051015460018401556002608051015460028401556119a7565b857f1ad777f8000000000000000000000000000000000000000000000000000000005f5260045260245ffd5b877fd5e2f7ab000000000000000000000000000000000000000000000000000000005f5260045260245ffd5b60448887604051917fc4433ed500000000000000000000000000000000000000000000000000000000835260048301526024820152fd5b7f4e487b71000000000000000000000000000000000000000000000000000000005f52604160045260245ffd5b5f604085015113808091611b60575b15611af55750506040517f259982e5000000000000000000000000000000000000000000000000000000006020820152611aec91610f1282611ade8887898c3360248701612e43565b03601f198101845283612722565b505b85806111b7565b159081611b52575b50611b09575b50611aee565b6040517f21d0ee70000000000000000000000000000000000000000000000000000000006020820152611b4b91610f1282611ade8887898c3360248701612e43565b5085611b03565b610200915016151587611afd565b5061080082161515611a95565b346102e65760606003193601126102e657611b86612678565b6001600160a01b03611b9661268e565b91165f5260056020526001600160a01b0360405f2091165f5260205260405f206044355f52602052602060405f2054604051908152f35b346102e65760406003193601126102e657611be6612678565b602435908115158092036102e6576001600160a01b0390335f52600360205260405f208282165f5260205260405f207fffffffffffffffffffffffffffffffffffffffffffffffffffffffffffffff0081541660ff851617905560405192835216907fceb576d9f15e4e200fdb5096d64d5dfd667e16def20c1eefd14256d8e3faa26760203392a3602060405160018152f35b346102e65760c06003193601126102e657611c9336612757565b611c9b612745565b906280000062ffffff60408301511614801590611d4f575b611d275760a090611cc383612e06565b205f52600660205260405f2090611cd982612d22565b81547fffffff000000ffffffffffffffffffffffffffffffffffffffffffffffffffff1660d09190911b7cffffff000000000000000000000000000000000000000000000000000016179055005b7f30d21641000000000000000000000000000000000000000000000000000000005f5260045ffd5b506001600160a01b03608082015116331415611cb3565b346102e65760206003193601126102e65760043567ffffffffffffffff81116102e657611d979036906004016127de565b7fc090fc4683624cfc3884e9d8de5eca132f2d0ec062aff75d43c0465d5ceeab235c611f6f57611e23915f9160017fc090fc4683624cfc3884e9d8de5eca132f2d0ec062aff75d43c0465d5ceeab235d60405193849283927f91dd73460000000000000000000000000000000000000000000000000000000084526020600485015260248401916128df565b038183335af1908115611f64575f91611eda575b507f7d4b3164c6e45b97e7d87b7125a44c5828d005af88f9d751cfd78729c5d99a0b5c611eb25760406020915f7fc090fc4683624cfc3884e9d8de5eca132f2d0ec062aff75d43c0465d5ceeab235d601f19601f835194859381855280519182918282880152018686015e5f85828601015201168101030190f35b7f5212cba1000000000000000000000000000000000000000000000000000000005f5260045ffd5b90503d805f833e611eeb8183612722565b8101906020818303126102e65780519067ffffffffffffffff82116102e6570181601f820112156102e65780519067ffffffffffffffff8211611a595760405192611f406020601f19601f8601160185612722565b828452602083830101116102e657815f9260208093018386015e8301015281611e37565b6040513d5f823e3d90fd5b7f5090d6c6000000000000000000000000000000000000000000000000000000005f5260045ffd5b346102e6576001600160a01b03611fad366126a4565b91929092335f52600560205260405f208282165f5260205260405f20845f526020528260405f205560405192835216907fb3fd5071835887567a0671151121894ddccc2842f1d10bedad13e0d17cace9a760203392a4602060405160018152f35b60206003193601126102e657612022612678565b7fc090fc4683624cfc3884e9d8de5eca132f2d0ec062aff75d43c0465d5ceeab235c1561043a57610699602091612bf3565b346102e65760406003193601126102e6576024356004356040519160408360208152826020820152019060051b8301916001602060408501935b835481520191019084838210156108285750602060019161208e565b346102e65760206003193601126102e6576001600160a01b036120cb612678565b6120d9825f5416331461287a565b16807fffffffffffffffffffffffff000000000000000000000000000000000000000060025416176002557fb4bd8ef53df690b9943d3318996006dbb82a25f54719d8c8035b516a2a5b8acc5f80a2005b346102e6576101006003193601126102e65761214536612757565b60c4359060a43560e43567ffffffffffffffff81116102e65761216c9036906004016127de565b9190937fc090fc4683624cfc3884e9d8de5eca132f2d0ec062aff75d43c0465d5ceeab235c1561043a5761219e612cc8565b60a0842094855f52600660205260405f20946121b986612d22565b6080810180516001600160a01b03811690813303612339575b50506fffffffffffffffffffffffffffffffff600388015416978815612311576020986121fe876128ff565b5f03612209876128ff565b5f036fffffffffffffffffffffffffffffffff169060801b1798876122fd575b866122e8575b505061223c338985612dd7565b60405190868252858a8301527f29ef05caaff9404b7cb6d1c0e9bbae9eaa7ab2541feba1a9c4248594c08156cb60403393a351926001600160a01b0384169384330361228d575b8888604051908152f35b60101661229b575b80612283565b6122dc95610f1293611ade926040519788957fe1b4af69000000000000000000000000000000000000000000000000000000008d8801523360248801612d5b565b50828080808080612295565b600201908660801b048154019055898061222f565b60018101828960801b048154019055612229565b7fa74f97ab000000000000000000000000000000000000000000000000000000005f5260045ffd5b602016612347575b806121d2565b6040517fb6a8b0fa00000000000000000000000000000000000000000000000000000000602082015261238a91610f1282611ade8b898b8d8b3360248801612d5b565b5088612341565b346102e65760206003193601126102e657600435545f5260205ff35b346102e6576123bb366126a4565b907fc090fc4683624cfc3884e9d8de5eca132f2d0ec062aff75d43c0465d5ceeab235c1561043a577f1b3d7edb2e9c0b0e7c525b20aaaef0f5940d2ed71663c7d39266ecafac7288596103966001600160a01b03805f94169561242d612420876128ff565b8603600f0b339089612945565b16938484526004602052604084208685526020526040842061023482825461286d565b5f6003193601126102e6577fc090fc4683624cfc3884e9d8de5eca132f2d0ec062aff75d43c0465d5ceeab235c1561043a57602061069933612bf3565b346102e65760606003193601126102e6576124a6612678565b6124ae61268e565b604435907fc090fc4683624cfc3884e9d8de5eca132f2d0ec062aff75d43c0465d5ceeab235c1561043a57610b62926124f66124e9846128ff565b5f03600f0b339083612945565b612a21565b346102e6576001600160a01b03612511366126a4565b91929092335f52600460205260405f20845f5260205260405f20612536848254612860565b90551690815f52600460205260405f20835f5260205260405f2061255b82825461286d565b9055604080513380825260208201939093527f1b3d7edb2e9c0b0e7c525b20aaaef0f5940d2ed71663c7d39266ecafac728859918190810161024e565b346102e65760206003193601126102e6576004357fffffffff0000000000000000000000000000000000000000000000000000000081168091036102e657807f01ffc9a7000000000000000000000000000000000000000000000000000000006020921490811561260f575b506040519015158152f35b7f0f632fb30000000000000000000000000000000000000000000000000000000091501482612604565b346102e65760406003193601126102e6576020906001600160a01b0361265d612678565b165f526004825260405f206024355f52825260405f20548152f35b600435906001600160a01b03821682036102e657565b602435906001600160a01b03821682036102e657565b60031960609101126102e6576004356001600160a01b03811681036102e657906024359060443590565b6080810190811067ffffffffffffffff821117611a5957604052565b6060810190811067ffffffffffffffff821117611a5957604052565b60a0810190811067ffffffffffffffff821117611a5957604052565b90601f601f19910116810190811067ffffffffffffffff821117611a5957604052565b60a4359062ffffff821682036102e657565b60031960a09101126102e6576040519061277082612706565b816004356001600160a01b03811681036102e65781526024356001600160a01b03811681036102e657602082015260443562ffffff811681036102e65760408201526064358060020b81036102e6576060820152608435906001600160a01b03821682036102e65760800152565b9181601f840112156102e65782359167ffffffffffffffff83116102e657602083818601950101116102e657565b9060206003198301126102e65760043567ffffffffffffffff81116102e657826023820112156102e65780600401359267ffffffffffffffff84116102e65760248460051b830101116102e6576024019190565b9190820391821161193c57565b9190820180921161193c57565b1561288157565b60646040517f08c379a000000000000000000000000000000000000000000000000000000000815260206004820152600c60248201527f554e415554484f52495a454400000000000000000000000000000000000000006044820152fd5b601f8260209493601f1993818652868601375f8582860101520116010190565b6f8000000000000000000000000000000081101561291d57600f0b90565b7f93dafdf1000000000000000000000000000000000000000000000000000000005f5260045ffd5b9190600f0b918215612a1c5761296e91906001600160a01b038092165f521660205260405f2090565b61297a815c9283613228565b80915d6129cc57505f197f7d4b3164c6e45b97e7d87b7125a44c5828d005af88f9d751cfd78729c5d99a0b5c017f7d4b3164c6e45b97e7d87b7125a44c5828d005af88f9d751cfd78729c5d99a0b5d5b565b156129d357565b60017f7d4b3164c6e45b97e7d87b7125a44c5828d005af88f9d751cfd78729c5d99a0b5c017f7d4b3164c6e45b97e7d87b7125a44c5828d005af88f9d751cfd78729c5d99a0b5d565b505050565b9091906001600160a01b0381169081612adb5750505f80808093855af115612a465750565b601f19601f3d01166001600160a01b03604051927f90bfb8650000000000000000000000000000000000000000000000000000000084521660048301525f6024830152608060448301528060a00160648301523d60848301523d5f60a484013e7ff4b3b1bc0000000000000000000000000000000000000000000000000000000060c4828401600460a4820152015260e40190fd5b60205f6044819496826040956001600160a01b03988751998a947fa9059cbb00000000000000000000000000000000000000000000000000000000865216600485015260248401525af13d15601f3d11600185511416171692828152826020820152015215612b475750565b601f19601f3d0116604051917f90bfb86500000000000000000000000000000000000000000000000000000000835260048301527fa9059cbb000000000000000000000000000000000000000000000000000000006024830152608060448301528060a00160648301523d60848301523d5f60a484013e7ff27f64e40000000000000000000000000000000000000000000000000000000060c4828401600460a4820152015260e40190fd5b7f27e098c505d44ec3574004bca052aabf76bd35004c182099d8c575fb238593b95c91906001600160a01b038316612c3b576129ca9034935b612c35856128ff565b90612945565b34612ca0576129ca90612c777f1e0745a7db1623981f0b2a5d4232364c00787266eb75ad546f190e6cebe9bd955c612c728661319e565b612860565b935f7f27e098c505d44ec3574004bca052aabf76bd35004c182099d8c575fb238593b95d612c2c565b7fb0ec849e000000000000000000000000000000000000000000000000000000005f5260045ffd5b6001600160a01b037f0000000000000000000000000000000000000000000000000000000000000000163003612cfa57565b7f0d89438e000000000000000000000000000000000000000000000000000000005f5260045ffd5b546001600160a01b031615612d3357565b7f486aa307000000000000000000000000000000000000000000000000000000005f5260045ffd5b9192612dbc610120946001600160a01b03612dd499979416855260208501906001600160a01b036080809282815116855282602082015116602086015262ffffff6040820151166040860152606081015160020b6060860152015116910152565b60c083015260e08201528161010082015201916128df565b90565b906001600160a01b0360206129ca9493612df985848351168660801d90612945565b01511690600f0b90612945565b62ffffff16620f42408111612e185750565b7f14002113000000000000000000000000000000000000000000000000000000005f5260045260245ffd5b90612dd49593612ea6610160946001600160a01b03612ed59416855260208501906001600160a01b036080809282815116855282602082015116602086015262ffffff6040820151166040860152606081015160020b6060860152015116910152565b8051600290810b60c08501526020820151900b60e0840152604081015161010084015260600151610120830152565b8161014082015201916128df565b9081600f0b91820361291d57565b92612f8590612f56612dd49997946001600160a01b036101a0989516875260208701906001600160a01b036080809282815116855282602082015116602086015262ffffff6040820151166040860152606081015160020b6060860152015116910152565b8051600290810b60c08701526020820151900b60e0860152604081015161010086015260600151610120850152565b6101408301526101608201528161018082015201916128df565b939590919296945f966001600160a01b03861633146130c557885f6040870151135f14613054576104008716612fd9575b50505050505050565b61304797999850926130409695949261302692613034956040519788967f9f063efc0000000000000000000000000000000000000000000000000000000060208901523360248901612ef1565b03601f198101835282612722565b60028216151591613bf5565b8092613c15565b915f808080808080612fd0565b959493929190610100861661306c5750505050505050565b61304797995086985091613026916130b99493613040986040519788967f6c2bbe7e0000000000000000000000000000000000000000000000000000000060208901523360248901612ef1565b60018216151591613bf5565b505f96505050505050565b608081161580613175575b61314b57604081161580613169575b61314b576104008116158061315d575b61314b5761010081161580613151575b61314b576001600160a01b03811661312b575062ffffff1662800000141590565b613fff16159081159161313c575090565b62800000915062ffffff161490565b50505f90565b5060018116151561310a565b506002811615156130fa565b506004811615156130ea565b506008811615156130db565b6280000062ffffff82161461319957612dd481612e06565b505f90565b6001600160a01b0316806131b157504790565b6020602491604051928380927f70a082310000000000000000000000000000000000000000000000000000000082523060048301525afa908115611f64575f916131f9575090565b90506020813d602011613220575b8161321460209383612722565b810103126102e6575190565b3d9150613207565b9190915f838201938412911290801582169115161761193c57565b6020830151955f958695919491336001600160a01b038516146134055760808416613270575b5050505050565b61333e9261302661333892613324946040519586947f575e24b40000000000000000000000000000000000000000000000000000000060208701523360248701526132fb604487018c6001600160a01b036080809282815116855282602082015116602086015262ffffff6040820151166040860152606081015160020b6060860152015116910152565b8051151560e48701526020810151610104870152604001516001600160a01b0316610124860152565b6101406101448501526101648401916128df565b826135e3565b9160608351036133dd576040015162ffffff1662800000146133d1575b60081661336c575b80808080613269565b604001519250608083901d600f0b80156133635761338d905f861295613228565b93156133c9575f84135b6133a1575f613363565b7ffa0b71d6000000000000000000000000000000000000000000000000000000005f5260045ffd5b5f8412613397565b6060820151935061335b565b7f1e048e1d000000000000000000000000000000000000000000000000000000005f5260045ffd5b505f965086955050505050565b90600f0b90600f0b01907fffffffffffffffffffffffffffffffff8000000000000000000000000000000082126f7fffffffffffffffffffffffffffffff83131761193c57565b919695939492946001600160a01b03831633146135d6578460801d94600f0b93886040851661350b575b50505050505f9481600f0b158015906134ff575b6134a3575b5050509190565b6134da9395505f60208201511290511515145f146134e2576fffffffffffffffffffffffffffffffff169060801b175b8093613c15565b5f808061349c565b906fffffffffffffffffffffffffffffffff169060801b176134d3565b5082600f0b1515613497565b6135ba6135c6946130266114cd956135cc99989561359f6132fb966040519788967fb47b2fb100000000000000000000000000000000000000000000000000000000602089015233602489015260448801906001600160a01b036080809282815116855282602082015116602086015262ffffff6040820151166040860152606081015160020b6060860152015116910152565b8c6101448501526101606101648501526101848401916128df565b60048216151591613bf5565b90613412565b5f80808088613483565b5050505050909150905f90565b9190918251925f8060208301958682865af11561366357505060405191601f19603f3d011683016040523d83523d9060208401915f833e602084511091821561362f575b50506133dd57565b5190517fffffffff000000000000000000000000000000000000000000000000000000009182169116141590505f80613627565b5183517fffffffff000000000000000000000000000000000000000000000000000000008116916004811061374c575b50507fffffffff00000000000000000000000000000000000000000000000000000000601f19601f3d0116916001600160a01b03604051947f90bfb865000000000000000000000000000000000000000000000000000000008652166004850152166024830152608060448301528060a00160648301523d60848301523d5f60a484013e7fa9e35b2f0000000000000000000000000000000000000000000000000000000060c4828401600460a4820152015260e40190fd5b7fffffffff000000000000000000000000000000000000000000000000000000009250829060040360031b1b16168280613693565b919060020b9060020b908181076137af5705908160081d5f52602052600160ff60405f2092161b8154189055565b601c906044926040519163d4d8f3e683526020830152604082015201fd5b60020b908160ff1d82810118620d89e88111613af45763ffffffff9192600182167001fffcb933bd6fad37aa2d162d1a59400102700100000000000000000000000000000000189160028116613ad8575b60048116613abc575b60088116613aa0575b60108116613a84575b60208116613a68575b60408116613a4c575b60808116613a30575b6101008116613a14575b61020081166139f8575b61040081166139dc575b61080081166139c0575b61100081166139a4575b6120008116613988575b614000811661396c575b6180008116613950575b620100008116613934575b620200008116613919575b6204000081166138fe575b62080000166138e5575b5f126138dd575b0160201c90565b5f19046138d6565b6b048a170391f7dc42444e8fa290910260801c906138cf565b6d2216e584f5fa1ea926041bedfe9890920260801c916138c5565b916e5d6af8dedb81196699c329225ee6040260801c916138ba565b916f09aa508b5b7a84e1c677de54f3e99bc90260801c916138af565b916f31be135f97d08fd981231505542fcfa60260801c916138a4565b916f70d869a156d2a1b890bb3df62baf32f70260801c9161389a565b916fa9f746462d870fdf8a65dc1f90e061e50260801c91613890565b916fd097f3bdfd2022b8845ad8f792aa58250260801c91613886565b916fe7159475a2c29b7443b29c7fa6e889d90260801c9161387c565b916ff3392b0822b70005940c7a398e4b70f30260801c91613872565b916ff987a7253ac413176f2b074cf7815e540260801c91613868565b916ffcbe86c7900a88aedcffc83b479aa3a40260801c9161385e565b916ffe5dee046a99a2a811c461f1969c30530260801c91613854565b916fff2ea16466c96a3843ec78b326b528610260801c9161384b565b916fff973b41fa98c081472e6896dfb254c00260801c91613842565b916fffcb9843d60f6159c9db58835c9266440260801c91613839565b916fffe5caca7e10e4e61c3624eaa0941cd00260801c91613830565b916ffff2e50f5f656932ef12357cf3c7fdcc0260801c91613827565b916ffff97272373d413259a46990580e213a0260801c9161381e565b827f8b86327a000000000000000000000000000000000000000000000000000000005f5260045260245ffd5b905f83600f0b125f14613b5557613b4b925f036fffffffffffffffffffffffffffffffff1691614dbf565b5f811261291d5790565b613b71926fffffffffffffffffffffffffffffffff1691614d71565b5f811261291d575f0390565b905f83600f0b125f14613ba857613b4b925f036fffffffffffffffffffffffffffffffff1691614e75565b613b71926fffffffffffffffffffffffffffffffff1691614df2565b906fffffffffffffffffffffffffffffffff90600f0b911601908160801c613be857565b6393dafdf15f526004601cfd5b90613bff916135e3565b90156131995760408151036133dd576040015190565b613c3890613c2a8360801d8260801d03612ee3565b92600f0b90600f0b03612ee3565b6fffffffffffffffffffffffffffffffff169060801b1790565b73fffd8963efd1fc6a506488495d951d51639616826001600160a01b037ffffffffffffffffffffffffffffffffffffffffffffffffffffffffefffd895d83011611613f0f5777ffffffffffffffffffffffffffffffffffffffff000000008160201b168060ff613cc283614ee8565b169160808310613f0357507fffffffffffffffffffffffffffffffffffffffffffffffffffffffffffffff8182011c5b800280607f1c8160ff1c1c800280607f1c8160ff1c1c800280607f1c8160ff1c1c800280607f1c8160ff1c1c800280607f1c8160ff1c1c800280607f1c8160ff1c1c80029081607f1c8260ff1c1c80029283607f1c8460ff1c1c80029485607f1c8660ff1c1c80029687607f1c8860ff1c1c80029889607f1c8a60ff1c1c80029a8b607f1c8c60ff1c1c80029c8d80607f1c9060ff1c1c800260cd1c6604000000000000169d60cc1c6608000000000000169c60cb1c6610000000000000169b60ca1c6620000000000000169a60c91c6640000000000000169960c81c6680000000000000169860c71c670100000000000000169760c61c670200000000000000169660c51c670400000000000000169560c41c670800000000000000169460c31c671000000000000000169360c21c672000000000000000169260c11c674000000000000000169160c01c67800000000000000016907fffffffffffffffffffffffffffffffffffffffffffffffffffffffffffffff800160401b1717171717171717171717171717693627a301d71055774c85027ffffffffffffffffffffffffffffffffffd709b7e5480fba5a50fed5e62ffc556810160801d60020b906fdb2df09e81959a81455e260799a0632f0160801d60020b918282145f14613eda5750905090565b6001600160a01b03166001600160a01b03613ef4846137cd565b1611613efe575090565b905090565b905081607f031b613cf2565b6001600160a01b03907f61487524000000000000000000000000000000000000000000000000000000005f521660045260245ffd5b8115613f4e570490565b7f4e487b71000000000000000000000000000000000000000000000000000000005f52601260045260245ffd5b6040519290915f613f8b856126ea565b5f855260208501925f845260408601955f875280968654956040860151159586155f14614b1f57610fff8860b81c16945b8151925f948a6001600160a01b0316918288528b60a01c60020b90526fffffffffffffffffffffffffffffffff60038d0154169052608083015162400000811615155f14614b105762bfffff1661401281612e06565b61ffff8816614af5575b8096620f424062ffffff83161015614ac4575b845115614aae57505088614a685760608301906001600160a01b0382511681811015614a31575050516001600160a01b03166401000276a3811115614a0657505b604051986101008a018a811067ffffffffffffffff821117611a59576040525f8a525f60208b01525f60408b01525f60608b01525f60808b01525f60a08b01525f60c08b015288155f146149f85760018b0154949390945b60e08b01525b801580156149d8575b61488b5788868d8c8e6001600160a01b038351168252602083015160020b602089015160020b90815f8183071291050386155f14614737576fffffffffffffffffffffffffffffffff93620d89e71960409460019484600560ff60609716938260020b60081d890b5f5201602052875f205f198460ff031c9054169283151593845f14614725579061416a60ff92614ee8565b90031660020b900360020b0260020b5b905b15158684015260020b8060208401521315614716575b620d89e8602082015160020b1215614708575b6001600160a01b036141bd602083015160020b6137cd565b1691829101526001600160a01b03855116966001600160a01b0360608c0151169283911516818310189118021892015116928d6001600160a01b038316821015915f87125f1461459e5762ffffff8516620f42400361421e81895f03614b90565b94841561458d57614230888483614df2565b955b8681106144de57509660a09392916001600160a01b0398978891620f424062ffffff8316145f146144ca575050865b955b156144bc579161427292614dbf565b925b60c0820152015260808d0152168c525f8351135f1461448c5760a08a0151905f821261291d5703926142af60808b015160c08c01519061286d565b5f811261291d57810390811360011661193c57935b61ffff8716614444575b6fffffffffffffffffffffffffffffffff60408d0151168061442a575b506001600160a01b038c51166001600160a01b0360608c01511681145f146143fb575060408a0151614349575b8861433c575f1960208b015160020b0160020b5b60020b60208d01525b93926140ce565b60208a015160020b61432c565b886143cf576fffffffffffffffffffffffffffffffff6143b68d8d8d600460e08201519260206002820154935b015160020b60020b5f520160205260405f2091600183019081549003905560028201908154900390555460801d908c156143c1575b604001518316613bc4565b1660408d0152614318565b5f91909103600f0b906143ab565b6fffffffffffffffffffffffffffffffff6143b68d8d8d6004600183015492602060e084015193614376565b6001600160a01b038b51168103614413575b50614335565b61441c90613c52565b60020b60208d01525f61440d565b60c08b015160801b0460e08b01510160e08b01525f6142eb565b9662ffffff861661ffff88160361446f5760c08a0151905b8160c08c01510360c08c015201966142ce565b620f424060808b015161ffff89169060c08d01510102049061445c565b60808a015160c08b015101905f821261291d57019260a08a01515f811261291d576144b691613228565b936142c4565b6144c592614e75565b614272565b62ffffff6144d9921689614f75565b614261565b9650505092505082918415811517614580578e60a0916001600160a01b0396845f1461451b5761450f878284615007565b80978a015f0395614263565b8787116145595761455461454f6145476fffffffffffffffffffffffffffffffff84168a60601b613f44565b8a851661286d565b61508e565b61450f565b61455461454f61457b6fffffffffffffffffffffffffffffffff84168a614c57565b614547565b634f2461b85f526004601cfd5b614598888285614d71565b95614232565b919350919083156146f7576145b4858284614dbf565b915b82871061460957906001600160a01b039560a09280965b156145fa57916145dc92614df2565b925b6145f562ffffff8d16620f42408190039086614f75565b614274565b61460392614d71565b926145de565b50915050838315821517614580578d83156146da57506001600160a01b038511614687578460601b6fffffffffffffffffffffffffffffffff851680820615159104015b6001600160a01b038316928184111561467a578f93956001600160a01b0360a093819803165b80966145cd565b634323a5555f526004601cfd5b6fffffffffffffffffffffffffffffffff84166146b2816c0100000000000000000000000088614cf1565b908015613f4e576c0100000000000000000000000087091561464d576001018061464d575f80fd5b9180856146f2886001600160a01b039860a095614f9e565b614673565b614702858383614e75565b916145b6565b620d89e860208201526141a5565b620d89e7196020820152614192565b5060020b900360020b0260020b61417a565b60019194939650600592955001938460020b60081d60010b5f520160205260405f205f19600160ff86161b0119905416908d8b831592831597885f1461484857505050506102e6578f9160018f8f9690620d89e7196060928f989560409660ff896fffffffffffffffffffffffffffffffff9a5f03166101e07f804040554300526644320000502061067405302602000010750620017611707760fc7fb6db6db6ddddddddd34d34d349249249210842108c6318c639ce739cffffffff840260f81c161b60f71c167e1f0d1e100c1d070f090b19131c1706010e11080a1a141802121b1503160405601f85851693831c63d76453e004161a17031660020b9060020b0160020b0260020b5b9061417c565b90956fffffffffffffffffffffffffffffffff95506040945060019398620d89e719918960ff6060969b811681031660020b9060020b0160020b0260020b614842565b949891955099969298919598602088015160a01b76ffffff0000000000000000000000000000000000000000167fffffffffffffffffff00000000000000000000000000000000000000000000006001600160a01b038a51169216171782556fffffffffffffffffffffffffffffffff6003830154166fffffffffffffffffffffffffffffffff604089015116809103614993575b5082156149845760e060029101519101555b825190155f82121461496e575061494c6149549293612ee3565b925103612ee3565b6fffffffffffffffffffffffffffffffff169060801b1793565b61495492509061497e9103612ee3565b91612ee3565b60e06001910151910155614932565b6fffffffffffffffffffffffffffffffff167fffffffffffffffffffffffffffffffff000000000000000000000000000000006003840154161760038301555f614920565b506001600160a01b038c51166001600160a01b03606085015116146140d7565b60028b0154949390946140c8565b7f9e4d7cc7000000000000000000000000000000000000000000000000000000005f5260045260245ffd5b60449250604051917f7c9c6e8f00000000000000000000000000000000000000000000000000000000835260048301526024820152fd5b60608301906001600160a01b0382511681811115614a31575050516001600160a01b031673fffd8963efd1fc6a506488495d951d5263988d26811015614a065750614070565b9a509a50509950505050505050505f925f929190565b5f8551131561402f577f96206246000000000000000000000000000000000000000000000000000000005f5260045ffd5b62ffffff610fff89169116620f42408183020491010361401c565b508960d01c62ffffff16614012565b610fff8860c41c1694613fbc565b90808202915f198282099183808410930392808403938470010000000000000000000000000000000011156102e65714614b8757700100000000000000000000000000000000910990828211900360801b910360801c1790565b50505060801c90565b818102905f1983820990828083109203918083039283620f424011156102e65714614bf0577fde8f6cefed634549b62c77574f722e1ac57e23f24d8fd5cb790fb65668c2613993620f4240910990828211900360fa1b910360061c170290565b5050620f424091500490565b90808202915f19828209918380841093039280840393846c0100000000000000000000000011156102e65714614c4e576c01000000000000000000000000910990828211900360a01b910360601c1790565b50505060601c90565b908160601b905f196c010000000000000000000000008409928280851094039380850394858411156102e65714614cea576c0100000000000000000000000082910981805f03168092046002816003021880820260020302808202600203028082026002030280820260020302808202600203028091026002030293600183805f03040190848311900302920304170290565b5091500490565b91818302915f19818509938380861095039480860395868511156102e65714614d69579082910981805f03168092046002816003021880820260020302808202600203028082026002030280820260020302808202600203028091026002030293600183805f03040190848311900302920304170290565b505091500490565b6fffffffffffffffffffffffffffffffff6c01000000000000000000000000916001600160a01b0380600195169116038060ff1d90810118931692614db68185614bfc565b93091515160190565b6fffffffffffffffffffffffffffffffff906001600160a01b0380612dd49594169116038060ff1d908101189116614bfc565b906001600160a01b0381166001600160a01b03831611614e6f575b6001600160a01b038216928315614e63577bffffffffffffffffffffffffffffffff0000000000000000000000006001600160a01b03614e57948185169403169160601b16614f75565b90808206151591040190565b62bfc9215f526004601cfd5b90614e0d565b6001600160a01b0382166001600160a01b03821611614ee2575b6001600160a01b038116918215614e6357612dd4937bffffffffffffffffffffffffffffffff0000000000000000000000006001600160a01b03614edd948185169403169160601b16614cf1565b613f44565b90614e8f565b80156102e6577f07060605060205000602030205040001060502050303040105050304000000006f8421084210842108cc6318c6db6d54be826fffffffffffffffffffffffffffffffff1060071b83811c67ffffffffffffffff1060061b1783811c63ffffffff1060051b1783811c61ffff1060041b1783811c60ff1060031b1792831c1c601f161a1790565b929190614f83828286614cf1565b938215613f4e5709614f9157565b906001019081156102e657565b91908115615002577bffffffffffffffffffffffffffffffff0000000000000000000000006001600160a01b039160601b169216918282029183838311918404141615614ff557612dd49261454f92820391614f75565b63f5c787f15f526004601cfd5b505090565b90918015615088576001600160a01b037bffffffffffffffffffffffffffffffff000000000000000000000000819460601b1692168082028161504a8483613f44565b14615070575b509061505f6150649284613f44565b61286d565b80820615159104011690565b830183811061505057915061508492614f75565b1690565b50905090565b906001600160a01b03821691820361291d5756fea2646970667358221220b0b0c967ab8612f862528b25e11c80ee2e70ac4123a1003fd7c07aa2f0f4f7c264736f6c634300081a0033","linkReferences":{}},"methodIdentifiers":{"allowance(address,address,uint256)":"598af9e7","approve(address,uint256,uint256)":"426a8493","balanceOf(address,uint256)":"00fdd58e","burn(address,uint256,uint256)":"f5298aca","clear(address,uint256)":"80f0b44c","collectProtocolFees(address,address,uint256)":"8161b874","donate((address,address,uint24,int24,address),uint256,uint256,bytes)":"234266d7","extsload(bytes32)":"1e2eaeaf","extsload(bytes32,uint256)":"35fd631a","extsload(bytes32[])":"dbd035ff","exttload(bytes32)":"f135baaa","exttload(bytes32[])":"9bf6645f","initialize((address,address,uint24,int24,address),uint160)":"6276cbbe","isOperator(address,address)":"b6363cf2","mint(address,uint256,uint256)":"156e29f6","modifyLiquidity((address,address,uint24,int24,address),(int24,int24,int256,bytes32),bytes)":"5a6bcfda","owner()":"8da5cb5b","protocolFeeController()":"f02de3b2","protocolFeesAccrued(address)":"97e8cd4e","setOperator(address,bool)":"558a7297","setProtocolFee((address,address,uint24,int24,address),uint24)":"7e87ce7d","setProtocolFeeController(address)":"2d771389","settle()":"11da60b4","settleFor(address)":"3dd45adb","supportsInterface(bytes4)":"01ffc9a7","swap((address,address,uint24,int24,address),(bool,int256,uint160),bytes)":"f3cd914c","sync(address)":"a5841194","take(address,address,uint256)":"0b0d9c09","transfer(address,uint256,uint256)":"095bcdb6","transferFrom(address,address,uint256,uint256)":"fe99049a","transferOwnership(address)":"f2fde38b","unlock(bytes)":"48c89491","updateDynamicLPFee((address,address,uint24,int24,address),uint24)":"52759651"},"id":21}