{"abi":[{"type":"function","name":"getScore","inputs":[{"name":"agentId","type":"bytes32","internalType":"bytes32"}],"outputs":[{"name":"score","type":"uint256","internalType":"uint256"},{"name":"totalJobs","type":"uint256","internalType":"uint256"},{"name":"lastUpdated","type":"uint256","internalType":"uint256"}],"stateMutability":"view"},{"type":"function","name":"recordEvent","inputs":[{"name":"agentId","type":"bytes32","internalType":"bytes32"},{"name":"jobId","type":"bytes32","internalType":"bytes32"},{"name":"score","type":"uint256","internalType":"uint256"},{"name":"eventType","type":"string","internalType":"string"}],"outputs":[],"stateMutability":"nonpayable"},{"type":"function","name":"seed","inputs":[{"name":"agentId","type":"bytes32","internalType":"bytes32"},{"name":"initialScore","type":"uint256","internalType":"uint256"}],"outputs":[],"stateMutability":"nonpayable"},{"type":"event","name":"ReputationEvent","inputs":[{"name":"agentId","type":"bytes32","indexed":true,"internalType":"bytes32"},{"name":"jobId","type":"bytes32","indexed":true,"internalType":"bytes32"},{"name":"score","type":"uint256","indexed":false,"internalType":"uint256"},{"name":"eventType","type":"string","indexed":false,"internalType":"string"}],"anonymous":false}],"bytecode":{"object":"0x6080604052348015600e575f5ffd5b5061058d8061001c5f395ff3fe608060405234801561000f575f5ffd5b506004361061003f575f3560e01c80637ba5328514610043578063da41b49914610075578063e5ec9f3c14610091575b5f5ffd5b61005d6004803603810190610058919061020a565b6100ad565b60405161006c9392919061024d565b60405180910390f35b61008f600480360381019061008a919061030d565b6100df565b005b6100ab60048036038101906100a69190610391565b6101b4565b005b5f5f5f5f5f5f8681526020019081526020015f209050805f015481600101548260020154935093509350509193909250565b5f5f5f8781526020019081526020015f2090505f81600101540361010a5783815f018190555061014b565b6001816001015461011b91906103fc565b848260010154835f015461012f919061042f565b61013991906103fc565b610143919061049d565b815f01819055505b6001816001015f82825461015f91906103fc565b9250508190555042816002018190555084867f70eb9e75dc38310330b92469d9783e89e84429487ed9fba2dcd712f73d802e868686866040516101a493929190610527565b60405180910390a3505050505050565b805f5f8481526020019081526020015f205f01819055505050565b5f5ffd5b5f5ffd5b5f819050919050565b6101e9816101d7565b81146101f3575f5ffd5b50565b5f81359050610204816101e0565b92915050565b5f6020828403121561021f5761021e6101cf565b5b5f61022c848285016101f6565b91505092915050565b5f819050919050565b61024781610235565b82525050565b5f6060820190506102605f83018661023e565b61026d602083018561023e565b61027a604083018461023e565b949350505050565b61028b81610235565b8114610295575f5ffd5b50565b5f813590506102a681610282565b92915050565b5f5ffd5b5f5ffd5b5f5ffd5b5f5f83601f8401126102cd576102cc6102ac565b5b8235905067ffffffffffffffff8111156102ea576102e96102b0565b5b602083019150836001820283011115610306576103056102b4565b5b9250929050565b5f5f5f5f5f60808688031215610326576103256101cf565b5b5f610333888289016101f6565b9550506020610344888289016101f6565b945050604061035588828901610298565b935050606086013567ffffffffffffffff811115610376576103756101d3565b5b610382888289016102b8565b92509250509295509295909350565b5f5f604083850312156103a7576103a66101cf565b5b5f6103b4858286016101f6565b92505060206103c585828601610298565b9150509250929050565b7f4e487b71000000000000000000000000000000000000000000000000000000005f52601160045260245ffd5b5f61040682610235565b915061041183610235565b9250828201905080821115610429576104286103cf565b5b92915050565b5f61043982610235565b915061044483610235565b925082820261045281610235565b91508282048414831517610469576104686103cf565b5b5092915050565b7f4e487b71000000000000000000000000000000000000000000000000000000005f52601260045260245ffd5b5f6104a782610235565b91506104b283610235565b9250826104c2576104c1610470565b5b828204905092915050565b5f82825260208201905092915050565b828183375f83830152505050565b5f601f19601f8301169050919050565b5f61050683856104cd565b93506105138385846104dd565b61051c836104eb565b840190509392505050565b5f60408201905061053a5f83018661023e565b818103602083015261054d8184866104fb565b905094935050505056fea2646970667358221220ed7142f145f9b9299aced82fade884e7aac73c61dc6af3d007169dfba035d63564736f6c634300081c0033","linkReferences":{}},"methodIdentifiers":{"getScore(bytes32)":"7ba53285","recordEvent(bytes32,bytes32,uint256,string)":"da41b499","seed(bytes32,uint256)":"e5ec9f3c"},"id":1}