{"abi":[{"type":"function","name":"adminRegister","inputs":[{"name":"agentId","type":"bytes32","internalType":"bytes32"},{"name":"wallet","type":"address","internalType":"address"},{"name":"metadataURI","type":"string","internalType":"string"}],"outputs":[],"stateMutability":"nonpayable"},{"type":"function","name":"deactivateAgent","inputs":[{"name":"agentId","type":"bytes32","internalType":"bytes32"}],"outputs":[],"stateMutability":"nonpayable"},{"type":"function","name":"getAgent","inputs":[{"name":"agentId","type":"bytes32","internalType":"bytes32"}],"outputs":[{"name":"wallet","type":"address","internalType":"address"},{"name":"metadataURI","type":"string","internalType":"string"},{"name":"active","type":"bool","internalType":"bool"}],"stateMutability":"view"},{"type":"function","name":"getAgentWallet","inputs":[{"name":"tokenId","type":"uint256","internalType":"uint256"}],"outputs":[{"name":"","type":"address","internalType":"address"}],"stateMutability":"view"},{"type":"function","name":"ownerOf","inputs":[{"name":"tokenId","type":"uint256","internalType":"uint256"}],"outputs":[{"name":"","type":"address","internalType":"address"}],"stateMutability":"view"},{"type":"function","name":"registerAgent","inputs":[{"name":"agentId","type":"bytes32","internalType":"bytes32"},{"name":"metadataURI","type":"string","internalType":"string"}],"outputs":[],"stateMutability":"nonpayable"},{"type":"event","name":"AgentDeactivated","inputs":[{"name":"agentId","type":"bytes32","indexed":true,"internalType":"bytes32"}],"anonymous":false},{"type":"event","name":"AgentRegistered","inputs":[{"name":"agentId","type":"bytes32","indexed":true,"internalType":"bytes32"},{"name":"wallet","type":"address","indexed":false,"internalType":"address"},{"name":"metadataURI","type":"string","indexed":false,"internalType":"string"}],"anonymous":false}],"bytecode":{"object":"0x6080604052348015600e575f5ffd5b50610d9f8061001c5f395ff3fe608060405234801561000f575f5ffd5b506004361061005f575f3560e01c8062339509146100635780634bc994231461009357806359b5acf3146100af5780636352211e146100cb5780639c795951146100fb578063a6c2af0114610117575b5f5ffd5b61007d6004803603810190610078919061069e565b610149565b60405161008a9190610708565b60405180910390f35b6100ad60048036038101906100a891906107df565b61018a565b005b6100c960048036038101906100c49190610850565b6102cf565b005b6100e560048036038101906100e0919061069e565b6103c8565b6040516100f29190610708565b60405180910390f35b6101156004803603810190610110919061087b565b610438565b005b610131600480360381019061012c9190610850565b61057c565b60405161014093929190610962565b60405180910390f35b5f5f825f1b90505f5f8281526020019081526020015f205f015f9054906101000a900473ffffffffffffffffffffffffffffffffffffffff16915050919050565b60405180606001604052808473ffffffffffffffffffffffffffffffffffffffff16815260200183838080601f0160208091040260200160405190810160405280939291908181526020018383808284375f81840152601f19601f820116905080830192505050505050508152602001600115158152505f5f8681526020019081526020015f205f820151815f015f6101000a81548173ffffffffffffffffffffffffffffffffffffffff021916908373ffffffffffffffffffffffffffffffffffffffff160217905550602082015181600101908161026a9190610bc8565b506040820151816002015f6101000a81548160ff021916908315150217905550905050837f186c9e760261cf9d36dfc9a09ca598dbff789d7d4201868118b92d46e56dac808484846040516102c193929190610cd1565b60405180910390a250505050565b3373ffffffffffffffffffffffffffffffffffffffff165f5f8381526020019081526020015f205f015f9054906101000a900473ffffffffffffffffffffffffffffffffffffffff1673ffffffffffffffffffffffffffffffffffffffff161461036e576040517f08c379a000000000000000000000000000000000000000000000000000000000815260040161036590610d4b565b60405180910390fd5b5f5f5f8381526020019081526020015f206002015f6101000a81548160ff021916908315150217905550807f83fa9a5555770ebb043d9ef83dd2d496875b8a91e0b595e5ce06520ba75187ad60405160405180910390a250565b5f5f825f1b90505f5f8281526020019081526020015f206002015f9054906101000a900460ff161561042e575f5f8281526020019081526020015f205f015f9054906101000a900473ffffffffffffffffffffffffffffffffffffffff16915050610433565b5f9150505b919050565b60405180606001604052803373ffffffffffffffffffffffffffffffffffffffff16815260200183838080601f0160208091040260200160405190810160405280939291908181526020018383808284375f81840152601f19601f820116905080830192505050505050508152602001600115158152505f5f8581526020019081526020015f205f820151815f015f6101000a81548173ffffffffffffffffffffffffffffffffffffffff021916908373ffffffffffffffffffffffffffffffffffffffff16021790555060208201518160010190816105189190610bc8565b506040820151816002015f6101000a81548160ff021916908315150217905550905050827f186c9e760261cf9d36dfc9a09ca598dbff789d7d4201868118b92d46e56dac8033848460405161056f93929190610cd1565b60405180910390a2505050565b5f60605f5f5f5f8681526020019081526020015f209050805f015f9054906101000a900473ffffffffffffffffffffffffffffffffffffffff1681600101826002015f9054906101000a900460ff168180546105d7906109f8565b80601f0160208091040260200160405190810160405280929190818152602001828054610603906109f8565b801561064e5780601f106106255761010080835404028352916020019161064e565b820191905f5260205f20905b81548152906001019060200180831161063157829003601f168201915b50505050509150935093509350509193909250565b5f5ffd5b5f5ffd5b5f819050919050565b61067d8161066b565b8114610687575f5ffd5b50565b5f8135905061069881610674565b92915050565b5f602082840312156106b3576106b2610663565b5b5f6106c08482850161068a565b91505092915050565b5f73ffffffffffffffffffffffffffffffffffffffff82169050919050565b5f6106f2826106c9565b9050919050565b610702816106e8565b82525050565b5f60208201905061071b5f8301846106f9565b92915050565b5f819050919050565b61073381610721565b811461073d575f5ffd5b50565b5f8135905061074e8161072a565b92915050565b61075d816106e8565b8114610767575f5ffd5b50565b5f8135905061077881610754565b92915050565b5f5ffd5b5f5ffd5b5f5ffd5b5f5f83601f84011261079f5761079e61077e565b5b8235905067ffffffffffffffff8111156107bc576107bb610782565b5b6020830191508360018202830111156107d8576107d7610786565b5b9250929050565b5f5f5f5f606085870312156107f7576107f6610663565b5b5f61080487828801610740565b94505060206108158782880161076a565b935050604085013567ffffffffffffffff81111561083657610835610667565b5b6108428782880161078a565b925092505092959194509250565b5f6020828403121561086557610864610663565b5b5f61087284828501610740565b91505092915050565b5f5f5f6040848603121561089257610891610663565b5b5f61089f86828701610740565b935050602084013567ffffffffffffffff8111156108c0576108bf610667565b5b6108cc8682870161078a565b92509250509250925092565b5f81519050919050565b5f82825260208201905092915050565b8281835e5f83830152505050565b5f601f19601f8301169050919050565b5f61091a826108d8565b61092481856108e2565b93506109348185602086016108f2565b61093d81610900565b840191505092915050565b5f8115159050919050565b61095c81610948565b82525050565b5f6060820190506109755f8301866106f9565b81810360208301526109878185610910565b90506109966040830184610953565b949350505050565b7f4e487b71000000000000000000000000000000000000000000000000000000005f52604160045260245ffd5b7f4e487b71000000000000000000000000000000000000000000000000000000005f52602260045260245ffd5b5f6002820490506001821680610a0f57607f821691505b602082108103610a2257610a216109cb565b5b50919050565b5f819050815f5260205f209050919050565b5f6020601f8301049050919050565b5f82821b905092915050565b5f60088302610a847fffffffffffffffffffffffffffffffffffffffffffffffffffffffffffffffff82610a49565b610a8e8683610a49565b95508019841693508086168417925050509392505050565b5f819050919050565b5f610ac9610ac4610abf8461066b565b610aa6565b61066b565b9050919050565b5f819050919050565b610ae283610aaf565b610af6610aee82610ad0565b848454610a55565b825550505050565b5f5f905090565b610b0d610afe565b610b18818484610ad9565b505050565b5b81811015610b3b57610b305f82610b05565b600181019050610b1e565b5050565b601f821115610b8057610b5181610a28565b610b5a84610a3a565b81016020851015610b69578190505b610b7d610b7585610a3a565b830182610b1d565b50505b505050565b5f82821c905092915050565b5f610ba05f1984600802610b85565b1980831691505092915050565b5f610bb88383610b91565b9150826002028217905092915050565b610bd1826108d8565b67ffffffffffffffff811115610bea57610be961099e565b5b610bf482546109f8565b610bff828285610b3f565b5f60209050601f831160018114610c30575f8415610c1e578287015190505b610c288582610bad565b865550610c8f565b601f198416610c3e86610a28565b5f5b82811015610c6557848901518255600182019150602085019450602081019050610c40565b86831015610c825784890151610c7e601f891682610b91565b8355505b6001600288020188555050505b505050505050565b828183375f83830152505050565b5f610cb083856108e2565b9350610cbd838584610c97565b610cc683610900565b840190509392505050565b5f604082019050610ce45f8301866106f9565b8181036020830152610cf7818486610ca5565b9050949350505050565b7f4e6f74206167656e74206f776e657200000000000000000000000000000000005f82015250565b5f610d35600f836108e2565b9150610d4082610d01565b602082019050919050565b5f6020820190508181035f830152610d6281610d29565b905091905056fea2646970667358221220a7e3ce3a36ac7537770fc2179202773d1d0335a39c582547dcfd567ca55fff0064736f6c634300081c0033","linkReferences":{}},"methodIdentifiers":{"adminRegister(bytes32,address,string)":"4bc99423","deactivateAgent(bytes32)":"59b5acf3","getAgent(bytes32)":"a6c2af01","getAgentWallet(uint256)":"00339509","ownerOf(uint256)":"6352211e","registerAgent(bytes32,string)":"9c795951"},"id":1}